{
  "address": "0x17B6B70823F6895DD77986fcCE827de318006934",
  "abi": [
    {
      "inputs": [
        {
          "internalType": "string",
          "name": "contractUri",
          "type": "string"
        },
        {
          "internalType": "address",
          "name": "_USDTAddress",
          "type": "address"
        },
        {
          "internalType": "address",
          "name": "_recipient",
          "type": "address"
        }
      ],
      "stateMutability": "nonpayable",
      "type": "constructor"
    },
    {
      "anonymous": false,
      "inputs": [
        {
          "indexed": true,
          "internalType": "address",
          "name": "account",
          "type": "address"
        },
        {
          "indexed": true,
          "internalType": "address",
          "name": "operator",
          "type": "address"
        },
        {
          "indexed": false,
          "internalType": "bool",
          "name": "approved",
          "type": "bool"
        }
      ],
      "name": "ApprovalForAll",
      "type": "event"
    },
    {
      "anonymous": false,
      "inputs": [
        {
          "indexed": false,
          "internalType": "address",
          "name": "creator",
          "type": "address"
        },
        {
          "indexed": false,
          "internalType": "uint256",
          "name": "amount",
          "type": "uint256"
        },
        {
          "indexed": false,
          "internalType": "uint256",
          "name": "id",
          "type": "uint256"
        }
      ],
      "name": "BurnNFT",
      "type": "event"
    },
    {
      "anonymous": false,
      "inputs": [
        {
          "indexed": false,
          "internalType": "uint256",
          "name": "price",
          "type": "uint256"
        },
        {
          "indexed": false,
          "internalType": "uint256",
          "name": "madurityTime",
          "type": "uint256"
        },
        {
          "indexed": false,
          "internalType": "uint256",
          "name": "tokenLife",
          "type": "uint256"
        },
        {
          "indexed": false,
          "internalType": "uint256",
          "name": "amount",
          "type": "uint256"
        },
        {
          "indexed": false,
          "internalType": "uint256",
          "name": "energyCost",
          "type": "uint256"
        },
        {
          "indexed": false,
          "internalType": "string",
          "name": "description",
          "type": "string"
        },
        {
          "indexed": false,
          "internalType": "string",
          "name": "ipfsHash",
          "type": "string"
        }
      ],
      "name": "CollectionCreated",
      "type": "event"
    },
    {
      "anonymous": false,
      "inputs": [
        {
          "indexed": false,
          "internalType": "address",
          "name": "creator",
          "type": "address"
        },
        {
          "indexed": false,
          "internalType": "uint256",
          "name": "amount",
          "type": "uint256"
        },
        {
          "indexed": false,
          "internalType": "uint256",
          "name": "id",
          "type": "uint256"
        }
      ],
      "name": "NewNFT",
      "type": "event"
    },
    {
      "anonymous": false,
      "inputs": [
        {
          "indexed": false,
          "internalType": "uint256",
          "name": "amount",
          "type": "uint256"
        },
        {
          "indexed": false,
          "internalType": "uint256",
          "name": "born",
          "type": "uint256"
        }
      ],
      "name": "Purchased",
      "type": "event"
    },
    {
      "anonymous": false,
      "inputs": [
        {
          "indexed": true,
          "internalType": "bytes32",
          "name": "role",
          "type": "bytes32"
        },
        {
          "indexed": true,
          "internalType": "bytes32",
          "name": "previousAdminRole",
          "type": "bytes32"
        },
        {
          "indexed": true,
          "internalType": "bytes32",
          "name": "newAdminRole",
          "type": "bytes32"
        }
      ],
      "name": "RoleAdminChanged",
      "type": "event"
    },
    {
      "anonymous": false,
      "inputs": [
        {
          "indexed": true,
          "internalType": "bytes32",
          "name": "role",
          "type": "bytes32"
        },
        {
          "indexed": true,
          "internalType": "address",
          "name": "account",
          "type": "address"
        },
        {
          "indexed": true,
          "internalType": "address",
          "name": "sender",
          "type": "address"
        }
      ],
      "name": "RoleGranted",
      "type": "event"
    },
    {
      "anonymous": false,
      "inputs": [
        {
          "indexed": true,
          "internalType": "bytes32",
          "name": "role",
          "type": "bytes32"
        },
        {
          "indexed": true,
          "internalType": "address",
          "name": "account",
          "type": "address"
        },
        {
          "indexed": true,
          "internalType": "address",
          "name": "sender",
          "type": "address"
        }
      ],
      "name": "RoleRevoked",
      "type": "event"
    },
    {
      "anonymous": false,
      "inputs": [
        {
          "indexed": true,
          "internalType": "address",
          "name": "operator",
          "type": "address"
        },
        {
          "indexed": true,
          "internalType": "address",
          "name": "from",
          "type": "address"
        },
        {
          "indexed": true,
          "internalType": "address",
          "name": "to",
          "type": "address"
        },
        {
          "indexed": false,
          "internalType": "uint256[]",
          "name": "ids",
          "type": "uint256[]"
        },
        {
          "indexed": false,
          "internalType": "uint256[]",
          "name": "values",
          "type": "uint256[]"
        }
      ],
      "name": "TransferBatch",
      "type": "event"
    },
    {
      "anonymous": false,
      "inputs": [
        {
          "indexed": true,
          "internalType": "address",
          "name": "operator",
          "type": "address"
        },
        {
          "indexed": true,
          "internalType": "address",
          "name": "from",
          "type": "address"
        },
        {
          "indexed": true,
          "internalType": "address",
          "name": "to",
          "type": "address"
        },
        {
          "indexed": false,
          "internalType": "uint256",
          "name": "id",
          "type": "uint256"
        },
        {
          "indexed": false,
          "internalType": "uint256",
          "name": "value",
          "type": "uint256"
        }
      ],
      "name": "TransferSingle",
      "type": "event"
    },
    {
      "anonymous": false,
      "inputs": [
        {
          "indexed": false,
          "internalType": "string",
          "name": "value",
          "type": "string"
        },
        {
          "indexed": true,
          "internalType": "uint256",
          "name": "id",
          "type": "uint256"
        }
      ],
      "name": "URI",
      "type": "event"
    },
    {
      "anonymous": false,
      "inputs": [
        {
          "indexed": false,
          "internalType": "uint256",
          "name": "rewardId",
          "type": "uint256"
        },
        {
          "indexed": false,
          "internalType": "address",
          "name": "user",
          "type": "address"
        }
      ],
      "name": "rewardPaid",
      "type": "event"
    },
    {
      "inputs": [],
      "name": "DEFAULT_ADMIN_ROLE",
      "outputs": [
        {
          "internalType": "bytes32",
          "name": "",
          "type": "bytes32"
        }
      ],
      "stateMutability": "view",
      "type": "function"
    },
    {
      "inputs": [],
      "name": "USDTAddress",
      "outputs": [
        {
          "internalType": "address",
          "name": "",
          "type": "address"
        }
      ],
      "stateMutability": "view",
      "type": "function"
    },
    {
      "inputs": [
        {
          "internalType": "address",
          "name": "_userAddress",
          "type": "address"
        },
        {
          "internalType": "uint256",
          "name": "_amount",
          "type": "uint256"
        },
        {
          "internalType": "uint256",
          "name": "_collectionID",
          "type": "uint256"
        }
      ],
      "name": "addExternalBuy",
      "outputs": [],
      "stateMutability": "nonpayable",
      "type": "function"
    },
    {
      "inputs": [
        {
          "internalType": "address[]",
          "name": "_accounts",
          "type": "address[]"
        }
      ],
      "name": "addWhitelist",
      "outputs": [],
      "stateMutability": "nonpayable",
      "type": "function"
    },
    {
      "inputs": [
        {
          "internalType": "address",
          "name": "account",
          "type": "address"
        },
        {
          "internalType": "uint256",
          "name": "id",
          "type": "uint256"
        }
      ],
      "name": "balanceOf",
      "outputs": [
        {
          "internalType": "uint256",
          "name": "",
          "type": "uint256"
        }
      ],
      "stateMutability": "view",
      "type": "function"
    },
    {
      "inputs": [
        {
          "internalType": "address[]",
          "name": "accounts",
          "type": "address[]"
        },
        {
          "internalType": "uint256[]",
          "name": "ids",
          "type": "uint256[]"
        }
      ],
      "name": "balanceOfBatch",
      "outputs": [
        {
          "internalType": "uint256[]",
          "name": "",
          "type": "uint256[]"
        }
      ],
      "stateMutability": "view",
      "type": "function"
    },
    {
      "inputs": [
        {
          "internalType": "address",
          "name": "account",
          "type": "address"
        },
        {
          "internalType": "uint256",
          "name": "id",
          "type": "uint256"
        },
        {
          "internalType": "uint256",
          "name": "value",
          "type": "uint256"
        }
      ],
      "name": "burn",
      "outputs": [],
      "stateMutability": "nonpayable",
      "type": "function"
    },
    {
      "inputs": [
        {
          "internalType": "address",
          "name": "account",
          "type": "address"
        },
        {
          "internalType": "uint256[]",
          "name": "ids",
          "type": "uint256[]"
        },
        {
          "internalType": "uint256[]",
          "name": "values",
          "type": "uint256[]"
        }
      ],
      "name": "burnBatch",
      "outputs": [],
      "stateMutability": "nonpayable",
      "type": "function"
    },
    {
      "inputs": [
        {
          "internalType": "uint256",
          "name": "tokenId",
          "type": "uint256"
        },
        {
          "internalType": "uint256",
          "name": "amount",
          "type": "uint256"
        }
      ],
      "name": "burnIt",
      "outputs": [],
      "stateMutability": "nonpayable",
      "type": "function"
    },
    {
      "inputs": [
        {
          "internalType": "uint256",
          "name": "_amount",
          "type": "uint256"
        },
        {
          "internalType": "uint256",
          "name": "_collectionID",
          "type": "uint256"
        }
      ],
      "name": "buyToken",
      "outputs": [],
      "stateMutability": "nonpayable",
      "type": "function"
    },
    {
      "inputs": [
        {
          "internalType": "address",
          "name": "_newAddress",
          "type": "address"
        }
      ],
      "name": "changeUSDTaddress",
      "outputs": [],
      "stateMutability": "nonpayable",
      "type": "function"
    },
    {
      "inputs": [
        {
          "internalType": "uint256",
          "name": "",
          "type": "uint256"
        }
      ],
      "name": "collections",
      "outputs": [
        {
          "internalType": "bool",
          "name": "isPublic",
          "type": "bool"
        },
        {
          "internalType": "uint256",
          "name": "madurationStartedAt",
          "type": "uint256"
        },
        {
          "internalType": "uint256",
          "name": "remainAmountToSell",
          "type": "uint256"
        },
        {
          "internalType": "uint256",
          "name": "TH",
          "type": "uint256"
        },
        {
          "internalType": "uint256",
          "name": "price",
          "type": "uint256"
        },
        {
          "internalType": "uint256",
          "name": "madurityTime",
          "type": "uint256"
        },
        {
          "internalType": "uint256",
          "name": "tokenLife",
          "type": "uint256"
        },
        {
          "internalType": "uint256",
          "name": "amount",
          "type": "uint256"
        },
        {
          "internalType": "uint256",
          "name": "amountToStartMaduration",
          "type": "uint256"
        },
        {
          "internalType": "uint256",
          "name": "energyCost",
          "type": "uint256"
        },
        {
          "internalType": "string",
          "name": "description",
          "type": "string"
        },
        {
          "internalType": "string",
          "name": "ipfsHash",
          "type": "string"
        }
      ],
      "stateMutability": "view",
      "type": "function"
    },
    {
      "inputs": [],
      "name": "contractURI",
      "outputs": [
        {
          "internalType": "string",
          "name": "",
          "type": "string"
        }
      ],
      "stateMutability": "view",
      "type": "function"
    },
    {
      "inputs": [
        {
          "internalType": "uint256",
          "name": "_price",
          "type": "uint256"
        },
        {
          "internalType": "string",
          "name": "_description",
          "type": "string"
        },
        {
          "internalType": "bool",
          "name": "_privacy",
          "type": "bool"
        },
        {
          "internalType": "uint256",
          "name": "_TH",
          "type": "uint256"
        },
        {
          "internalType": "uint256",
          "name": "_madurityTime",
          "type": "uint256"
        },
        {
          "internalType": "uint256",
          "name": "_energyCost",
          "type": "uint256"
        },
        {
          "internalType": "uint256",
          "name": "_tokenLife",
          "type": "uint256"
        },
        {
          "internalType": "uint256",
          "name": "_amount",
          "type": "uint256"
        },
        {
          "internalType": "uint256",
          "name": "_amountToStartMaduration",
          "type": "uint256"
        },
        {
          "internalType": "string",
          "name": "_ipfsHash",
          "type": "string"
        }
      ],
      "name": "createCollection",
      "outputs": [],
      "stateMutability": "nonpayable",
      "type": "function"
    },
    {
      "inputs": [
        {
          "internalType": "uint256",
          "name": "collectionID",
          "type": "uint256"
        }
      ],
      "name": "getIpfsHash",
      "outputs": [
        {
          "internalType": "string",
          "name": "",
          "type": "string"
        }
      ],
      "stateMutability": "view",
      "type": "function"
    },
    {
      "inputs": [
        {
          "internalType": "bytes32",
          "name": "role",
          "type": "bytes32"
        }
      ],
      "name": "getRoleAdmin",
      "outputs": [
        {
          "internalType": "bytes32",
          "name": "",
          "type": "bytes32"
        }
      ],
      "stateMutability": "view",
      "type": "function"
    },
    {
      "inputs": [
        {
          "internalType": "uint256",
          "name": "tokenId",
          "type": "uint256"
        }
      ],
      "name": "getTokenData",
      "outputs": [
        {
          "components": [
            {
              "internalType": "address",
              "name": "creator",
              "type": "address"
            },
            {
              "internalType": "uint256",
              "name": "idCollection",
              "type": "uint256"
            },
            {
              "internalType": "uint256",
              "name": "born",
              "type": "uint256"
            }
          ],
          "internalType": "struct Criptonix.tokenData",
          "name": "",
          "type": "tuple"
        }
      ],
      "stateMutability": "view",
      "type": "function"
    },
    {
      "inputs": [
        {
          "internalType": "address",
          "name": "_account",
          "type": "address"
        }
      ],
      "name": "getUserNftsId",
      "outputs": [
        {
          "internalType": "uint256[]",
          "name": "",
          "type": "uint256[]"
        }
      ],
      "stateMutability": "view",
      "type": "function"
    },
    {
      "inputs": [
        {
          "internalType": "bytes32",
          "name": "role",
          "type": "bytes32"
        },
        {
          "internalType": "address",
          "name": "account",
          "type": "address"
        }
      ],
      "name": "grantRole",
      "outputs": [],
      "stateMutability": "nonpayable",
      "type": "function"
    },
    {
      "inputs": [
        {
          "internalType": "bytes32",
          "name": "role",
          "type": "bytes32"
        },
        {
          "internalType": "address",
          "name": "account",
          "type": "address"
        }
      ],
      "name": "hasRole",
      "outputs": [
        {
          "internalType": "bool",
          "name": "",
          "type": "bool"
        }
      ],
      "stateMutability": "view",
      "type": "function"
    },
    {
      "inputs": [
        {
          "internalType": "uint256",
          "name": "collectionID",
          "type": "uint256"
        },
        {
          "internalType": "address",
          "name": "_userAddress",
          "type": "address"
        }
      ],
      "name": "howManyNFTs",
      "outputs": [
        {
          "internalType": "uint256",
          "name": "",
          "type": "uint256"
        }
      ],
      "stateMutability": "view",
      "type": "function"
    },
    {
      "inputs": [],
      "name": "idCollection",
      "outputs": [
        {
          "internalType": "uint256",
          "name": "",
          "type": "uint256"
        }
      ],
      "stateMutability": "view",
      "type": "function"
    },
    {
      "inputs": [
        {
          "internalType": "address",
          "name": "",
          "type": "address"
        },
        {
          "internalType": "uint256",
          "name": "",
          "type": "uint256"
        }
      ],
      "name": "idsForUser",
      "outputs": [
        {
          "internalType": "uint256",
          "name": "",
          "type": "uint256"
        }
      ],
      "stateMutability": "view",
      "type": "function"
    },
    {
      "inputs": [
        {
          "internalType": "uint256",
          "name": "",
          "type": "uint256"
        }
      ],
      "name": "ipfsHashes",
      "outputs": [
        {
          "internalType": "string",
          "name": "",
          "type": "string"
        }
      ],
      "stateMutability": "view",
      "type": "function"
    },
    {
      "inputs": [
        {
          "internalType": "address",
          "name": "account",
          "type": "address"
        },
        {
          "internalType": "address",
          "name": "operator",
          "type": "address"
        }
      ],
      "name": "isApprovedForAll",
      "outputs": [
        {
          "internalType": "bool",
          "name": "",
          "type": "bool"
        }
      ],
      "stateMutability": "view",
      "type": "function"
    },
    {
      "inputs": [
        {
          "internalType": "uint256",
          "name": "",
          "type": "uint256"
        },
        {
          "internalType": "uint256",
          "name": "",
          "type": "uint256"
        }
      ],
      "name": "nftsOfCollection",
      "outputs": [
        {
          "internalType": "uint256",
          "name": "",
          "type": "uint256"
        }
      ],
      "stateMutability": "view",
      "type": "function"
    },
    {
      "inputs": [
        {
          "internalType": "uint256",
          "name": "rewardID",
          "type": "uint256"
        },
        {
          "internalType": "uint256",
          "name": "collectionID",
          "type": "uint256"
        },
        {
          "internalType": "uint256",
          "name": "amountOfDays",
          "type": "uint256"
        }
      ],
      "name": "payEnergyCost",
      "outputs": [],
      "stateMutability": "nonpayable",
      "type": "function"
    },
    {
      "inputs": [],
      "name": "removeWhitelistedAddress",
      "outputs": [],
      "stateMutability": "nonpayable",
      "type": "function"
    },
    {
      "inputs": [
        {
          "internalType": "bytes32",
          "name": "role",
          "type": "bytes32"
        },
        {
          "internalType": "address",
          "name": "account",
          "type": "address"
        }
      ],
      "name": "renounceRole",
      "outputs": [],
      "stateMutability": "nonpayable",
      "type": "function"
    },
    {
      "inputs": [
        {
          "internalType": "bytes32",
          "name": "role",
          "type": "bytes32"
        },
        {
          "internalType": "address",
          "name": "account",
          "type": "address"
        }
      ],
      "name": "revokeRole",
      "outputs": [],
      "stateMutability": "nonpayable",
      "type": "function"
    },
    {
      "inputs": [
        {
          "internalType": "address",
          "name": "",
          "type": "address"
        },
        {
          "internalType": "uint256",
          "name": "",
          "type": "uint256"
        }
      ],
      "name": "rewardsAlreadyPaid",
      "outputs": [
        {
          "internalType": "uint256",
          "name": "",
          "type": "uint256"
        }
      ],
      "stateMutability": "view",
      "type": "function"
    },
    {
      "inputs": [
        {
          "internalType": "address",
          "name": "_user",
          "type": "address"
        }
      ],
      "name": "rewardsPaid",
      "outputs": [
        {
          "internalType": "uint256[]",
          "name": "",
          "type": "uint256[]"
        }
      ],
      "stateMutability": "view",
      "type": "function"
    },
    {
      "inputs": [
        {
          "internalType": "address",
          "name": "from",
          "type": "address"
        },
        {
          "internalType": "address",
          "name": "to",
          "type": "address"
        },
        {
          "internalType": "uint256[]",
          "name": "ids",
          "type": "uint256[]"
        },
        {
          "internalType": "uint256[]",
          "name": "amounts",
          "type": "uint256[]"
        },
        {
          "internalType": "bytes",
          "name": "data",
          "type": "bytes"
        }
      ],
      "name": "safeBatchTransferFrom",
      "outputs": [],
      "stateMutability": "nonpayable",
      "type": "function"
    },
    {
      "inputs": [
        {
          "internalType": "address",
          "name": "from",
          "type": "address"
        },
        {
          "internalType": "address",
          "name": "to",
          "type": "address"
        },
        {
          "internalType": "uint256",
          "name": "id",
          "type": "uint256"
        },
        {
          "internalType": "uint256",
          "name": "amount",
          "type": "uint256"
        },
        {
          "internalType": "bytes",
          "name": "data",
          "type": "bytes"
        }
      ],
      "name": "safeTransferFrom",
      "outputs": [],
      "stateMutability": "nonpayable",
      "type": "function"
    },
    {
      "inputs": [
        {
          "internalType": "address",
          "name": "operator",
          "type": "address"
        },
        {
          "internalType": "bool",
          "name": "approved",
          "type": "bool"
        }
      ],
      "name": "setApprovalForAll",
      "outputs": [],
      "stateMutability": "nonpayable",
      "type": "function"
    },
    {
      "inputs": [
        {
          "internalType": "bytes4",
          "name": "interfaceId",
          "type": "bytes4"
        }
      ],
      "name": "supportsInterface",
      "outputs": [
        {
          "internalType": "bool",
          "name": "",
          "type": "bool"
        }
      ],
      "stateMutability": "view",
      "type": "function"
    },
    {
      "inputs": [
        {
          "internalType": "uint256",
          "name": "",
          "type": "uint256"
        }
      ],
      "name": "tokenDatas",
      "outputs": [
        {
          "internalType": "address",
          "name": "creator",
          "type": "address"
        },
        {
          "internalType": "uint256",
          "name": "idCollection",
          "type": "uint256"
        },
        {
          "internalType": "uint256",
          "name": "born",
          "type": "uint256"
        }
      ],
      "stateMutability": "view",
      "type": "function"
    },
    {
      "inputs": [
        {
          "internalType": "uint256",
          "name": "",
          "type": "uint256"
        }
      ],
      "name": "uri",
      "outputs": [
        {
          "internalType": "string",
          "name": "",
          "type": "string"
        }
      ],
      "stateMutability": "view",
      "type": "function"
    },
    {
      "inputs": [
        {
          "internalType": "uint256",
          "name": "",
          "type": "uint256"
        }
      ],
      "name": "whitelistArr",
      "outputs": [
        {
          "internalType": "address",
          "name": "",
          "type": "address"
        }
      ],
      "stateMutability": "view",
      "type": "function"
    },
    {
      "inputs": [
        {
          "internalType": "address",
          "name": "",
          "type": "address"
        }
      ],
      "name": "whitelisted",
      "outputs": [
        {
          "internalType": "bool",
          "name": "",
          "type": "bool"
        }
      ],
      "stateMutability": "view",
      "type": "function"
    }
  ],
  "transactionHash": "0xe78faacbdf8dc2c98f4faa08137b30bcf706cdebcc5653e765796cf7d328d546",
  "args": [
    "htttp://",
    "0x32698D37E2f6d00dE3B694246943053493851642",
    "0xd6873602200ED3869205B5E8423020C933022276"
  ],
  "solcInputHash": "3c644d74ec37fcb4445642ff90398c90",
  "bytecode": "0x6080604052600160075560016008553480156200001b57600080fd5b506040516200460a3803806200460a8339810160408190526200003e9162000292565b604080516020810190915260008152620000588162000109565b5060016004556200006b60003362000122565b60408051808201909152600780825266697066733a2f2f60c81b60209092019182526200009b91600591620001cf565b5082604051602001620000af919062000371565b60405160208183030381529060405260069080519060200190620000d5929190620001cf565b50600980546001600160a01b039384166001600160a01b031991821617909155600a80549290931691161790555062000428565b80516200011e906002906020840190620001cf565b5050565b60008281526003602090815260408083206001600160a01b03851684529091529020546200011e908390839060ff166200011e5760008281526003602090815260408083206001600160a01b03851684529091529020805460ff191660011790556200018b3390565b6001600160a01b0316816001600160a01b0316837f2f8788117e7eff1d82e926ec794901d17c78024a50270940304540a733656f0d60405160405180910390a45050565b828054620001dd90620003d5565b90600052602060002090601f0160209004810192826200020157600085556200024c565b82601f106200021c57805160ff19168380011785556200024c565b828001600101855582156200024c579182015b828111156200024c5782518255916020019190600101906200022f565b506200025a9291506200025e565b5090565b5b808211156200025a57600081556001016200025f565b80516001600160a01b03811681146200028d57600080fd5b919050565b600080600060608486031215620002a857600080fd5b83516001600160401b0380821115620002c057600080fd5b818601915086601f830112620002d557600080fd5b815181811115620002ea57620002ea62000412565b604051601f8201601f19908116603f0116810190838211818310171562000315576200031562000412565b816040528281528960208487010111156200032f57600080fd5b62000342836020830160208801620003a2565b8097505050505050620003586020850162000275565b9150620003686040850162000275565b90509250925092565b66697066733a2f2f60c81b81526000825162000395816007850160208701620003a2565b9190910160070192915050565b60005b83811015620003bf578181015183820152602001620003a5565b83811115620003cf576000848401525b50505050565b600181811c90821680620003ea57607f821691505b602082108114156200040c57634e487b7160e01b600052602260045260246000fd5b50919050565b634e487b7160e01b600052604160045260246000fd5b6141d280620004386000396000f3fe608060405234801561001057600080fd5b50600436106102475760003560e01c806391d148541161013b578063d936547e116100b8578063f242432a1161007c578063f242432a146105eb578063f5298aca146105fe578063fdbda0ec14610611578063ff920c741461063c578063ffa9aede1461064f57600080fd5b8063d936547e1461055e578063e702030714610581578063e8a3d48514610594578063e985e9c51461059c578063edac985b146105d857600080fd5b8063b0b8f553116100ff578063b0b8f553146104e7578063b6b75c38146104fa578063be38341d1461050d578063d450fbc914610538578063d547741f1461054b57600080fd5b806391d1485414610468578063a217fddf1461047b578063a22cb46514610483578063a4de2f5c14610496578063b09afec1146104a957600080fd5b80632f2ff15d116101c95780634e1273f41161018d5780634e1273f4146103be5780636b20c454146103d15780636fc37a75146103e4578063700a4a74146104425780638257ea891461045557600080fd5b80632f2ff15d1461036a57806334279b681461037d57806336568abe1461038557806336d00a23146103985780633736e8d9146103ab57600080fd5b80630dd57270116102105780630dd57270146102e15780630e89341c14610301578063185de68d14610321578063248a9ca3146103345780632eb2c2d61461035757600080fd5b8062fdd58e1461024c57806301ffc9a714610272578063057466ea146102a6578063069f9d97146102bb5780630c5e2e12146102ce575b600080fd5b61025f61025a366004613774565b610658565b6040519081526020015b60405180910390f35b6102966102803660046138cb565b6001600160e01b0319166301ffc9a760e01b1490565b6040519015158152602001610269565b6102b96102b43660046139bf565b6106ef565b005b61025f6102c9366004613774565b610cad565b61025f6102dc3660046138a8565b610cde565b6102f46102ef36600461356c565b610f90565b6040516102699190613b8c565b61031461030f36600461388f565b610ffc565b6040516102699190613c4a565b61025f61032f366004613774565b611086565b61025f61034236600461388f565b60009081526003602052604090206001015490565b6102b96103653660046135ba565b6110a2565b6102b96103783660046138a8565b61130c565b6102b9611337565b6102b96103933660046138a8565b6113d9565b6102b96103a63660046139e1565b611457565b6102b96103b936600461356c565b6118e6565b6102f46103cc36600461380e565b61192f565b6102b96103df3660046136c9565b611a4c565b61041d6103f236600461388f565b600d602052600090815260409020805460018201546002909201546001600160a01b03909116919083565b604080516001600160a01b039094168452602084019290925290820152606001610269565b6102f461045036600461356c565b611a8f565b61025f6104633660046139bf565b611af9565b6102966104763660046138a8565b611b15565b61025f600081565b6102b961049136600461373d565b611b40565b6103146104a436600461388f565b611c17565b6104bc6104b736600461388f565b611cb1565b6040805182516001600160a01b03168152602080840151908201529181015190820152606001610269565b6102b96104f5366004613905565b611d20565b6102b96105083660046139bf565b611f38565b61052061051b36600461388f565b611faf565b6040516001600160a01b039091168152602001610269565b61031461054636600461388f565b611fd9565b6102b96105593660046138a8565b611ff9565b61029661056c36600461356c565b60106020526000908152604090205460ff1681565b6102b961058f36600461379e565b61201f565b6103146124ed565b6102966105aa366004613587565b6001600160a01b03918216600090815260016020908152604080832093909416825291909152205460ff1690565b6102b96105e63660046137d1565b61257f565b6102b96105f9366004613664565b612622565b6102b961060c36600461379e565b612790565b61062461061f36600461388f565b6127d3565b6040516102699c9b9a99989796959493929190613bcd565b600954610520906001600160a01b031681565b61025f60075481565b60006001600160a01b0383166106c95760405162461bcd60e51b815260206004820152602b60248201527f455243313135353a2062616c616e636520717565727920666f7220746865207a60448201526a65726f206164647265737360a81b60648201526084015b60405180910390fd5b506000908152602081815260408083206001600160a01b03949094168352929052205490565b600260045414156107425760405162461bcd60e51b815260206004820152601f60248201527f5265656e7472616e637947756172643a207265656e7472616e742063616c6c0060448201526064016106c0565b60026004556000818152600e6020526040902054819060ff166107be573360009081526010602052604090205460ff166107be5760405162461bcd60e51b815260206004820152601a60248201527f5468697320636f6c6c656374696f6e206973207072697661746500000000000060448201526064016106c0565b6000828152600e60209081526040808320815161018081018352815460ff16151581526001820154938101939093526002810154918301919091526003810154606083015260048101546080830152600581015460a0830152600681015460c0830152600781015460e083015260088101546101008301526009810154610120830152600a81018054610140840191906108579061400d565b80601f01602080910402602001604051908101604052809291908181526020018280546108839061400d565b80156108d05780601f106108a5576101008083540402835291602001916108d0565b820191906000526020600020905b8154815290600101906020018083116108b357829003601f168201915b50505050508152602001600b820180546108e99061400d565b80601f01602080910402602001604051908101604052809291908181526020018280546109159061400d565b80156109625780601f1061093757610100808354040283529160200191610962565b820191906000526020600020905b81548152906001019060200180831161094557829003601f168201915b505050505081525050905083816040015110156109915760405162461bcd60e51b81526004016106c090613d32565b6000831180156109a357506007548311155b6109ef5760405162461bcd60e51b815260206004820152601c60248201527f54686973206964206973206e6f7420696e20636f6c6c656374696f6e0000000060448201526064016106c0565b600954600a5460808301516001600160a01b03928316926323b872dd923392911690610a35906c0c9f2c9cd04674edea4000000090610a2f908b90612948565b9061295b565b6040516001600160e01b031960e086901b1681526001600160a01b0393841660048201529290911660248301526044820152606401602060405180830381600087803b158015610a8457600080fd5b505af1158015610a98573d6000803e3d6000fd5b505050506040513d601f19601f82011682018060405250810190610abc9190613872565b610b035760405162461bcd60e51b8152602060048201526018602482015277151a19481d5cd91d081d1c985b9cd9995c8819985a5b195960421b60448201526064016106c0565b60005b610b1885670de0b6b3a764000061295b565b811015610c0557610b4833600854600160405180604001604052806002815260200161060f60f31b815250612967565b6040805160608101825233808252602080830188815242848601908152600880546000908152600d8552878120965187546001600160a01b0319166001600160a01b0390911617875592516001808801919091559151600290960195909555928152600f8252848120845481548086018355918352838320909101558881526012825293842083548154938401825590855290842090910155805491610bed83614075565b91905055508080610bfd90614075565b915050610b06565b506000838152600e6020526040902060020154610c229085612a68565b6000848152600e60205260409020600281018290556101008301516007909101549091610c4f9190612a68565b10610c6a576000838152600e60205260409020426001909101555b604080518581524260208201527fb5178cc061af0b3448e47e868e15690d28deeae596550c7ba8ebe9eb105c97d3910160405180910390a1505060016004555050565b60116020528160005260406000208181548110610cc957600080fd5b90600052602060002001600091509150505481565b60008080610ceb84610f90565b905060005b8151811015610f86576000868152600e60209081526040808320815161018081018352815460ff16151581526001820154938101939093526002810154918301919091526003810154606083015260048101546080830152600581015460a0830152600681015460c0830152600781015460e083015260088101546101008301526009810154610120830152600a8101805461014084019190610d929061400d565b80601f0160208091040260200160405190810160405280929190818152602001828054610dbe9061400d565b8015610e0b5780601f10610de057610100808354040283529160200191610e0b565b820191906000526020600020905b815481529060010190602001808311610dee57829003601f168201915b50505050508152602001600b82018054610e249061400d565b80601f0160208091040260200160405190810160405280929190818152602001828054610e509061400d565b8015610e9d5780601f10610e7257610100808354040283529160200191610e9d565b820191906000526020600020905b815481529060010190602001808311610e8057829003601f168201915b505050505081525050905086600d6000858581518110610ebf57610ebf6140a6565b6020026020010151815260200190815260200160002060010154148015610f3257508060c001518160a00151600d6000868681518110610f0157610f016140a6565b6020026020010151815260200190815260200160002060020154610f259190613f56565b610f2f9190613f56565b42105b8015610f6057506000610f5e87858581518110610f5157610f516140a6565b6020026020010151610658565b115b15610f735783610f6f81614075565b9450505b5080610f7e81614075565b915050610cf0565b5090949350505050565b6001600160a01b0381166000908152600f6020908152604091829020805483518184028101840190945280845260609392830182828015610ff057602002820191906000526020600020905b815481526020019060010190808311610fdc575b50505050509050919050565b60606002805461100b9061400d565b80601f01602080910402602001604051908101604052809291908181526020018280546110379061400d565b8015610ff05780601f1061105957610100808354040283529160200191610ff0565b820191906000526020600020905b8154815290600101906020018083116110675750939695505050505050565b600f6020528160005260406000208181548110610cc957600080fd5b81518351146110c35760405162461bcd60e51b81526004016106c090613e80565b6001600160a01b0384166110e95760405162461bcd60e51b81526004016106c090613d7f565b6001600160a01b038516331480611105575061110585336105aa565b61116c5760405162461bcd60e51b815260206004820152603260248201527f455243313135353a207472616e736665722063616c6c6572206973206e6f74206044820152711bdddb995c881b9bdc88185c1c1c9bdd995960721b60648201526084016106c0565b3360005b845181101561129e57600085828151811061118d5761118d6140a6565b6020026020010151905060008583815181106111ab576111ab6140a6565b602090810291909101810151600084815280835260408082206001600160a01b038e1683529093529190912054909150818110156111fb5760405162461bcd60e51b81526004016106c090613e07565b6112058282613faf565b60008085815260200190815260200160002060008c6001600160a01b03166001600160a01b03168152602001908152602001600020819055508160008085815260200190815260200160002060008b6001600160a01b03166001600160a01b0316815260200190815260200160002060008282546112839190613f56565b925050819055505050508061129790614075565b9050611170565b50846001600160a01b0316866001600160a01b0316826001600160a01b03167f4a39dc06d4c0dbc64b70af90fd698a233a518aa5d07e595d983b8c0526c8f7fb87876040516112ee929190613b9f565b60405180910390a4611304818787878787612a74565b505050505050565b6000828152600360205260409020600101546113288133612bdf565b6113328383612c43565b505050565b611342600033611b15565b61135e5760405162461bcd60e51b81526004016106c090613e51565b60005b600b548110156113ca57600160106000600b8481548110611384576113846140a6565b6000918252602080832091909101546001600160a01b031683528201929092526040019020805460ff1916911515919091179055806113c281614075565b915050611361565b506113d7600b60006132da565b565b6001600160a01b03811633146114495760405162461bcd60e51b815260206004820152602f60248201527f416363657373436f6e74726f6c3a2063616e206f6e6c792072656e6f756e636560448201526e103937b632b9903337b91039b2b63360891b60648201526084016106c0565b6114538282612cc9565b5050565b6000828152600e60209081526040808320815161018081018352815460ff16151581526001820154938101939093526002810154918301919091526003810154606083015260048101546080830152600581015460a0830152600681015460c0830152600781015460e083015260088101546101008301526009810154610120830152600a81018054610140840191906114f09061400d565b80601f016020809104026020016040519081016040528092919081815260200182805461151c9061400d565b80156115695780601f1061153e57610100808354040283529160200191611569565b820191906000526020600020905b81548152906001019060200180831161154c57829003601f168201915b50505050508152602001600b820180546115829061400d565b80601f01602080910402602001604051908101604052809291908181526020018280546115ae9061400d565b80156115fb5780601f106115d0576101008083540402835291602001916115fb565b820191906000526020600020905b8154815290600101906020018083116115de57829003601f168201915b5050505050815250509050600081602001511161165a5760405162461bcd60e51b815260206004820152601a60248201527f4d616475726174696f6e206e6f7420737461727465642079657400000000000060448201526064016106c0565b8060a00151816020015161166e9190613f56565b42116116b45760405162461bcd60e51b815260206004820152601560248201527409ac2c8eae4c2e8d2dedc40dcdee840ccd2dcd2e6d605b1b60448201526064016106c0565b60006116c08433610cde565b9050600081116117125760405162461bcd60e51b815260206004820152601a60248201527f4e6f204e46545320696e207468697320636f6c6c656374696f6e00000000000060448201526064016106c0565b61176c611748826117426c0c9f2c9cd04674edea40000000610a2f8761012001518961294890919063ffffffff16565b90612948565b60405180604001604052806006815260200165185b5bdd5b9d60d21b815250612d30565b600954600a546101208401516001600160a01b03928316926323b872dd9233929116906117b3908690611742906c0c9f2c9cd04674edea4000000090610a2f908c90612948565b6040516001600160e01b031960e086901b1681526001600160a01b0393841660048201529290911660248301526044820152606401602060405180830381600087803b15801561180257600080fd5b505af1158015611816573d6000803e3d6000fd5b505050506040513d601f19601f8201168201806040525081019061183a9190613872565b6118815760405162461bcd60e51b8152602060048201526018602482015277151a19481d5cd91d081d1c985b9cd9995c8819985a5b195960421b60448201526064016106c0565b3360008181526011602090815260408083208054600181018255908452928290209092018890558151888152908101929092527f83345060e3eb4917210def935c880d7bfa8ed73b136153d3ac60f0be5a183dfa910160405180910390a15050505050565b6118f1600033611b15565b61190d5760405162461bcd60e51b81526004016106c090613e51565b600980546001600160a01b0319166001600160a01b0392909216919091179055565b606081518351146119945760405162461bcd60e51b815260206004820152602960248201527f455243313135353a206163636f756e747320616e6420696473206c656e677468604482015268040dad2e6dac2e8c6d60bb1b60648201526084016106c0565b6000835167ffffffffffffffff8111156119b0576119b06140bc565b6040519080825280602002602001820160405280156119d9578160200160208202803683370190505b50905060005b8451811015611a4457611a178582815181106119fd576119fd6140a6565b6020026020010151858381518110610f5157610f516140a6565b828281518110611a2957611a296140a6565b6020908102919091010152611a3d81614075565b90506119df565b509392505050565b6001600160a01b038316331480611a685750611a6883336105aa565b611a845760405162461bcd60e51b81526004016106c090613ce9565b611332838383612d75565b6001600160a01b038116600090815260116020908152604091829020805483518184028101840190945280845260609392830182828015610ff05760200282019190600052602060002090815481526020019060010190808311610fdc5750505050509050919050565b60126020528160005260406000208181548110610cc957600080fd5b60009182526003602090815260408084206001600160a01b0393909316845291905290205460ff1690565b336001600160a01b0383161415611bab5760405162461bcd60e51b815260206004820152602960248201527f455243313135353a2073657474696e6720617070726f76616c20737461747573604482015268103337b91039b2b63360b91b60648201526084016106c0565b3360008181526001602090815260408083206001600160a01b03871680855290835292819020805460ff191686151590811790915590519081529192917f17307eab39ab6107e8899845ad3d59bd9653f200f220920489ca2b5937696c31910160405180910390a35050565b600c6020526000908152604090208054611c309061400d565b80601f0160208091040260200160405190810160405280929190818152602001828054611c5c9061400d565b8015611ca95780601f10611c7e57610100808354040283529160200191611ca9565b820191906000526020600020905b815481529060010190602001808311611c8c57829003601f168201915b505050505081565b611cde604051806060016040528060006001600160a01b0316815260200160008152602001600081525090565b506000908152600d6020908152604091829020825160608101845281546001600160a01b03168152600182015492810192909252600201549181019190915290565b611d2b600033611b15565b611d475760405162461bcd60e51b81526004016106c090613e51565b818311611db15760405162461bcd60e51b815260206004820152603260248201527f4d616475726174696f6e20616d6f756e742073686f756c64206265206c657373604482015271081d1a185b881d1bdd185b08185b5bdd5b9d60721b60648201526084016106c0565b6040518061018001604052808915158152602001600081526020018481526020018881526020018b81526020018781526020018581526020018481526020018381526020018681526020018a815260200182815250600e6000600754815260200190815260200160002060008201518160000160006101000a81548160ff0219169083151502179055506020820151816001015560408201518160020155606082015181600301556080820151816004015560a0820151816005015560c0820151816006015560e082015181600701556101008201518160080155610120820151816009015561014082015181600a019080519060200190611eb49291906132fb565b506101608201518051611ed191600b8401916020909101906132fb565b50506007805491506000611ee483614075565b91905055507f5f8d39c5b2157ce3be3fba6bc83dced30befa23d4fc4a67702ab0017d48f47d58a878686898e87604051611f249796959493929190613ee1565b60405180910390a150505050505050505050565b611f43600033611b15565b611f5f5760405162461bcd60e51b81526004016106c090613e51565b611f6a338383612790565b60408051338152602081018390529081018390527fac9904ccb216c7c9a336264f26486b74305b0e54e9234ee5bfafc767044870d19060600160405180910390a15050565b600b8181548110611fbf57600080fd5b6000918252602090912001546001600160a01b0316905081565b6000818152600e60205260409020600b0180546060919061100b9061400d565b6000828152600360205260409020600101546120158133612bdf565b6113328383612cc9565b600260045414156120725760405162461bcd60e51b815260206004820152601f60248201527f5265656e7472616e637947756172643a207265656e7472616e742063616c6c0060448201526064016106c0565b6002600455612082600033611b15565b61209e5760405162461bcd60e51b81526004016106c090613e51565b6000818152600e6020526040902054819060ff16612115573360009081526010602052604090205460ff166121155760405162461bcd60e51b815260206004820152601a60248201527f5468697320636f6c6c656374696f6e206973207072697661746500000000000060448201526064016106c0565b6000828152600e60209081526040808320815161018081018352815460ff16151581526001820154938101939093526002810154918301919091526003810154606083015260048101546080830152600581015460a0830152600681015460c0830152600781015460e083015260088101546101008301526009810154610120830152600a81018054610140840191906121ae9061400d565b80601f01602080910402602001604051908101604052809291908181526020018280546121da9061400d565b80156122275780601f106121fc57610100808354040283529160200191612227565b820191906000526020600020905b81548152906001019060200180831161220a57829003601f168201915b50505050508152602001600b820180546122409061400d565b80601f016020809104026020016040519081016040528092919081815260200182805461226c9061400d565b80156122b95780601f1061228e576101008083540402835291602001916122b9565b820191906000526020600020905b81548152906001019060200180831161229c57829003601f168201915b505050505081525050905083816040015110156122e85760405162461bcd60e51b81526004016106c090613d32565b6000831180156122fa57506007548311155b6123465760405162461bcd60e51b815260206004820152601c60248201527f54686973206964206973206e6f7420696e20636f6c6c656374696f6e0000000060448201526064016106c0565b60005b61235b85670de0b6b3a764000061295b565b8110156124445761238086600854600160405180602001604052806000815250612967565b604080516060810182526001600160a01b03888116808352602080840189815242858701908152600880546000908152600d8552888120975188546001600160a01b031916971696909617875591516001808801919091559051600290960195909555918352600f815284832082548154808701835591855282852090910155888352601281529382208154815494850182559083529382209092019290925580549161242c83614075565b9190505550808061243c90614075565b915050612349565b506000838152600e60205260409020600201546124619085612a68565b6000848152600e6020526040902060028101829055610100830151600790910154909161248e9190612a68565b106124a9576000838152600e60205260409020426001909101555b604080518581524260208201527fb5178cc061af0b3448e47e868e15690d28deeae596550c7ba8ebe9eb105c97d3910160405180910390a150506001600455505050565b6060600680546124fc9061400d565b80601f01602080910402602001604051908101604052809291908181526020018280546125289061400d565b80156125755780601f1061254a57610100808354040283529160200191612575565b820191906000526020600020905b81548152906001019060200180831161255857829003601f168201915b5050505050905090565b61258a600033611b15565b6125a65760405162461bcd60e51b81526004016106c090613e51565b60005b815181101561260e576001601060008484815181106125ca576125ca6140a6565b6020908102919091018101516001600160a01b03168252810191909152604001600020805460ff19169115159190911790558061260681614075565b9150506125a9565b50805161145390600b90602084019061337f565b6001600160a01b0384166126485760405162461bcd60e51b81526004016106c090613d7f565b6001600160a01b038516331480612664575061266485336105aa565b6126805760405162461bcd60e51b81526004016106c090613ce9565b336126a081878761269088612efe565b61269988612efe565b5050505050565b6000848152602081815260408083206001600160a01b038a168452909152902054838110156126e15760405162461bcd60e51b81526004016106c090613e07565b6126eb8482613faf565b6000868152602081815260408083206001600160a01b038c81168552925280832093909355881681529081208054869290612727908490613f56565b909155505060408051868152602081018690526001600160a01b03808916928a821692918616917fc3d58168c5ae7397731d063d5bbf3d657854427343f4c083240f7aacaa2d0f62910160405180910390a4612787828888888888612f49565b50505050505050565b6001600160a01b0383163314806127ac57506127ac83336105aa565b6127c85760405162461bcd60e51b81526004016106c090613ce9565b611332838383613013565b600e60205260009081526040902080546001820154600283015460038401546004850154600586015460068701546007880154600889015460098a0154600a8b01805460ff909b169b999a989997989697959694959394929391926128379061400d565b80601f01602080910402602001604051908101604052809291908181526020018280546128639061400d565b80156128b05780601f10612885576101008083540402835291602001916128b0565b820191906000526020600020905b81548152906001019060200180831161289357829003601f168201915b50505050509080600b0180546128c59061400d565b80601f01602080910402602001604051908101604052809291908181526020018280546128f19061400d565b801561293e5780601f106129135761010080835404028352916020019161293e565b820191906000526020600020905b81548152906001019060200180831161292157829003601f168201915b505050505090508c565b60006129548284613f90565b9392505050565b60006129548284613f6e565b6001600160a01b0384166129c75760405162461bcd60e51b815260206004820152602160248201527f455243313135353a206d696e7420746f20746865207a65726f206164647265736044820152607360f81b60648201526084016106c0565b336129d88160008761269088612efe565b6000848152602081815260408083206001600160a01b038916845290915281208054859290612a08908490613f56565b909155505060408051858152602081018590526001600160a01b0380881692600092918516917fc3d58168c5ae7397731d063d5bbf3d657854427343f4c083240f7aacaa2d0f62910160405180910390a461269981600087878787612f49565b60006129548284613faf565b6001600160a01b0384163b156113045760405163bc197c8160e01b81526001600160a01b0385169063bc197c8190612ab89089908990889088908890600401613ae9565b602060405180830381600087803b158015612ad257600080fd5b505af1925050508015612b02575060408051601f3d908101601f19168201909252612aff918101906138e8565b60015b612baf57612b0e6140d2565b806308c379a01415612b485750612b236140ee565b80612b2e5750612b4a565b8060405162461bcd60e51b81526004016106c09190613c4a565b505b60405162461bcd60e51b815260206004820152603460248201527f455243313135353a207472616e7366657220746f206e6f6e20455243313135356044820152732932b1b2b4bb32b91034b6b83632b6b2b73a32b960611b60648201526084016106c0565b6001600160e01b0319811663bc197c8160e01b146127875760405162461bcd60e51b81526004016106c090613c5d565b612be98282611b15565b61145357612c01816001600160a01b0316601461311d565b612c0c83602061311d565b604051602001612c1d929190613a74565b60408051601f198184030181529082905262461bcd60e51b82526106c091600401613c4a565b612c4d8282611b15565b6114535760008281526003602090815260408083206001600160a01b03851684529091529020805460ff19166001179055612c853390565b6001600160a01b0316816001600160a01b0316837f2f8788117e7eff1d82e926ec794901d17c78024a50270940304540a733656f0d60405160405180910390a45050565b612cd38282611b15565b156114535760008281526003602090815260408083206001600160a01b0385168085529252808320805460ff1916905551339285917ff6391f5c32d9c69d2a47ea670b442974b53935d1edc7fd64eb21e047a839171b9190a45050565b6114538282604051602401612d46929190613ec8565b60408051601f198184030181529190526020810180516001600160e01b031663643fd0df60e01b1790526132b9565b6001600160a01b038316612d9b5760405162461bcd60e51b81526004016106c090613dc4565b8051825114612dbc5760405162461bcd60e51b81526004016106c090613e80565b604080516020810190915260009081905233905b8351811015612e9f576000848281518110612ded57612ded6140a6565b602002602001015190506000848381518110612e0b57612e0b6140a6565b602090810291909101810151600084815280835260408082206001600160a01b038c168352909352919091205490915081811015612e5b5760405162461bcd60e51b81526004016106c090613ca5565b612e658282613faf565b6000938452602084815260408086206001600160a01b038c1687529091529093209290925550819050612e9781614075565b915050612dd0565b5060006001600160a01b0316846001600160a01b0316826001600160a01b03167f4a39dc06d4c0dbc64b70af90fd698a233a518aa5d07e595d983b8c0526c8f7fb8686604051612ef0929190613b9f565b60405180910390a450505050565b60408051600180825281830190925260609160009190602080830190803683370190505090508281600081518110612f3857612f386140a6565b602090810291909101015292915050565b6001600160a01b0384163b156113045760405163f23a6e6160e01b81526001600160a01b0385169063f23a6e6190612f8d9089908990889088908890600401613b47565b602060405180830381600087803b158015612fa757600080fd5b505af1925050508015612fd7575060408051601f3d908101601f19168201909252612fd4918101906138e8565b60015b612fe357612b0e6140d2565b6001600160e01b0319811663f23a6e6160e01b146127875760405162461bcd60e51b81526004016106c090613c5d565b6001600160a01b0383166130395760405162461bcd60e51b81526004016106c090613dc4565b336130698185600061304a87612efe565b61305387612efe565b5050604080516020810190915260009052505050565b6000838152602081815260408083206001600160a01b0388168452909152902054828110156130aa5760405162461bcd60e51b81526004016106c090613ca5565b6130b48382613faf565b6000858152602081815260408083206001600160a01b038a811680865291845282852095909555815189815292830188905292938616917fc3d58168c5ae7397731d063d5bbf3d657854427343f4c083240f7aacaa2d0f62910160405180910390a45050505050565b6060600061312c836002613f90565b613137906002613f56565b67ffffffffffffffff81111561314f5761314f6140bc565b6040519080825280601f01601f191660200182016040528015613179576020820181803683370190505b509050600360fc1b81600081518110613194576131946140a6565b60200101906001600160f81b031916908160001a905350600f60fb1b816001815181106131c3576131c36140a6565b60200101906001600160f81b031916908160001a90535060006131e7846002613f90565b6131f2906001613f56565b90505b600181111561326a576f181899199a1a9b1b9c1cb0b131b232b360811b85600f1660108110613226576132266140a6565b1a60f81b82828151811061323c5761323c6140a6565b60200101906001600160f81b031916908160001a90535060049490941c9361326381613ff6565b90506131f5565b5083156129545760405162461bcd60e51b815260206004820181905260248201527f537472696e67733a20686578206c656e67746820696e73756666696369656e7460448201526064016106c0565b80516a636f6e736f6c652e6c6f67602083016000808483855afa5050505050565b50805460008255906000526020600020908101906132f891906133d4565b50565b8280546133079061400d565b90600052602060002090601f016020900481019282613329576000855561336f565b82601f1061334257805160ff191683800117855561336f565b8280016001018555821561336f579182015b8281111561336f578251825591602001919060010190613354565b5061337b9291506133d4565b5090565b82805482825590600052602060002090810192821561336f579160200282015b8281111561336f57825182546001600160a01b0319166001600160a01b0390911617825560209092019160019091019061339f565b5b8082111561337b57600081556001016133d5565b80356001600160a01b038116811461340057600080fd5b919050565b600082601f83011261341657600080fd5b8135602061342382613f32565b6040516134308282614048565b8381528281019150858301600585901b8701840188101561345057600080fd5b60005b8581101561347657613464826133e9565b84529284019290840190600101613453565b5090979650505050505050565b600082601f83011261349457600080fd5b813560206134a182613f32565b6040516134ae8282614048565b8381528281019150858301600585901b870184018810156134ce57600080fd5b60005b85811015613476578135845292840192908401906001016134d1565b803561340081614178565b600082601f83011261350957600080fd5b813567ffffffffffffffff811115613523576135236140bc565b60405161353a601f8301601f191660200182614048565b81815284602083860101111561354f57600080fd5b816020850160208301376000918101602001919091529392505050565b60006020828403121561357e57600080fd5b612954826133e9565b6000806040838503121561359a57600080fd5b6135a3836133e9565b91506135b1602084016133e9565b90509250929050565b600080600080600060a086880312156135d257600080fd5b6135db866133e9565b94506135e9602087016133e9565b9350604086013567ffffffffffffffff8082111561360657600080fd5b61361289838a01613483565b9450606088013591508082111561362857600080fd5b61363489838a01613483565b9350608088013591508082111561364a57600080fd5b50613657888289016134f8565b9150509295509295909350565b600080600080600060a0868803121561367c57600080fd5b613685866133e9565b9450613693602087016133e9565b93506040860135925060608601359150608086013567ffffffffffffffff8111156136bd57600080fd5b613657888289016134f8565b6000806000606084860312156136de57600080fd5b6136e7846133e9565b9250602084013567ffffffffffffffff8082111561370457600080fd5b61371087838801613483565b9350604086013591508082111561372657600080fd5b5061373386828701613483565b9150509250925092565b6000806040838503121561375057600080fd5b613759836133e9565b9150602083013561376981614178565b809150509250929050565b6000806040838503121561378757600080fd5b613790836133e9565b946020939093013593505050565b6000806000606084860312156137b357600080fd5b6137bc846133e9565b95602085013595506040909401359392505050565b6000602082840312156137e357600080fd5b813567ffffffffffffffff8111156137fa57600080fd5b61380684828501613405565b949350505050565b6000806040838503121561382157600080fd5b823567ffffffffffffffff8082111561383957600080fd5b61384586838701613405565b9350602085013591508082111561385b57600080fd5b5061386885828601613483565b9150509250929050565b60006020828403121561388457600080fd5b815161295481614178565b6000602082840312156138a157600080fd5b5035919050565b600080604083850312156138bb57600080fd5b823591506135b1602084016133e9565b6000602082840312156138dd57600080fd5b813561295481614186565b6000602082840312156138fa57600080fd5b815161295481614186565b6000806000806000806000806000806101408b8d03121561392557600080fd5b8a35995060208b013567ffffffffffffffff8082111561394457600080fd5b6139508e838f016134f8565b9a5061395e60408e016134ed565b995060608d0135985060808d0135975060a08d0135965060c08d0135955060e08d013594506101008d013593506101208d01359150808211156139a057600080fd5b506139ad8d828e016134f8565b9150509295989b9194979a5092959850565b600080604083850312156139d257600080fd5b50508035926020909101359150565b6000806000606084860312156139f657600080fd5b505081359360208301359350604090920135919050565b600081518084526020808501945080840160005b83811015613a3d57815187529582019590820190600101613a21565b509495945050505050565b60008151808452613a60816020860160208601613fc6565b601f01601f19169290920160200192915050565b7f416363657373436f6e74726f6c3a206163636f756e7420000000000000000000815260008351613aac816017850160208801613fc6565b7001034b99036b4b9b9b4b733903937b6329607d1b6017918401918201528351613add816028840160208801613fc6565b01602801949350505050565b6001600160a01b0386811682528516602082015260a060408201819052600090613b1590830186613a0d565b8281036060840152613b278186613a0d565b90508281036080840152613b3b8185613a48565b98975050505050505050565b6001600160a01b03868116825285166020820152604081018490526060810183905260a060808201819052600090613b8190830184613a48565b979650505050505050565b6020815260006129546020830184613a0d565b604081526000613bb26040830185613a0d565b8281036020840152613bc48185613a0d565b95945050505050565b60006101808e151583528d60208401528c60408401528b60608401528a60808401528960a08401528860c08401528760e0840152866101008401528561012084015280610140840152613c2281840186613a48565b9050828103610160840152613c378185613a48565b9f9e505050505050505050505050505050565b6020815260006129546020830184613a48565b60208082526028908201527f455243313135353a204552433131353552656365697665722072656a656374656040820152676420746f6b656e7360c01b606082015260800190565b60208082526024908201527f455243313135353a206275726e20616d6f756e7420657863656564732062616c604082015263616e636560e01b606082015260800190565b60208082526029908201527f455243313135353a2063616c6c6572206973206e6f74206f776e6572206e6f7260408201526808185c1c1c9bdd995960ba1b606082015260800190565b6020808252602d908201527f5468657265206973206e6f7420656e6f75676820616d6f756e7420696e20746860408201526c34b99031b7b63632b1ba34b7b760991b606082015260800190565b60208082526025908201527f455243313135353a207472616e7366657220746f20746865207a65726f206164604082015264647265737360d81b606082015260800190565b60208082526023908201527f455243313135353a206275726e2066726f6d20746865207a65726f206164647260408201526265737360e81b606082015260800190565b6020808252602a908201527f455243313135353a20696e73756666696369656e742062616c616e636520666f60408201526939103a3930b739b332b960b11b606082015260800190565b6020808252601590820152744f6e6c79206f776e65722063616e2061636365737360581b604082015260600190565b60208082526028908201527f455243313135353a2069647320616e6420616d6f756e7473206c656e677468206040820152670dad2e6dac2e8c6d60c31b606082015260800190565b8281526040602082015260006138066040830184613a48565b87815286602082015285604082015284606082015283608082015260e060a08201526000613f1260e0830185613a48565b82810360c0840152613f248185613a48565b9a9950505050505050505050565b600067ffffffffffffffff821115613f4c57613f4c6140bc565b5060051b60200190565b60008219821115613f6957613f69614090565b500190565b600082613f8b57634e487b7160e01b600052601260045260246000fd5b500490565b6000816000190483118215151615613faa57613faa614090565b500290565b600082821015613fc157613fc1614090565b500390565b60005b83811015613fe1578181015183820152602001613fc9565b83811115613ff0576000848401525b50505050565b60008161400557614005614090565b506000190190565b600181811c9082168061402157607f821691505b6020821081141561404257634e487b7160e01b600052602260045260246000fd5b50919050565b601f8201601f1916810167ffffffffffffffff8111828210171561406e5761406e6140bc565b6040525050565b600060001982141561408957614089614090565b5060010190565b634e487b7160e01b600052601160045260246000fd5b634e487b7160e01b600052603260045260246000fd5b634e487b7160e01b600052604160045260246000fd5b600060033d11156140eb5760046000803e5060005160e01c5b90565b600060443d10156140fc5790565b6040516003193d81016004833e81513d67ffffffffffffffff816024840111818411171561412c57505050505090565b82850191508151818111156141445750505050505090565b843d870101602082850101111561415e5750505050505090565b61416d60208286010187614048565b509095945050505050565b80151581146132f857600080fd5b6001600160e01b0319811681146132f857600080fdfea264697066735822122093c21caa69612b7e479a07753786cde155aa21d494906c2dbbb4866cb89a546c64736f6c63430008070033",
  "devdoc": {
    "kind": "dev",
    "methods": {
      "balanceOf(address,uint256)": {
        "details": "See {IERC1155-balanceOf}. Requirements: - `account` cannot be the zero address."
      },
      "balanceOfBatch(address[],uint256[])": {
        "details": "See {IERC1155-balanceOfBatch}. Requirements: - `accounts` and `ids` must have the same length."
      },
      "burnIt(uint256,uint256)": {
        "details": "user burns his NFTs"
      },
      "createCollection(uint256,string,bool,uint256,uint256,uint256,uint256,uint256,uint256,string)": {
        "details": "admin create collections without upload ipfs"
      },
      "getRoleAdmin(bytes32)": {
        "details": "Returns the admin role that controls `role`. See {grantRole} and {revokeRole}. To change a role's admin, use {_setRoleAdmin}."
      },
      "grantRole(bytes32,address)": {
        "details": "Grants `role` to `account`. If `account` had not been already granted `role`, emits a {RoleGranted} event. Requirements: - the caller must have ``role``'s admin role."
      },
      "hasRole(bytes32,address)": {
        "details": "Returns `true` if `account` has been granted `role`."
      },
      "isApprovedForAll(address,address)": {
        "details": "See {IERC1155-isApprovedForAll}."
      },
      "renounceRole(bytes32,address)": {
        "details": "Revokes `role` from the calling account. Roles are often managed via {grantRole} and {revokeRole}: this function's purpose is to provide a mechanism for accounts to lose their privileges if they are compromised (such as when a trusted device is misplaced). If the calling account had been granted `role`, emits a {RoleRevoked} event. Requirements: - the caller must be `account`."
      },
      "revokeRole(bytes32,address)": {
        "details": "Revokes `role` from `account`. If `account` had been granted `role`, emits a {RoleRevoked} event. Requirements: - the caller must have ``role``'s admin role."
      },
      "safeBatchTransferFrom(address,address,uint256[],uint256[],bytes)": {
        "details": "See {IERC1155-safeBatchTransferFrom}."
      },
      "safeTransferFrom(address,address,uint256,uint256,bytes)": {
        "details": "See {IERC1155-safeTransferFrom}."
      },
      "setApprovalForAll(address,bool)": {
        "details": "See {IERC1155-setApprovalForAll}."
      },
      "supportsInterface(bytes4)": {
        "details": "See {IERC165-supportsInterface}."
      },
      "uri(uint256)": {
        "details": "See {IERC1155MetadataURI-uri}. This implementation returns the same URI for *all* token types. It relies on the token type ID substitution mechanism https://eips.ethereum.org/EIPS/eip-1155#metadata[defined in the EIP]. Clients calling this function must replace the `\\{id\\}` substring with the actual token type ID."
      }
    },
    "version": 1
  },
  "userdoc": {
    "kind": "user",
    "methods": {
      "addExternalBuy(address,uint256,uint256)": {
        "notice": "add a buy from other payment "
      },
      "addWhitelist(address[])": {
        "notice": "ONLY OWNER FUNCTIONS"
      },
      "changeUSDTaddress(address)": {
        "notice": "Change usdt address"
      },
      "howManyNFTs(uint256,address)": {
        "notice": "PUBLIC FUNCTIONS"
      },
      "rewardsPaid(address)": {
        "notice": "VIEW FUNCTIONS"
      }
    },
    "version": 1
  },
  "storageLayout": {
    "storage": [
      {
        "astId": 411,
        "contract": "contracts/Criptonix.sol:Criptonix",
        "label": "_balances",
        "offset": 0,
        "slot": "0",
        "type": "t_mapping(t_uint256,t_mapping(t_address,t_uint256))"
      },
      {
        "astId": 417,
        "contract": "contracts/Criptonix.sol:Criptonix",
        "label": "_operatorApprovals",
        "offset": 0,
        "slot": "1",
        "type": "t_mapping(t_address,t_mapping(t_address,t_bool))"
      },
      {
        "astId": 419,
        "contract": "contracts/Criptonix.sol:Criptonix",
        "label": "_uri",
        "offset": 0,
        "slot": "2",
        "type": "t_string_storage"
      },
      {
        "astId": 62,
        "contract": "contracts/Criptonix.sol:Criptonix",
        "label": "_roles",
        "offset": 0,
        "slot": "3",
        "type": "t_mapping(t_bytes32,t_struct(RoleData)57_storage)"
      },
      {
        "astId": 356,
        "contract": "contracts/Criptonix.sol:Criptonix",
        "label": "_status",
        "offset": 0,
        "slot": "4",
        "type": "t_uint256"
      },
      {
        "astId": 3134,
        "contract": "contracts/Criptonix.sol:Criptonix",
        "label": "_baseUri",
        "offset": 0,
        "slot": "5",
        "type": "t_string_storage"
      },
      {
        "astId": 3136,
        "contract": "contracts/Criptonix.sol:Criptonix",
        "label": "_contractUri",
        "offset": 0,
        "slot": "6",
        "type": "t_string_storage"
      },
      {
        "astId": 3139,
        "contract": "contracts/Criptonix.sol:Criptonix",
        "label": "idCollection",
        "offset": 0,
        "slot": "7",
        "type": "t_uint256"
      },
      {
        "astId": 3142,
        "contract": "contracts/Criptonix.sol:Criptonix",
        "label": "nftId",
        "offset": 0,
        "slot": "8",
        "type": "t_uint256"
      },
      {
        "astId": 3144,
        "contract": "contracts/Criptonix.sol:Criptonix",
        "label": "USDTAddress",
        "offset": 0,
        "slot": "9",
        "type": "t_address"
      },
      {
        "astId": 3146,
        "contract": "contracts/Criptonix.sol:Criptonix",
        "label": "recipient",
        "offset": 0,
        "slot": "10",
        "type": "t_address"
      },
      {
        "astId": 3149,
        "contract": "contracts/Criptonix.sol:Criptonix",
        "label": "whitelistArr",
        "offset": 0,
        "slot": "11",
        "type": "t_array(t_address)dyn_storage"
      },
      {
        "astId": 3188,
        "contract": "contracts/Criptonix.sol:Criptonix",
        "label": "ipfsHashes",
        "offset": 0,
        "slot": "12",
        "type": "t_mapping(t_uint256,t_string_storage)"
      },
      {
        "astId": 3193,
        "contract": "contracts/Criptonix.sol:Criptonix",
        "label": "tokenDatas",
        "offset": 0,
        "slot": "13",
        "type": "t_mapping(t_uint256,t_struct(tokenData)3156_storage)"
      },
      {
        "astId": 3198,
        "contract": "contracts/Criptonix.sol:Criptonix",
        "label": "collections",
        "offset": 0,
        "slot": "14",
        "type": "t_mapping(t_uint256,t_struct(Collection)3181_storage)"
      },
      {
        "astId": 3203,
        "contract": "contracts/Criptonix.sol:Criptonix",
        "label": "idsForUser",
        "offset": 0,
        "slot": "15",
        "type": "t_mapping(t_address,t_array(t_uint256)dyn_storage)"
      },
      {
        "astId": 3207,
        "contract": "contracts/Criptonix.sol:Criptonix",
        "label": "whitelisted",
        "offset": 0,
        "slot": "16",
        "type": "t_mapping(t_address,t_bool)"
      },
      {
        "astId": 3212,
        "contract": "contracts/Criptonix.sol:Criptonix",
        "label": "rewardsAlreadyPaid",
        "offset": 0,
        "slot": "17",
        "type": "t_mapping(t_address,t_array(t_uint256)dyn_storage)"
      },
      {
        "astId": 3217,
        "contract": "contracts/Criptonix.sol:Criptonix",
        "label": "nftsOfCollection",
        "offset": 0,
        "slot": "18",
        "type": "t_mapping(t_uint256,t_array(t_uint256)dyn_storage)"
      }
    ],
    "types": {
      "t_address": {
        "encoding": "inplace",
        "label": "address",
        "numberOfBytes": "20"
      },
      "t_array(t_address)dyn_storage": {
        "base": "t_address",
        "encoding": "dynamic_array",
        "label": "address[]",
        "numberOfBytes": "32"
      },
      "t_array(t_uint256)dyn_storage": {
        "base": "t_uint256",
        "encoding": "dynamic_array",
        "label": "uint256[]",
        "numberOfBytes": "32"
      },
      "t_bool": {
        "encoding": "inplace",
        "label": "bool",
        "numberOfBytes": "1"
      },
      "t_bytes32": {
        "encoding": "inplace",
        "label": "bytes32",
        "numberOfBytes": "32"
      },
      "t_mapping(t_address,t_array(t_uint256)dyn_storage)": {
        "encoding": "mapping",
        "key": "t_address",
        "label": "mapping(address => uint256[])",
        "numberOfBytes": "32",
        "value": "t_array(t_uint256)dyn_storage"
      },
      "t_mapping(t_address,t_bool)": {
        "encoding": "mapping",
        "key": "t_address",
        "label": "mapping(address => bool)",
        "numberOfBytes": "32",
        "value": "t_bool"
      },
      "t_mapping(t_address,t_mapping(t_address,t_bool))": {
        "encoding": "mapping",
        "key": "t_address",
        "label": "mapping(address => mapping(address => bool))",
        "numberOfBytes": "32",
        "value": "t_mapping(t_address,t_bool)"
      },
      "t_mapping(t_address,t_uint256)": {
        "encoding": "mapping",
        "key": "t_address",
        "label": "mapping(address => uint256)",
        "numberOfBytes": "32",
        "value": "t_uint256"
      },
      "t_mapping(t_bytes32,t_struct(RoleData)57_storage)": {
        "encoding": "mapping",
        "key": "t_bytes32",
        "label": "mapping(bytes32 => struct AccessControl.RoleData)",
        "numberOfBytes": "32",
        "value": "t_struct(RoleData)57_storage"
      },
      "t_mapping(t_uint256,t_array(t_uint256)dyn_storage)": {
        "encoding": "mapping",
        "key": "t_uint256",
        "label": "mapping(uint256 => uint256[])",
        "numberOfBytes": "32",
        "value": "t_array(t_uint256)dyn_storage"
      },
      "t_mapping(t_uint256,t_mapping(t_address,t_uint256))": {
        "encoding": "mapping",
        "key": "t_uint256",
        "label": "mapping(uint256 => mapping(address => uint256))",
        "numberOfBytes": "32",
        "value": "t_mapping(t_address,t_uint256)"
      },
      "t_mapping(t_uint256,t_string_storage)": {
        "encoding": "mapping",
        "key": "t_uint256",
        "label": "mapping(uint256 => string)",
        "numberOfBytes": "32",
        "value": "t_string_storage"
      },
      "t_mapping(t_uint256,t_struct(Collection)3181_storage)": {
        "encoding": "mapping",
        "key": "t_uint256",
        "label": "mapping(uint256 => struct Criptonix.Collection)",
        "numberOfBytes": "32",
        "value": "t_struct(Collection)3181_storage"
      },
      "t_mapping(t_uint256,t_struct(tokenData)3156_storage)": {
        "encoding": "mapping",
        "key": "t_uint256",
        "label": "mapping(uint256 => struct Criptonix.tokenData)",
        "numberOfBytes": "32",
        "value": "t_struct(tokenData)3156_storage"
      },
      "t_string_storage": {
        "encoding": "bytes",
        "label": "string",
        "numberOfBytes": "32"
      },
      "t_struct(Collection)3181_storage": {
        "encoding": "inplace",
        "label": "struct Criptonix.Collection",
        "members": [
          {
            "astId": 3158,
            "contract": "contracts/Criptonix.sol:Criptonix",
            "label": "isPublic",
            "offset": 0,
            "slot": "0",
            "type": "t_bool"
          },
          {
            "astId": 3160,
            "contract": "contracts/Criptonix.sol:Criptonix",
            "label": "madurationStartedAt",
            "offset": 0,
            "slot": "1",
            "type": "t_uint256"
          },
          {
            "astId": 3162,
            "contract": "contracts/Criptonix.sol:Criptonix",
            "label": "remainAmountToSell",
            "offset": 0,
            "slot": "2",
            "type": "t_uint256"
          },
          {
            "astId": 3164,
            "contract": "contracts/Criptonix.sol:Criptonix",
            "label": "TH",
            "offset": 0,
            "slot": "3",
            "type": "t_uint256"
          },
          {
            "astId": 3166,
            "contract": "contracts/Criptonix.sol:Criptonix",
            "label": "price",
            "offset": 0,
            "slot": "4",
            "type": "t_uint256"
          },
          {
            "astId": 3168,
            "contract": "contracts/Criptonix.sol:Criptonix",
            "label": "madurityTime",
            "offset": 0,
            "slot": "5",
            "type": "t_uint256"
          },
          {
            "astId": 3170,
            "contract": "contracts/Criptonix.sol:Criptonix",
            "label": "tokenLife",
            "offset": 0,
            "slot": "6",
            "type": "t_uint256"
          },
          {
            "astId": 3172,
            "contract": "contracts/Criptonix.sol:Criptonix",
            "label": "amount",
            "offset": 0,
            "slot": "7",
            "type": "t_uint256"
          },
          {
            "astId": 3174,
            "contract": "contracts/Criptonix.sol:Criptonix",
            "label": "amountToStartMaduration",
            "offset": 0,
            "slot": "8",
            "type": "t_uint256"
          },
          {
            "astId": 3176,
            "contract": "contracts/Criptonix.sol:Criptonix",
            "label": "energyCost",
            "offset": 0,
            "slot": "9",
            "type": "t_uint256"
          },
          {
            "astId": 3178,
            "contract": "contracts/Criptonix.sol:Criptonix",
            "label": "description",
            "offset": 0,
            "slot": "10",
            "type": "t_string_storage"
          },
          {
            "astId": 3180,
            "contract": "contracts/Criptonix.sol:Criptonix",
            "label": "ipfsHash",
            "offset": 0,
            "slot": "11",
            "type": "t_string_storage"
          }
        ],
        "numberOfBytes": "384"
      },
      "t_struct(RoleData)57_storage": {
        "encoding": "inplace",
        "label": "struct AccessControl.RoleData",
        "members": [
          {
            "astId": 54,
            "contract": "contracts/Criptonix.sol:Criptonix",
            "label": "members",
            "offset": 0,
            "slot": "0",
            "type": "t_mapping(t_address,t_bool)"
          },
          {
            "astId": 56,
            "contract": "contracts/Criptonix.sol:Criptonix",
            "label": "adminRole",
            "offset": 0,
            "slot": "1",
            "type": "t_bytes32"
          }
        ],
        "numberOfBytes": "64"
      },
      "t_struct(tokenData)3156_storage": {
        "encoding": "inplace",
        "label": "struct Criptonix.tokenData",
        "members": [
          {
            "astId": 3151,
            "contract": "contracts/Criptonix.sol:Criptonix",
            "label": "creator",
            "offset": 0,
            "slot": "0",
            "type": "t_address"
          },
          {
            "astId": 3153,
            "contract": "contracts/Criptonix.sol:Criptonix",
            "label": "idCollection",
            "offset": 0,
            "slot": "1",
            "type": "t_uint256"
          },
          {
            "astId": 3155,
            "contract": "contracts/Criptonix.sol:Criptonix",
            "label": "born",
            "offset": 0,
            "slot": "2",
            "type": "t_uint256"
          }
        ],
        "numberOfBytes": "96"
      },
      "t_uint256": {
        "encoding": "inplace",
        "label": "uint256",
        "numberOfBytes": "32"
      }
    }
  }
}