{
  "address": "0x38727962c097D626527c71fe50959175f09EfA43",
  "abi": [
    {
      "anonymous": false,
      "inputs": [
        {
          "indexed": true,
          "internalType": "address",
          "name": "account",
          "type": "address"
        },
        {
          "indexed": true,
          "internalType": "address",
          "name": "operator",
          "type": "address"
        },
        {
          "indexed": false,
          "internalType": "bool",
          "name": "approved",
          "type": "bool"
        }
      ],
      "name": "ApprovalForAll",
      "type": "event"
    },
    {
      "anonymous": false,
      "inputs": [
        {
          "indexed": false,
          "internalType": "address",
          "name": "creator",
          "type": "address"
        },
        {
          "indexed": false,
          "internalType": "uint256",
          "name": "amount",
          "type": "uint256"
        },
        {
          "indexed": false,
          "internalType": "uint256",
          "name": "id",
          "type": "uint256"
        }
      ],
      "name": "BurnNFT",
      "type": "event"
    },
    {
      "anonymous": false,
      "inputs": [
        {
          "indexed": false,
          "internalType": "uint256",
          "name": "price",
          "type": "uint256"
        },
        {
          "indexed": false,
          "internalType": "uint256",
          "name": "madurityTime",
          "type": "uint256"
        },
        {
          "indexed": false,
          "internalType": "uint256",
          "name": "tokenLife",
          "type": "uint256"
        },
        {
          "indexed": false,
          "internalType": "uint256",
          "name": "amount",
          "type": "uint256"
        },
        {
          "indexed": false,
          "internalType": "uint256",
          "name": "energyCost",
          "type": "uint256"
        },
        {
          "indexed": false,
          "internalType": "string",
          "name": "description",
          "type": "string"
        },
        {
          "indexed": false,
          "internalType": "string",
          "name": "ipfsHash",
          "type": "string"
        }
      ],
      "name": "CollectionCreated",
      "type": "event"
    },
    {
      "anonymous": false,
      "inputs": [
        {
          "indexed": false,
          "internalType": "address",
          "name": "creator",
          "type": "address"
        },
        {
          "indexed": false,
          "internalType": "uint256",
          "name": "amount",
          "type": "uint256"
        },
        {
          "indexed": false,
          "internalType": "uint256",
          "name": "id",
          "type": "uint256"
        }
      ],
      "name": "NewNFT",
      "type": "event"
    },
    {
      "anonymous": false,
      "inputs": [
        {
          "indexed": false,
          "internalType": "uint256",
          "name": "amount",
          "type": "uint256"
        },
        {
          "indexed": false,
          "internalType": "uint256",
          "name": "born",
          "type": "uint256"
        }
      ],
      "name": "Purchased",
      "type": "event"
    },
    {
      "anonymous": false,
      "inputs": [
        {
          "indexed": true,
          "internalType": "bytes32",
          "name": "role",
          "type": "bytes32"
        },
        {
          "indexed": true,
          "internalType": "bytes32",
          "name": "previousAdminRole",
          "type": "bytes32"
        },
        {
          "indexed": true,
          "internalType": "bytes32",
          "name": "newAdminRole",
          "type": "bytes32"
        }
      ],
      "name": "RoleAdminChanged",
      "type": "event"
    },
    {
      "anonymous": false,
      "inputs": [
        {
          "indexed": true,
          "internalType": "bytes32",
          "name": "role",
          "type": "bytes32"
        },
        {
          "indexed": true,
          "internalType": "address",
          "name": "account",
          "type": "address"
        },
        {
          "indexed": true,
          "internalType": "address",
          "name": "sender",
          "type": "address"
        }
      ],
      "name": "RoleGranted",
      "type": "event"
    },
    {
      "anonymous": false,
      "inputs": [
        {
          "indexed": true,
          "internalType": "bytes32",
          "name": "role",
          "type": "bytes32"
        },
        {
          "indexed": true,
          "internalType": "address",
          "name": "account",
          "type": "address"
        },
        {
          "indexed": true,
          "internalType": "address",
          "name": "sender",
          "type": "address"
        }
      ],
      "name": "RoleRevoked",
      "type": "event"
    },
    {
      "anonymous": false,
      "inputs": [
        {
          "indexed": true,
          "internalType": "address",
          "name": "operator",
          "type": "address"
        },
        {
          "indexed": true,
          "internalType": "address",
          "name": "from",
          "type": "address"
        },
        {
          "indexed": true,
          "internalType": "address",
          "name": "to",
          "type": "address"
        },
        {
          "indexed": false,
          "internalType": "uint256[]",
          "name": "ids",
          "type": "uint256[]"
        },
        {
          "indexed": false,
          "internalType": "uint256[]",
          "name": "values",
          "type": "uint256[]"
        }
      ],
      "name": "TransferBatch",
      "type": "event"
    },
    {
      "anonymous": false,
      "inputs": [
        {
          "indexed": true,
          "internalType": "address",
          "name": "operator",
          "type": "address"
        },
        {
          "indexed": true,
          "internalType": "address",
          "name": "from",
          "type": "address"
        },
        {
          "indexed": true,
          "internalType": "address",
          "name": "to",
          "type": "address"
        },
        {
          "indexed": false,
          "internalType": "uint256",
          "name": "id",
          "type": "uint256"
        },
        {
          "indexed": false,
          "internalType": "uint256",
          "name": "value",
          "type": "uint256"
        }
      ],
      "name": "TransferSingle",
      "type": "event"
    },
    {
      "anonymous": false,
      "inputs": [
        {
          "indexed": false,
          "internalType": "string",
          "name": "value",
          "type": "string"
        },
        {
          "indexed": true,
          "internalType": "uint256",
          "name": "id",
          "type": "uint256"
        }
      ],
      "name": "URI",
      "type": "event"
    },
    {
      "anonymous": false,
      "inputs": [
        {
          "indexed": false,
          "internalType": "uint256",
          "name": "nft_id",
          "type": "uint256"
        },
        {
          "indexed": false,
          "internalType": "address",
          "name": "user",
          "type": "address"
        },
        {
          "indexed": false,
          "internalType": "uint256",
          "name": "amountOfDays",
          "type": "uint256"
        }
      ],
      "name": "desactivePaid",
      "type": "event"
    },
    {
      "anonymous": false,
      "inputs": [
        {
          "indexed": false,
          "internalType": "uint256",
          "name": "rewardId",
          "type": "uint256"
        },
        {
          "indexed": false,
          "internalType": "address",
          "name": "user",
          "type": "address"
        }
      ],
      "name": "rewardPaid",
      "type": "event"
    },
    {
      "inputs": [],
      "name": "DEFAULT_ADMIN_ROLE",
      "outputs": [
        {
          "internalType": "bytes32",
          "name": "",
          "type": "bytes32"
        }
      ],
      "stateMutability": "view",
      "type": "function"
    },
    {
      "inputs": [],
      "name": "USDTAddress",
      "outputs": [
        {
          "internalType": "address",
          "name": "",
          "type": "address"
        }
      ],
      "stateMutability": "view",
      "type": "function"
    },
    {
      "inputs": [
        {
          "internalType": "address",
          "name": "_userAddress",
          "type": "address"
        },
        {
          "internalType": "uint256",
          "name": "_amount",
          "type": "uint256"
        },
        {
          "internalType": "uint256",
          "name": "_collectionID",
          "type": "uint256"
        }
      ],
      "name": "addExternalBuy",
      "outputs": [],
      "stateMutability": "nonpayable",
      "type": "function"
    },
    {
      "inputs": [
        {
          "internalType": "address[]",
          "name": "_accounts",
          "type": "address[]"
        }
      ],
      "name": "addWhitelist",
      "outputs": [],
      "stateMutability": "nonpayable",
      "type": "function"
    },
    {
      "inputs": [
        {
          "internalType": "address",
          "name": "account",
          "type": "address"
        },
        {
          "internalType": "uint256",
          "name": "id",
          "type": "uint256"
        }
      ],
      "name": "balanceOf",
      "outputs": [
        {
          "internalType": "uint256",
          "name": "",
          "type": "uint256"
        }
      ],
      "stateMutability": "view",
      "type": "function"
    },
    {
      "inputs": [
        {
          "internalType": "address[]",
          "name": "accounts",
          "type": "address[]"
        },
        {
          "internalType": "uint256[]",
          "name": "ids",
          "type": "uint256[]"
        }
      ],
      "name": "balanceOfBatch",
      "outputs": [
        {
          "internalType": "uint256[]",
          "name": "",
          "type": "uint256[]"
        }
      ],
      "stateMutability": "view",
      "type": "function"
    },
    {
      "inputs": [
        {
          "internalType": "address",
          "name": "account",
          "type": "address"
        },
        {
          "internalType": "uint256",
          "name": "id",
          "type": "uint256"
        },
        {
          "internalType": "uint256",
          "name": "value",
          "type": "uint256"
        }
      ],
      "name": "burn",
      "outputs": [],
      "stateMutability": "nonpayable",
      "type": "function"
    },
    {
      "inputs": [
        {
          "internalType": "address",
          "name": "account",
          "type": "address"
        },
        {
          "internalType": "uint256[]",
          "name": "ids",
          "type": "uint256[]"
        },
        {
          "internalType": "uint256[]",
          "name": "values",
          "type": "uint256[]"
        }
      ],
      "name": "burnBatch",
      "outputs": [],
      "stateMutability": "nonpayable",
      "type": "function"
    },
    {
      "inputs": [
        {
          "internalType": "uint256",
          "name": "tokenId",
          "type": "uint256"
        },
        {
          "internalType": "uint256",
          "name": "amount",
          "type": "uint256"
        }
      ],
      "name": "burnIt",
      "outputs": [],
      "stateMutability": "nonpayable",
      "type": "function"
    },
    {
      "inputs": [
        {
          "internalType": "uint256",
          "name": "_amount",
          "type": "uint256"
        },
        {
          "internalType": "uint256",
          "name": "_collectionID",
          "type": "uint256"
        }
      ],
      "name": "buyToken",
      "outputs": [],
      "stateMutability": "nonpayable",
      "type": "function"
    },
    {
      "inputs": [
        {
          "internalType": "address",
          "name": "_newAddress",
          "type": "address"
        }
      ],
      "name": "changeUSDTaddress",
      "outputs": [],
      "stateMutability": "nonpayable",
      "type": "function"
    },
    {
      "inputs": [
        {
          "internalType": "uint256",
          "name": "",
          "type": "uint256"
        }
      ],
      "name": "collections",
      "outputs": [
        {
          "internalType": "bool",
          "name": "isPublic",
          "type": "bool"
        },
        {
          "internalType": "uint256",
          "name": "desactiveCost",
          "type": "uint256"
        },
        {
          "internalType": "uint256",
          "name": "madurationStartedAt",
          "type": "uint256"
        },
        {
          "internalType": "uint256",
          "name": "remainAmountToSell",
          "type": "uint256"
        },
        {
          "internalType": "uint256",
          "name": "TH",
          "type": "uint256"
        },
        {
          "internalType": "uint256",
          "name": "price",
          "type": "uint256"
        },
        {
          "internalType": "uint256",
          "name": "madurityTime",
          "type": "uint256"
        },
        {
          "internalType": "uint256",
          "name": "tokenLife",
          "type": "uint256"
        },
        {
          "internalType": "uint256",
          "name": "amount",
          "type": "uint256"
        },
        {
          "internalType": "uint256",
          "name": "amountToStartMaduration",
          "type": "uint256"
        },
        {
          "internalType": "uint256",
          "name": "energyCost",
          "type": "uint256"
        },
        {
          "internalType": "string",
          "name": "description",
          "type": "string"
        },
        {
          "internalType": "string",
          "name": "ipfsHash",
          "type": "string"
        }
      ],
      "stateMutability": "view",
      "type": "function"
    },
    {
      "inputs": [],
      "name": "contractURI",
      "outputs": [
        {
          "internalType": "string",
          "name": "",
          "type": "string"
        }
      ],
      "stateMutability": "view",
      "type": "function"
    },
    {
      "inputs": [
        {
          "internalType": "uint256",
          "name": "_price",
          "type": "uint256"
        },
        {
          "internalType": "string",
          "name": "_description",
          "type": "string"
        },
        {
          "internalType": "bool",
          "name": "_privacy",
          "type": "bool"
        },
        {
          "internalType": "uint256",
          "name": "_TH",
          "type": "uint256"
        },
        {
          "internalType": "uint256",
          "name": "_madurityTime",
          "type": "uint256"
        },
        {
          "internalType": "uint256",
          "name": "_energyCost",
          "type": "uint256"
        },
        {
          "internalType": "uint256",
          "name": "_desactiveCost",
          "type": "uint256"
        },
        {
          "internalType": "uint256",
          "name": "_tokenLife",
          "type": "uint256"
        },
        {
          "internalType": "uint256",
          "name": "_amount",
          "type": "uint256"
        },
        {
          "internalType": "uint256",
          "name": "_amountToStartMaduration",
          "type": "uint256"
        },
        {
          "internalType": "string",
          "name": "_ipfsHash",
          "type": "string"
        }
      ],
      "name": "createCollection",
      "outputs": [],
      "stateMutability": "nonpayable",
      "type": "function"
    },
    {
      "inputs": [
        {
          "internalType": "address",
          "name": "_user",
          "type": "address"
        },
        {
          "internalType": "uint256",
          "name": "_nftId",
          "type": "uint256"
        }
      ],
      "name": "desactive_ActivateNFT",
      "outputs": [],
      "stateMutability": "nonpayable",
      "type": "function"
    },
    {
      "inputs": [
        {
          "internalType": "address",
          "name": "_user",
          "type": "address"
        },
        {
          "internalType": "uint256",
          "name": "nft_id",
          "type": "uint256"
        }
      ],
      "name": "getDaysInactivosPaid",
      "outputs": [
        {
          "components": [
            {
              "internalType": "uint256",
              "name": "amountOfDays",
              "type": "uint256"
            },
            {
              "internalType": "uint256",
              "name": "amountOfUSDT",
              "type": "uint256"
            },
            {
              "internalType": "uint256",
              "name": "date",
              "type": "uint256"
            }
          ],
          "internalType": "struct Criptonix.pagoNFTinactivo[]",
          "name": "",
          "type": "tuple[]"
        }
      ],
      "stateMutability": "view",
      "type": "function"
    },
    {
      "inputs": [
        {
          "internalType": "address",
          "name": "_user",
          "type": "address"
        },
        {
          "internalType": "uint256",
          "name": "_rewardID",
          "type": "uint256"
        }
      ],
      "name": "getDaysPerReward",
      "outputs": [
        {
          "internalType": "uint256",
          "name": "",
          "type": "uint256"
        }
      ],
      "stateMutability": "view",
      "type": "function"
    },
    {
      "inputs": [
        {
          "internalType": "uint256",
          "name": "collectionID",
          "type": "uint256"
        }
      ],
      "name": "getIpfsHash",
      "outputs": [
        {
          "internalType": "string",
          "name": "",
          "type": "string"
        }
      ],
      "stateMutability": "view",
      "type": "function"
    },
    {
      "inputs": [
        {
          "internalType": "uint256",
          "name": "_id",
          "type": "uint256"
        }
      ],
      "name": "getNFTByColleccion",
      "outputs": [
        {
          "internalType": "uint256[]",
          "name": "",
          "type": "uint256[]"
        }
      ],
      "stateMutability": "view",
      "type": "function"
    },
    {
      "inputs": [
        {
          "internalType": "bytes32",
          "name": "role",
          "type": "bytes32"
        }
      ],
      "name": "getRoleAdmin",
      "outputs": [
        {
          "internalType": "bytes32",
          "name": "",
          "type": "bytes32"
        }
      ],
      "stateMutability": "view",
      "type": "function"
    },
    {
      "inputs": [
        {
          "internalType": "uint256",
          "name": "tokenId",
          "type": "uint256"
        }
      ],
      "name": "getTokenData",
      "outputs": [
        {
          "components": [
            {
              "internalType": "address",
              "name": "creator",
              "type": "address"
            },
            {
              "internalType": "uint256",
              "name": "idCollection",
              "type": "uint256"
            },
            {
              "internalType": "uint256",
              "name": "born",
              "type": "uint256"
            },
            {
              "internalType": "bool",
              "name": "active",
              "type": "bool"
            }
          ],
          "internalType": "struct Criptonix.tokenData",
          "name": "",
          "type": "tuple"
        }
      ],
      "stateMutability": "view",
      "type": "function"
    },
    {
      "inputs": [
        {
          "internalType": "address",
          "name": "_account",
          "type": "address"
        }
      ],
      "name": "getUserNftsId",
      "outputs": [
        {
          "internalType": "uint256[]",
          "name": "",
          "type": "uint256[]"
        }
      ],
      "stateMutability": "view",
      "type": "function"
    },
    {
      "inputs": [
        {
          "internalType": "bytes32",
          "name": "role",
          "type": "bytes32"
        },
        {
          "internalType": "address",
          "name": "account",
          "type": "address"
        }
      ],
      "name": "grantRole",
      "outputs": [],
      "stateMutability": "nonpayable",
      "type": "function"
    },
    {
      "inputs": [
        {
          "internalType": "bytes32",
          "name": "role",
          "type": "bytes32"
        },
        {
          "internalType": "address",
          "name": "account",
          "type": "address"
        }
      ],
      "name": "hasRole",
      "outputs": [
        {
          "internalType": "bool",
          "name": "",
          "type": "bool"
        }
      ],
      "stateMutability": "view",
      "type": "function"
    },
    {
      "inputs": [
        {
          "internalType": "uint256",
          "name": "collectionID",
          "type": "uint256"
        },
        {
          "internalType": "address",
          "name": "_userAddress",
          "type": "address"
        }
      ],
      "name": "howManyNFTs",
      "outputs": [
        {
          "internalType": "uint256",
          "name": "",
          "type": "uint256"
        }
      ],
      "stateMutability": "view",
      "type": "function"
    },
    {
      "inputs": [],
      "name": "idCollection",
      "outputs": [
        {
          "internalType": "uint256",
          "name": "",
          "type": "uint256"
        }
      ],
      "stateMutability": "view",
      "type": "function"
    },
    {
      "inputs": [
        {
          "internalType": "string",
          "name": "contractUri",
          "type": "string"
        },
        {
          "internalType": "address",
          "name": "_USDTAddress",
          "type": "address"
        },
        {
          "internalType": "address",
          "name": "_recipient",
          "type": "address"
        }
      ],
      "name": "initialize",
      "outputs": [],
      "stateMutability": "nonpayable",
      "type": "function"
    },
    {
      "inputs": [
        {
          "internalType": "uint256",
          "name": "",
          "type": "uint256"
        }
      ],
      "name": "ipfsHashes",
      "outputs": [
        {
          "internalType": "string",
          "name": "",
          "type": "string"
        }
      ],
      "stateMutability": "view",
      "type": "function"
    },
    {
      "inputs": [
        {
          "internalType": "address",
          "name": "account",
          "type": "address"
        },
        {
          "internalType": "address",
          "name": "operator",
          "type": "address"
        }
      ],
      "name": "isApprovedForAll",
      "outputs": [
        {
          "internalType": "bool",
          "name": "",
          "type": "bool"
        }
      ],
      "stateMutability": "view",
      "type": "function"
    },
    {
      "inputs": [
        {
          "internalType": "uint256",
          "name": "",
          "type": "uint256"
        },
        {
          "internalType": "uint256",
          "name": "",
          "type": "uint256"
        }
      ],
      "name": "nftsOfCollection",
      "outputs": [
        {
          "internalType": "uint256",
          "name": "",
          "type": "uint256"
        }
      ],
      "stateMutability": "view",
      "type": "function"
    },
    {
      "inputs": [
        {
          "internalType": "uint256",
          "name": "rewardID",
          "type": "uint256"
        },
        {
          "internalType": "uint256",
          "name": "collectionID",
          "type": "uint256"
        },
        {
          "internalType": "uint256",
          "name": "amountOfDays",
          "type": "uint256"
        }
      ],
      "name": "payEnergyCost",
      "outputs": [],
      "stateMutability": "nonpayable",
      "type": "function"
    },
    {
      "inputs": [
        {
          "internalType": "uint256",
          "name": "amountOfDays",
          "type": "uint256"
        },
        {
          "internalType": "uint256",
          "name": "nft_id",
          "type": "uint256"
        }
      ],
      "name": "payInactiveCost",
      "outputs": [],
      "stateMutability": "nonpayable",
      "type": "function"
    },
    {
      "inputs": [],
      "name": "removeWhitelistedAddress",
      "outputs": [],
      "stateMutability": "nonpayable",
      "type": "function"
    },
    {
      "inputs": [
        {
          "internalType": "bytes32",
          "name": "role",
          "type": "bytes32"
        },
        {
          "internalType": "address",
          "name": "account",
          "type": "address"
        }
      ],
      "name": "renounceRole",
      "outputs": [],
      "stateMutability": "nonpayable",
      "type": "function"
    },
    {
      "inputs": [
        {
          "internalType": "bytes32",
          "name": "role",
          "type": "bytes32"
        },
        {
          "internalType": "address",
          "name": "account",
          "type": "address"
        }
      ],
      "name": "revokeRole",
      "outputs": [],
      "stateMutability": "nonpayable",
      "type": "function"
    },
    {
      "inputs": [
        {
          "internalType": "address",
          "name": "_user",
          "type": "address"
        }
      ],
      "name": "rewardsPaid",
      "outputs": [
        {
          "internalType": "uint256[]",
          "name": "",
          "type": "uint256[]"
        }
      ],
      "stateMutability": "view",
      "type": "function"
    },
    {
      "inputs": [
        {
          "internalType": "address",
          "name": "from",
          "type": "address"
        },
        {
          "internalType": "address",
          "name": "to",
          "type": "address"
        },
        {
          "internalType": "uint256[]",
          "name": "ids",
          "type": "uint256[]"
        },
        {
          "internalType": "uint256[]",
          "name": "amounts",
          "type": "uint256[]"
        },
        {
          "internalType": "bytes",
          "name": "data",
          "type": "bytes"
        }
      ],
      "name": "safeBatchTransferFrom",
      "outputs": [],
      "stateMutability": "nonpayable",
      "type": "function"
    },
    {
      "inputs": [
        {
          "internalType": "address",
          "name": "from",
          "type": "address"
        },
        {
          "internalType": "address",
          "name": "to",
          "type": "address"
        },
        {
          "internalType": "uint256",
          "name": "id",
          "type": "uint256"
        },
        {
          "internalType": "uint256",
          "name": "amount",
          "type": "uint256"
        },
        {
          "internalType": "bytes",
          "name": "data",
          "type": "bytes"
        }
      ],
      "name": "safeTransferFrom",
      "outputs": [],
      "stateMutability": "nonpayable",
      "type": "function"
    },
    {
      "inputs": [
        {
          "internalType": "address",
          "name": "operator",
          "type": "address"
        },
        {
          "internalType": "bool",
          "name": "approved",
          "type": "bool"
        }
      ],
      "name": "setApprovalForAll",
      "outputs": [],
      "stateMutability": "nonpayable",
      "type": "function"
    },
    {
      "inputs": [
        {
          "internalType": "bytes4",
          "name": "interfaceId",
          "type": "bytes4"
        }
      ],
      "name": "supportsInterface",
      "outputs": [
        {
          "internalType": "bool",
          "name": "",
          "type": "bool"
        }
      ],
      "stateMutability": "view",
      "type": "function"
    },
    {
      "inputs": [
        {
          "internalType": "uint256",
          "name": "",
          "type": "uint256"
        }
      ],
      "name": "tokenDatas",
      "outputs": [
        {
          "internalType": "address",
          "name": "creator",
          "type": "address"
        },
        {
          "internalType": "uint256",
          "name": "idCollection",
          "type": "uint256"
        },
        {
          "internalType": "uint256",
          "name": "born",
          "type": "uint256"
        },
        {
          "internalType": "bool",
          "name": "active",
          "type": "bool"
        }
      ],
      "stateMutability": "view",
      "type": "function"
    },
    {
      "inputs": [
        {
          "internalType": "uint256",
          "name": "",
          "type": "uint256"
        }
      ],
      "name": "uri",
      "outputs": [
        {
          "internalType": "string",
          "name": "",
          "type": "string"
        }
      ],
      "stateMutability": "view",
      "type": "function"
    },
    {
      "inputs": [
        {
          "internalType": "uint256",
          "name": "",
          "type": "uint256"
        }
      ],
      "name": "whitelistArr",
      "outputs": [
        {
          "internalType": "address",
          "name": "",
          "type": "address"
        }
      ],
      "stateMutability": "view",
      "type": "function"
    },
    {
      "inputs": [
        {
          "internalType": "address",
          "name": "",
          "type": "address"
        }
      ],
      "name": "whitelisted",
      "outputs": [
        {
          "internalType": "bool",
          "name": "",
          "type": "bool"
        }
      ],
      "stateMutability": "view",
      "type": "function"
    }
  ],
  "transactionHash": "0x3ae5126711642f00a47f30121bf117b7c21cc73a816129bad07e8b33f3767060",
  "args": [],
  "solcInputHash": "46f38c35c6acab33094cbe3a06e4d743",
  "bytecode": "0x6080604052600161012f5560016101305534801561001c57600080fd5b50614b7e8061002c6000396000f3fe608060405234801561001057600080fd5b50600436106102735760003560e01c80637ee47f8711610151578063d547741f116100c3578063edac985b11610087578063edac985b14610717578063f242432a1461072a578063f5298aca1461073d578063fdbda0ec14610750578063ff920c741461077c578063ffa9aede1461079057600080fd5b8063d547741f14610689578063d936547e1461069c578063e7020307146106c0578063e8a3d485146106d3578063e985e9c5146106db57600080fd5b8063a4de2f5c11610115578063a4de2f5c14610554578063a552724814610567578063b09afec11461057a578063b6b75c3814610638578063be38341d1461064b578063d450fbc91461067657600080fd5b80637ee47f87146105005780638257ea891461051357806391d1485414610526578063a217fddf14610539578063a22cb4651461054157600080fd5b80632eb2c2d6116101ea5780633736e8d9116101ae5780633736e8d914610432578063463fd1af146104455780634e1273f4146104585780636b20c4541461046b5780636fc37a751461047e578063700a4a74146104ed57600080fd5b80632eb2c2d6146103de5780632f2ff15d146103f157806334279b681461040457806336568abe1461040c57806336d00a231461041f57600080fd5b80630e89341c1161023c5780630e89341c1461031a5780630fc56db91461033a57806316561587146103755780631e6541281461038857806321b02c151461039b578063248a9ca3146103bb57600080fd5b8062fdd58e1461027857806301ffc9a71461029e578063057466ea146102d25780630c5e2e12146102e75780630dd57270146102fa575b600080fd5b61028b61028636600461400f565b61079a565b6040519081526020015b60405180910390f35b6102c26102ac366004614164565b6001600160e01b0319166301ffc9a760e01b1490565b6040519015158152602001610295565b6102e56102e03660046142c3565b610833565b005b61028b6102f5366004614141565b610df8565b61030d610308366004613e0a565b6110f8565b6040516102959190614518565b61032d610328366004614128565b611165565b60405161029591906145df565b61028b61034836600461400f565b6001600160a01b039190911660009081526101396020908152604080832093835260029093019052205490565b6102e56103833660046142c3565b6111ef565b6102e56103963660046141fb565b611675565b6103ae6103a936600461400f565b6118a2565b60405161029591906144bf565b61028b6103c9366004614128565b600090815260c9602052604090206001015490565b6102e56103ec366004613e58565b611942565b6102e56103ff366004614141565b6119d9565b6102e5611a04565b6102e561041a366004614141565b611aaa565b6102e561042d3660046142e5565b611b28565b6102e5610440366004613e0a565b611f9a565b6102e561045336600461419e565b611fe4565b61030d6104663660046140a8565b61213e565b6102e5610479366004613f65565b61225a565b6104c161048c366004614128565b6101356020526000908152604090208054600182015460028301546003909301546001600160a01b0390921692909160ff1684565b604080516001600160a01b03909516855260208501939093529183015215156060820152608001610295565b61030d6104fb366004613e0a565b61229d565b6102e561050e36600461400f565b61230b565b61028b6105213660046142c3565b61242e565b6102c2610534366004614141565b612460565b61028b600081565b6102e561054f366004613fd8565b61248b565b61032d610562366004614128565b612562565b61030d610575366004614128565b6125fd565b6105fa610588366004614128565b604080516080808201835260008083526020808401829052838501829052606093840182905294815261013585528390208351918201845280546001600160a01b0316825260018101549482019490945260028401549281019290925260039092015460ff1615159181019190915290565b604051610295919081516001600160a01b03168152602080830151908201526040808301519082015260609182015115159181019190915260800190565b6102e56106463660046142c3565b61265e565b61065e610659366004614128565b6126d5565b6040516001600160a01b039091168152602001610295565b61032d610684366004614128565b612700565b6102e5610697366004614141565b612721565b6102c26106aa366004613e0a565b6101376020526000908152604090205460ff1681565b6102e56106ce366004614039565b612747565b61032d612c43565b6102c26106e9366004613e25565b6001600160a01b03918216600090815260666020908152604080832093909416825291909152205460ff1690565b6102e561072536600461406c565b612cd6565b6102e5610738366004613f01565b612d7b565b6102e561074b366004614039565b612dc0565b61076361075e366004614128565b612e03565b6040516102959d9c9b9a99989796959493929190614559565b6101315461065e906001600160a01b031681565b61028b61012f5481565b60006001600160a01b03831661080b5760405162461bcd60e51b815260206004820152602b60248201527f455243313135353a2062616c616e636520717565727920666f7220746865207a60448201526a65726f206164647265737360a81b60648201526084015b60405180910390fd5b5060009081526065602090815260408083206001600160a01b03949094168352929052205490565b600260fb5414156108865760405162461bcd60e51b815260206004820152601f60248201527f5265656e7472616e637947756172643a207265656e7472616e742063616c6c006044820152606401610802565b600260fb5560008181526101366020526040902054819060ff1661090457336000908152610137602052604090205460ff166109045760405162461bcd60e51b815260206004820152601a60248201527f5468697320636f6c6c656374696f6e20697320707269766174650000000000006044820152606401610802565b60008281526101366020908152604080832081516101a081018352815460ff16151581526001820154938101939093526002810154918301919091526003810154606083015260048101546080830152600581015460a0830152600681015460c0830152600781015460e083015260088101546101008301526009810154610120830152600a810154610140830152600b81018054610160840191906109a9906149bb565b80601f01602080910402602001604051908101604052809291908181526020018280546109d5906149bb565b8015610a225780601f106109f757610100808354040283529160200191610a22565b820191906000526020600020905b815481529060010190602001808311610a0557829003601f168201915b50505050508152602001600c82018054610a3b906149bb565b80601f0160208091040260200160405190810160405280929190818152602001828054610a67906149bb565b8015610ab45780601f10610a8957610100808354040283529160200191610ab4565b820191906000526020600020905b815481529060010190602001808311610a9757829003601f168201915b50505050508152505090508381606001511015610ae35760405162461bcd60e51b8152600401610802906146fe565b600083118015610af6575061012f548311155b610b425760405162461bcd60e51b815260206004820152601c60248201527f54686973206964206973206e6f7420696e20636f6c6c656374696f6e000000006044820152606401610802565b610131546101325460a08301516001600160a01b03928316926323b872dd923392911690610b8a906c0c9f2c9cd04674edea4000000090610b84908b90612f87565b90612f9a565b6040516001600160e01b031960e086901b1681526001600160a01b0393841660048201529290911660248301526044820152606401602060405180830381600087803b158015610bd957600080fd5b505af1158015610bed573d6000803e3d6000fd5b505050506040513d601f19601f82011682018060405250810190610c11919061410b565b610c2d5760405162461bcd60e51b81526004016108029061463a565b60005b610c4285670de0b6b3a7640000612f9a565b811015610d4d57610c733361013054600160405180604001604052806002815260200161060f60f31b815250612fa6565b6040805160808101825233808252602080830188815242848601908152600160608601818152610130805460009081526101358752898120985189546001600160a01b0319166001600160a01b0390911617895594518884015592516002880155516003909601805460ff191696151596909617909555928152610139825284812083548154808701835591835283832090910155888152610138825293842082548154948501825590855290842090920191909155805491610d3583614a22565b91905055508080610d4590614a22565b915050610c30565b5060008381526101366020526040902060030154610d6b90856130b2565b600084815261013660205260409020600381018290556101208301516008909101549091610d9991906130b2565b10610db557600083815261013660205260409020426002909101555b604080518581524260208201527fb5178cc061af0b3448e47e868e15690d28deeae596550c7ba8ebe9eb105c97d3910160405180910390a15050600160fb555050565b60008080610e05846110f8565b905060005b81518110156110ee5760008681526101366020908152604080832081516101a081018352815460ff16151581526001820154938101939093526002810154918301919091526003810154606083015260048101546080830152600581015460a0830152600681015460c0830152600781015460e083015260088101546101008301526009810154610120830152600a810154610140830152600b8101805461016084019190610eb8906149bb565b80601f0160208091040260200160405190810160405280929190818152602001828054610ee4906149bb565b8015610f315780601f10610f0657610100808354040283529160200191610f31565b820191906000526020600020905b815481529060010190602001808311610f1457829003601f168201915b50505050508152602001600c82018054610f4a906149bb565b80601f0160208091040260200160405190810160405280929190818152602001828054610f76906149bb565b8015610fc35780601f10610f9857610100808354040283529160200191610fc3565b820191906000526020600020905b815481529060010190602001808311610fa657829003601f168201915b5050505050815250509050866101356000858581518110610fe657610fe6614a53565b602002602001015181526020019081526020016000206001015414801561105a57508060e001518160c00151610135600086868151811061102957611029614a53565b602002602001015181526020019081526020016000206002015461104d9190614908565b6110579190614908565b42105b8015611088575060006110868785858151811061107957611079614a53565b602002602001015161079a565b115b80156110c8575061013560008484815181106110a6576110a6614a53565b60209081029190910181015182528101919091526040016000206003015460ff165b156110db57836110d781614a22565b9450505b50806110e681614a22565b915050610e0a565b5090949350505050565b6001600160a01b0381166000908152610139602090815260409182902080548351818402810184019094528084526060939283018282801561115957602002820191906000526020600020905b815481526020019060010190808311611145575b50505050509050919050565b606060678054611174906149bb565b80601f01602080910402602001604051908101604052809291908181526020018280546111a0906149bb565b80156111595780601f106111c257610100808354040283529160200191611159565b820191906000526020600020905b8154815290600101906020018083116111d05750939695505050505050565b60b48210156112335760405162461bcd60e51b815260206004820152601060248201526f4174206c65617374206f6e652064617960801b6044820152606401610802565b6000818152610135602052604090206003015460ff161561128b5760405162461bcd60e51b815260206004820152601260248201527154686973204e46542069732061637469766560701b6044820152606401610802565b600081815261013560205260409020546001600160a01b031633146112e95760405162461bcd60e51b8152602060048201526014602482015273151a1a5cc81a5cc81b9bdd081e5bdd5c8813919560621b6044820152606401610802565b6000818152610135602090815260408083206001908101548452610136835281842082516101a081018452815460ff161515815291810154938201939093526002830154918101919091526003820154606082015260048201546080820152600582015460a0820152600682015460c0820152600782015460e082015260088201546101008201526009820154610120820152600a820154610140820152600b82018054919291610160840191906113a0906149bb565b80601f01602080910402602001604051908101604052809291908181526020018280546113cc906149bb565b80156114195780601f106113ee57610100808354040283529160200191611419565b820191906000526020600020905b8154815290600101906020018083116113fc57829003601f168201915b50505050508152602001600c82018054611432906149bb565b80601f016020809104026020016040519081016040528092919081815260200182805461145e906149bb565b80156114ab5780601f10611480576101008083540402835291602001916114ab565b820191906000526020600020905b81548152906001019060200180831161148e57829003601f168201915b505050919092525050610131546101325460208401519394506001600160a01b03918216936323b872dd93503392909116906114fb906c0c9f2c9cd04674edea4000000090610b84908a90612f87565b6040516001600160e01b031960e086901b1681526001600160a01b0393841660048201529290911660248301526044820152606401602060405180830381600087803b15801561154a57600080fd5b505af115801561155e573d6000803e3d6000fd5b505050506040513d601f19601f82011682018060405250810190611582919061410b565b61159e5760405162461bcd60e51b81526004016108029061463a565b33600090815261013960209081526040808320858452600301825291829020825160608101909352858352838201519092918201906115f1906c0c9f2c9cd04674edea4000000090610b84908990612f87565b815242602091820152825460018082018555600094855293829020835160039092020190815582820151938101939093556040918201516002909301929092558051848152339281019290925281018490527fa7f24acb556e97154270a8f1d5e4db6ed90ca58251b73096911c320f5410ee639060600160405180910390a1505050565b611680600033612460565b61169c5760405162461bcd60e51b81526004016108029061481d565b8183116117065760405162461bcd60e51b815260206004820152603260248201527f4d616475726174696f6e20616d6f756e742073686f756c64206265206c657373604482015271081d1a185b881d1bdd185b08185b5bdd5b9d60721b6064820152608401610802565b604051806101a001604052808a15158152602001868152602001600081526020018481526020018981526020018c81526020018881526020018581526020018481526020018381526020018781526020018b815260200182815250610136600061012f54815260200190815260200160002060008201518160000160006101000a81548160ff0219169083151502179055506020820151816001015560408201518160020155606082015181600301556080820151816004015560a0820151816005015560c0820151816006015560e082015181600701556101008201518160080155610120820151816009015561014082015181600a015561016082015181600b01908051906020019061181c929190613b79565b50610180820151805161183991600c840191602090910190613b79565b505061012f80549150600061184d83614a22565b91905055507f5f8d39c5b2157ce3be3fba6bc83dced30befa23d4fc4a67702ab0017d48f47d58b8886868a8f8760405161188d9796959493929190614894565b60405180910390a15050505050505050505050565b6001600160a01b0382166000908152610139602090815260408083208484526003018252808320805482518185028101850190935280835260609492939192909184015b8282101561193657838290600052602060002090600302016040518060600160405290816000820154815260200160018201548152602001600282015481525050815260200190600101906118e6565b50505050905092915050565b6001600160a01b03851633148061195e575061195e85336106e9565b6119c55760405162461bcd60e51b815260206004820152603260248201527f455243313135353a207472616e736665722063616c6c6572206973206e6f74206044820152711bdddb995c881b9bdc88185c1c1c9bdd995960721b6064820152608401610802565b6119d285858585856130be565b5050505050565b600082815260c960205260409020600101546119f5813361325d565b6119ff83836132c1565b505050565b611a0f600033612460565b611a2b5760405162461bcd60e51b81526004016108029061481d565b60005b61013354811015611a9a57600161013760006101338481548110611a5457611a54614a53565b6000918252602080832091909101546001600160a01b031683528201929092526040019020805460ff191691151591909117905580611a9281614a22565b915050611a2e565b50611aa86101336000613bfd565b565b6001600160a01b0381163314611b1a5760405162461bcd60e51b815260206004820152602f60248201527f416363657373436f6e74726f6c3a2063616e206f6e6c792072656e6f756e636560448201526e103937b632b9903337b91039b2b63360891b6064820152608401610802565b611b248282613347565b5050565b60008281526101366020908152604080832081516101a081018352815460ff16151581526001820154938101939093526002810154918301919091526003810154606083015260048101546080830152600581015460a0830152600681015460c0830152600781015460e083015260088101546101008301526009810154610120830152600a810154610140830152600b8101805461016084019190611bcd906149bb565b80601f0160208091040260200160405190810160405280929190818152602001828054611bf9906149bb565b8015611c465780601f10611c1b57610100808354040283529160200191611c46565b820191906000526020600020905b815481529060010190602001808311611c2957829003601f168201915b50505050508152602001600c82018054611c5f906149bb565b80601f0160208091040260200160405190810160405280929190818152602001828054611c8b906149bb565b8015611cd85780601f10611cad57610100808354040283529160200191611cd8565b820191906000526020600020905b815481529060010190602001808311611cbb57829003601f168201915b505050505081525050905060b4821015611d275760405162461bcd60e51b815260206004820152601060248201526f4174206c65617374206f6e652064617960801b6044820152606401610802565b6000816040015111611d7b5760405162461bcd60e51b815260206004820152601a60248201527f4d616475726174696f6e206e6f742073746172746564207965740000000000006044820152606401610802565b8060c001518160400151611d8f9190614908565b4211611dd55760405162461bcd60e51b815260206004820152601560248201527409ac2c8eae4c2e8d2dedc40dcdee840ccd2dcd2e6d605b1b6044820152606401610802565b6000611de18433610df8565b905060008111611e335760405162461bcd60e51b815260206004820152601a60248201527f4e6f204e46545320696e207468697320636f6c6c656374696f6e0000000000006044820152606401610802565b61013154610132546101408401516001600160a01b03928316926323b872dd923392911690611e82908690611e7c906c0c9f2c9cd04674edea4000000090610b84908c90612f87565b90612f87565b6040516001600160e01b031960e086901b1681526001600160a01b0393841660048201529290911660248301526044820152606401602060405180830381600087803b158015611ed157600080fd5b505af1158015611ee5573d6000803e3d6000fd5b505050506040513d601f19601f82011682018060405250810190611f09919061410b565b611f255760405162461bcd60e51b81526004016108029061463a565b336000818152610139602090815260408083206001808201805491820181558552838520018a90558984526002018252918290208690558151888152908101929092527f83345060e3eb4917210def935c880d7bfa8ed73b136153d3ac60f0be5a183dfa910160405180910390a15050505050565b611fa5600033612460565b611fc15760405162461bcd60e51b81526004016108029061481d565b61013180546001600160a01b0319166001600160a01b0392909216919091179055565b600054610100900460ff1680611ffd575060005460ff16155b6120605760405162461bcd60e51b815260206004820152602e60248201527f496e697469616c697a61626c653a20636f6e747261637420697320616c72656160448201526d191e481a5b9a5d1a585b1a5e995960921b6064820152608401610802565b600054610100900460ff16158015612082576000805461ffff19166101011790555b61208d6000336133ae565b60408051808201909152600780825266697066733a2f2f60c81b60209092019182526120bc9161012d91613b79565b50836040516020016120ce9190614378565b60405160208183030381529060405261012e90805190602001906120f3929190613b79565b5061013180546001600160a01b038086166001600160a01b0319928316179092556101328054928516929091169190911790558015612138576000805461ff00191690555b50505050565b606081518351146121a35760405162461bcd60e51b815260206004820152602960248201527f455243313135353a206163636f756e747320616e6420696473206c656e677468604482015268040dad2e6dac2e8c6d60bb1b6064820152608401610802565b600083516001600160401b038111156121be576121be614a69565b6040519080825280602002602001820160405280156121e7578160200160208202803683370190505b50905060005b84518110156122525761222585828151811061220b5761220b614a53565b602002602001015185838151811061107957611079614a53565b82828151811061223757612237614a53565b602090810291909101015261224b81614a22565b90506121ed565b509392505050565b6001600160a01b038316331480612276575061227683336106e9565b6122925760405162461bcd60e51b8152600401610802906146b5565b6119ff8383836133b8565b6001600160a01b0381166000908152610139602090815260409182902060010180548351818402810184019094528084526060939283018282801561115957602002820191906000526020600020908154815260200190600101908083116111455750505050509050919050565b600081815261013560205260409020546001600160a01b038381169116146123755760405162461bcd60e51b815260206004820152601d60248201527f54686973204e667420646f6573206d61746368207769746820757365720000006044820152606401610802565b6001600160a01b0382163314806123925750612392600033612460565b6123d75760405162461bcd60e51b815260206004820152601660248201527510d85b9b9bdd0819195cd858dd1a5d985d19481b999d60521b6044820152606401610802565b6000818152610135602052604090206003015460ff1661241157600090815261013560205260409020600301805460ff1916600117905550565b600090815261013560205260409020600301805460ff1916905550565b610138602052816000526040600020818154811061244b57600080fd5b90600052602060002001600091509150505481565b600091825260c9602090815260408084206001600160a01b0393909316845291905290205460ff1690565b336001600160a01b03831614156124f65760405162461bcd60e51b815260206004820152602960248201527f455243313135353a2073657474696e6720617070726f76616c20737461747573604482015268103337b91039b2b63360b91b6064820152608401610802565b3360008181526066602090815260408083206001600160a01b03871680855290835292819020805460ff191686151590811790915590519081529192917f17307eab39ab6107e8899845ad3d59bd9653f200f220920489ca2b5937696c31910160405180910390a35050565b610134602052600090815260409020805461257c906149bb565b80601f01602080910402602001604051908101604052809291908181526020018280546125a8906149bb565b80156125f55780601f106125ca576101008083540402835291602001916125f5565b820191906000526020600020905b8154815290600101906020018083116125d857829003601f168201915b505050505081565b6000818152610138602090815260409182902080548351818402810184019094528084526060939283018282801561115957602002820191906000526020600020908154815260200190600101908083116111455750505050509050919050565b612669600033612460565b6126855760405162461bcd60e51b81526004016108029061481d565b612690338383612dc0565b60408051338152602081018390529081018390527fac9904ccb216c7c9a336264f26486b74305b0e54e9234ee5bfafc767044870d19060600160405180910390a15050565b61013381815481106126e657600080fd5b6000918252602090912001546001600160a01b0316905081565b600081815261013660205260409020600c01805460609190611174906149bb565b600082815260c9602052604090206001015461273d813361325d565b6119ff8383613347565b600260fb54141561279a5760405162461bcd60e51b815260206004820152601f60248201527f5265656e7472616e637947756172643a207265656e7472616e742063616c6c006044820152606401610802565b600260fb556127aa600033612460565b6127c65760405162461bcd60e51b81526004016108029061481d565b60008181526101366020526040902054819060ff1661283f57336000908152610137602052604090205460ff1661283f5760405162461bcd60e51b815260206004820152601a60248201527f5468697320636f6c6c656374696f6e20697320707269766174650000000000006044820152606401610802565b60008281526101366020908152604080832081516101a081018352815460ff16151581526001820154938101939093526002810154918301919091526003810154606083015260048101546080830152600581015460a0830152600681015460c0830152600781015460e083015260088101546101008301526009810154610120830152600a810154610140830152600b81018054610160840191906128e4906149bb565b80601f0160208091040260200160405190810160405280929190818152602001828054612910906149bb565b801561295d5780601f106129325761010080835404028352916020019161295d565b820191906000526020600020905b81548152906001019060200180831161294057829003601f168201915b50505050508152602001600c82018054612976906149bb565b80601f01602080910402602001604051908101604052809291908181526020018280546129a2906149bb565b80156129ef5780601f106129c4576101008083540402835291602001916129ef565b820191906000526020600020905b8154815290600101906020018083116129d257829003601f168201915b50505050508152505090508381606001511015612a1e5760405162461bcd60e51b8152600401610802906146fe565b600083118015612a31575061012f548311155b612a7d5760405162461bcd60e51b815260206004820152601c60248201527f54686973206964206973206e6f7420696e20636f6c6c656374696f6e000000006044820152606401610802565b60005b612a9285670de0b6b3a7640000612f9a565b811015612b9757612ab88661013054600160405180602001604052806000815250612fa6565b604080516080810182526001600160a01b038881168083526020808401898152428587019081526001606087018181526101308054600090815261013587528a812099518a546001600160a01b03191699169890981789559351888301559151600288015590516003909601805460ff191696151596909617909555918352610139815284832082548154808701835591855282852090910155888352610138815293822081548154948501825590835293822090920192909255805491612b7f83614a22565b91905055508080612b8f90614a22565b915050612a80565b5060008381526101366020526040902060030154612bb590856130b2565b600084815261013660205260409020600381018290556101208301516008909101549091612be391906130b2565b10612bff57600083815261013660205260409020426002909101555b604080518581524260208201527fb5178cc061af0b3448e47e868e15690d28deeae596550c7ba8ebe9eb105c97d3910160405180910390a15050600160fb55505050565b606061012e8054612c53906149bb565b80601f0160208091040260200160405190810160405280929190818152602001828054612c7f906149bb565b8015612ccc5780601f10612ca157610100808354040283529160200191612ccc565b820191906000526020600020905b815481529060010190602001808311612caf57829003601f168201915b5050505050905090565b612ce1600033612460565b612cfd5760405162461bcd60e51b81526004016108029061481d565b60005b8151811015612d665760016101376000848481518110612d2257612d22614a53565b6020908102919091018101516001600160a01b03168252810191909152604001600020805460ff191691151591909117905580612d5e81614a22565b915050612d00565b508051611b2490610133906020840190613c1e565b6001600160a01b038516331480612d975750612d9785336106e9565b612db35760405162461bcd60e51b8152600401610802906146b5565b6119d28585858585613537565b6001600160a01b038316331480612ddc5750612ddc83336106e9565b612df85760405162461bcd60e51b8152600401610802906146b5565b6119ff838383613658565b6101366020528060005260406000206000915090508060000160009054906101000a900460ff169080600101549080600201549080600301549080600401549080600501549080600601549080600701549080600801549080600901549080600a01549080600b018054612e76906149bb565b80601f0160208091040260200160405190810160405280929190818152602001828054612ea2906149bb565b8015612eef5780601f10612ec457610100808354040283529160200191612eef565b820191906000526020600020905b815481529060010190602001808311612ed257829003601f168201915b50505050509080600c018054612f04906149bb565b80601f0160208091040260200160405190810160405280929190818152602001828054612f30906149bb565b8015612f7d5780601f10612f5257610100808354040283529160200191612f7d565b820191906000526020600020905b815481529060010190602001808311612f6057829003601f168201915b505050505090508d565b6000612f938284614942565b9392505050565b6000612f938284614920565b6001600160a01b0384166130065760405162461bcd60e51b815260206004820152602160248201527f455243313135353a206d696e7420746f20746865207a65726f206164647265736044820152607360f81b6064820152608401610802565b33613020816000876130178861375e565b6119d28861375e565b60008481526065602090815260408083206001600160a01b038916845290915281208054859290613052908490614908565b909155505060408051858152602081018590526001600160a01b0380881692600092918516917fc3d58168c5ae7397731d063d5bbf3d657854427343f4c083240f7aacaa2d0f62910160405180910390a46119d2816000878787876137a9565b6000612f938284614961565b81518351146130df5760405162461bcd60e51b81526004016108029061484c565b6001600160a01b0384166131055760405162461bcd60e51b81526004016108029061474b565b3360005b84518110156131ef57600085828151811061312657613126614a53565b60200260200101519050600085838151811061314457613144614a53565b60209081029190910181015160008481526065835260408082206001600160a01b038e1683529093529190912054909150818110156131955760405162461bcd60e51b8152600401610802906147d3565b60008381526065602090815260408083206001600160a01b038e8116855292528083208585039055908b168252812080548492906131d4908490614908565b92505081905550505050806131e890614a22565b9050613109565b50846001600160a01b0316866001600160a01b0316826001600160a01b03167f4a39dc06d4c0dbc64b70af90fd698a233a518aa5d07e595d983b8c0526c8f7fb878760405161323f92919061452b565b60405180910390a4613255818787878787613914565b505050505050565b6132678282612460565b611b245761327f816001600160a01b031660146139de565b61328a8360206139de565b60405160200161329b9291906143a7565b60408051601f198184030181529082905262461bcd60e51b8252610802916004016145df565b6132cb8282612460565b611b2457600082815260c9602090815260408083206001600160a01b03851684529091529020805460ff191660011790556133033390565b6001600160a01b0316816001600160a01b0316837f2f8788117e7eff1d82e926ec794901d17c78024a50270940304540a733656f0d60405160405180910390a45050565b6133518282612460565b15611b2457600082815260c9602090815260408083206001600160a01b0385168085529252808320805460ff1916905551339285917ff6391f5c32d9c69d2a47ea670b442974b53935d1edc7fd64eb21e047a839171b9190a45050565b611b2482826132c1565b6001600160a01b0383166133de5760405162461bcd60e51b815260040161080290614790565b80518251146133ff5760405162461bcd60e51b81526004016108029061484c565b604080516020810190915260009081905233905b83518110156134d857600084828151811061343057613430614a53565b60200260200101519050600084838151811061344e5761344e614a53565b60209081029190910181015160008481526065835260408082206001600160a01b038c16835290935291909120549091508181101561349f5760405162461bcd60e51b815260040161080290614671565b60009283526065602090815260408085206001600160a01b038b16865290915290922091039055806134d081614a22565b915050613413565b5060006001600160a01b0316846001600160a01b0316826001600160a01b03167f4a39dc06d4c0dbc64b70af90fd698a233a518aa5d07e595d983b8c0526c8f7fb868660405161352992919061452b565b60405180910390a450505050565b6001600160a01b03841661355d5760405162461bcd60e51b81526004016108029061474b565b3361356d8187876130178861375e565b60008481526065602090815260408083206001600160a01b038a168452909152902054838110156135b05760405162461bcd60e51b8152600401610802906147d3565b60008581526065602090815260408083206001600160a01b038b81168552925280832087850390559088168252812080548692906135ef908490614908565b909155505060408051868152602081018690526001600160a01b03808916928a821692918616917fc3d58168c5ae7397731d063d5bbf3d657854427343f4c083240f7aacaa2d0f62910160405180910390a461364f8288888888886137a9565b50505050505050565b6001600160a01b03831661367e5760405162461bcd60e51b815260040161080290614790565b336136ae8185600061368f8761375e565b6136988761375e565b5050604080516020810190915260009052505050565b60008381526065602090815260408083206001600160a01b0388168452909152902054828110156136f15760405162461bcd60e51b815260040161080290614671565b60008481526065602090815260408083206001600160a01b03898116808652918452828520888703905582518981529384018890529092908616917fc3d58168c5ae7397731d063d5bbf3d657854427343f4c083240f7aacaa2d0f62910160405180910390a45050505050565b6040805160018082528183019092526060916000919060208083019080368337019050509050828160008151811061379857613798614a53565b602090810291909101015292915050565b6001600160a01b0384163b156132555760405163f23a6e6160e01b81526001600160a01b0385169063f23a6e61906137ed908990899088908890889060040161447a565b602060405180830381600087803b15801561380757600080fd5b505af1925050508015613837575060408051601f3d908101601f1916820190925261383491810190614181565b60015b6138e457613843614a7f565b806308c379a0141561387d5750613858614a9b565b80613863575061387f565b8060405162461bcd60e51b815260040161080291906145df565b505b60405162461bcd60e51b815260206004820152603460248201527f455243313135353a207472616e7366657220746f206e6f6e20455243313135356044820152732932b1b2b4bb32b91034b6b83632b6b2b73a32b960611b6064820152608401610802565b6001600160e01b0319811663f23a6e6160e01b1461364f5760405162461bcd60e51b8152600401610802906145f2565b6001600160a01b0384163b156132555760405163bc197c8160e01b81526001600160a01b0385169063bc197c8190613958908990899088908890889060040161441c565b602060405180830381600087803b15801561397257600080fd5b505af19250505080156139a2575060408051601f3d908101601f1916820190925261399f91810190614181565b60015b6139ae57613843614a7f565b6001600160e01b0319811663bc197c8160e01b1461364f5760405162461bcd60e51b8152600401610802906145f2565b606060006139ed836002614942565b6139f8906002614908565b6001600160401b03811115613a0f57613a0f614a69565b6040519080825280601f01601f191660200182016040528015613a39576020820181803683370190505b509050600360fc1b81600081518110613a5457613a54614a53565b60200101906001600160f81b031916908160001a905350600f60fb1b81600181518110613a8357613a83614a53565b60200101906001600160f81b031916908160001a9053506000613aa7846002614942565b613ab2906001614908565b90505b6001811115613b2a576f181899199a1a9b1b9c1cb0b131b232b360811b85600f1660108110613ae657613ae6614a53565b1a60f81b828281518110613afc57613afc614a53565b60200101906001600160f81b031916908160001a90535060049490941c93613b23816149a4565b9050613ab5565b508315612f935760405162461bcd60e51b815260206004820181905260248201527f537472696e67733a20686578206c656e67746820696e73756666696369656e746044820152606401610802565b828054613b85906149bb565b90600052602060002090601f016020900481019282613ba75760008555613bed565b82601f10613bc057805160ff1916838001178555613bed565b82800160010185558215613bed579182015b82811115613bed578251825591602001919060010190613bd2565b50613bf9929150613c73565b5090565b5080546000825590600052602060002090810190613c1b9190613c73565b50565b828054828255906000526020600020908101928215613bed579160200282015b82811115613bed57825182546001600160a01b0319166001600160a01b03909116178255602090920191600190910190613c3e565b5b80821115613bf95760008155600101613c74565b80356001600160a01b0381168114613c9f57600080fd5b919050565b600082601f830112613cb557600080fd5b81356020613cc2826148e5565b604051613ccf82826149f6565b8381528281019150858301600585901b87018401881015613cef57600080fd5b60005b85811015613d1557613d0382613c88565b84529284019290840190600101613cf2565b5090979650505050505050565b600082601f830112613d3357600080fd5b81356020613d40826148e5565b604051613d4d82826149f6565b8381528281019150858301600585901b87018401881015613d6d57600080fd5b60005b85811015613d1557813584529284019290840190600101613d70565b8035613c9f81614b24565b600082601f830112613da857600080fd5b81356001600160401b03811115613dc157613dc1614a69565b604051613dd8601f8301601f1916602001826149f6565b818152846020838601011115613ded57600080fd5b816020850160208301376000918101602001919091529392505050565b600060208284031215613e1c57600080fd5b612f9382613c88565b60008060408385031215613e3857600080fd5b613e4183613c88565b9150613e4f60208401613c88565b90509250929050565b600080600080600060a08688031215613e7057600080fd5b613e7986613c88565b9450613e8760208701613c88565b935060408601356001600160401b0380821115613ea357600080fd5b613eaf89838a01613d22565b94506060880135915080821115613ec557600080fd5b613ed189838a01613d22565b93506080880135915080821115613ee757600080fd5b50613ef488828901613d97565b9150509295509295909350565b600080600080600060a08688031215613f1957600080fd5b613f2286613c88565b9450613f3060208701613c88565b9350604086013592506060860135915060808601356001600160401b03811115613f5957600080fd5b613ef488828901613d97565b600080600060608486031215613f7a57600080fd5b613f8384613c88565b925060208401356001600160401b0380821115613f9f57600080fd5b613fab87838801613d22565b93506040860135915080821115613fc157600080fd5b50613fce86828701613d22565b9150509250925092565b60008060408385031215613feb57600080fd5b613ff483613c88565b9150602083013561400481614b24565b809150509250929050565b6000806040838503121561402257600080fd5b61402b83613c88565b946020939093013593505050565b60008060006060848603121561404e57600080fd5b61405784613c88565b95602085013595506040909401359392505050565b60006020828403121561407e57600080fd5b81356001600160401b0381111561409457600080fd5b6140a084828501613ca4565b949350505050565b600080604083850312156140bb57600080fd5b82356001600160401b03808211156140d257600080fd5b6140de86838701613ca4565b935060208501359150808211156140f457600080fd5b5061410185828601613d22565b9150509250929050565b60006020828403121561411d57600080fd5b8151612f9381614b24565b60006020828403121561413a57600080fd5b5035919050565b6000806040838503121561415457600080fd5b82359150613e4f60208401613c88565b60006020828403121561417657600080fd5b8135612f9381614b32565b60006020828403121561419357600080fd5b8151612f9381614b32565b6000806000606084860312156141b357600080fd5b83356001600160401b038111156141c957600080fd5b6141d586828701613d97565b9350506141e460208501613c88565b91506141f260408501613c88565b90509250925092565b60008060008060008060008060008060006101608c8e03121561421d57600080fd5b8b359a506001600160401b038060208e0135111561423a57600080fd5b61424a8e60208f01358f01613d97565b9a5061425860408e01613d8c565b995060608d0135985060808d0135975060a08d0135965060c08d0135955060e08d013594506101008d013593506101208d01359250806101408e0135111561429f57600080fd5b506142b18d6101408e01358e01613d97565b90509295989b509295989b9093969950565b600080604083850312156142d657600080fd5b50508035926020909101359150565b6000806000606084860312156142fa57600080fd5b505081359360208301359350604090920135919050565b600081518084526020808501945080840160005b8381101561434157815187529582019590820190600101614325565b509495945050505050565b60008151808452614364816020860160208601614978565b601f01601f19169290920160200192915050565b66697066733a2f2f60c81b81526000825161439a816007850160208701614978565b9190910160070192915050565b7f416363657373436f6e74726f6c3a206163636f756e74200000000000000000008152600083516143df816017850160208801614978565b7001034b99036b4b9b9b4b733903937b6329607d1b6017918401918201528351614410816028840160208801614978565b01602801949350505050565b6001600160a01b0386811682528516602082015260a06040820181905260009061444890830186614311565b828103606084015261445a8186614311565b9050828103608084015261446e818561434c565b98975050505050505050565b6001600160a01b03868116825285166020820152604081018490526060810183905260a0608082018190526000906144b49083018461434c565b979650505050505050565b602080825282518282018190526000919060409081850190868401855b8281101561450b57815180518552868101518786015285015185850152606090930192908501906001016144dc565b5091979650505050505050565b602081526000612f936020830184614311565b60408152600061453e6040830185614311565b82810360208401526145508185614311565b95945050505050565b60006101a08f151583528e60208401528d60408401528c60608401528b60808401528a60a08401528960c08401528860e0840152876101008401528661012084015285610140840152806101608401526145b58184018661434c565b90508281036101808401526145ca818561434c565b9150509e9d5050505050505050505050505050565b602081526000612f93602083018461434c565b60208082526028908201527f455243313135353a204552433131353552656365697665722072656a656374656040820152676420746f6b656e7360c01b606082015260800190565b60208082526018908201527f5468652075736474207472616e73666572206661696c65640000000000000000604082015260600190565b60208082526024908201527f455243313135353a206275726e20616d6f756e7420657863656564732062616c604082015263616e636560e01b606082015260800190565b60208082526029908201527f455243313135353a2063616c6c6572206973206e6f74206f776e6572206e6f7260408201526808185c1c1c9bdd995960ba1b606082015260800190565b6020808252602d908201527f5468657265206973206e6f7420656e6f75676820616d6f756e7420696e20746860408201526c34b99031b7b63632b1ba34b7b760991b606082015260800190565b60208082526025908201527f455243313135353a207472616e7366657220746f20746865207a65726f206164604082015264647265737360d81b606082015260800190565b60208082526023908201527f455243313135353a206275726e2066726f6d20746865207a65726f206164647260408201526265737360e81b606082015260800190565b6020808252602a908201527f455243313135353a20696e73756666696369656e742062616c616e636520666f60408201526939103a3930b739b332b960b11b606082015260800190565b6020808252601590820152744f6e6c79206f776e65722063616e2061636365737360581b604082015260600190565b60208082526028908201527f455243313135353a2069647320616e6420616d6f756e7473206c656e677468206040820152670dad2e6dac2e8c6d60c31b606082015260800190565b87815286602082015285604082015284606082015283608082015260e060a082015260006148c560e083018561434c565b82810360c08401526148d7818561434c565b9a9950505050505050505050565b60006001600160401b038211156148fe576148fe614a69565b5060051b60200190565b6000821982111561491b5761491b614a3d565b500190565b60008261493d57634e487b7160e01b600052601260045260246000fd5b500490565b600081600019048311821515161561495c5761495c614a3d565b500290565b60008282101561497357614973614a3d565b500390565b60005b8381101561499357818101518382015260200161497b565b838111156121385750506000910152565b6000816149b3576149b3614a3d565b506000190190565b600181811c908216806149cf57607f821691505b602082108114156149f057634e487b7160e01b600052602260045260246000fd5b50919050565b601f8201601f191681016001600160401b0381118282101715614a1b57614a1b614a69565b6040525050565b6000600019821415614a3657614a36614a3d565b5060010190565b634e487b7160e01b600052601160045260246000fd5b634e487b7160e01b600052603260045260246000fd5b634e487b7160e01b600052604160045260246000fd5b600060033d1115614a985760046000803e5060005160e01c5b90565b600060443d1015614aa95790565b6040516003193d81016004833e81513d6001600160401b038160248401118184111715614ad857505050505090565b8285019150815181811115614af05750505050505090565b843d8701016020828501011115614b0a5750505050505090565b614b19602082860101876149f6565b509095945050505050565b8015158114613c1b57600080fd5b6001600160e01b031981168114613c1b57600080fdfea2646970667358221220002808969db692232e77f187d0fd92c0c135b24ccca7b69c72bfe9a8f41ec71964736f6c63430008070033",
  "devdoc": {
    "kind": "dev",
    "methods": {
      "balanceOf(address,uint256)": {
        "details": "See {IERC1155-balanceOf}. Requirements: - `account` cannot be the zero address."
      },
      "balanceOfBatch(address[],uint256[])": {
        "details": "See {IERC1155-balanceOfBatch}. Requirements: - `accounts` and `ids` must have the same length."
      },
      "burnIt(uint256,uint256)": {
        "details": "user burns his NFTs"
      },
      "createCollection(uint256,string,bool,uint256,uint256,uint256,uint256,uint256,uint256,uint256,string)": {
        "details": "admin create collections without upload ipfs"
      },
      "getRoleAdmin(bytes32)": {
        "details": "Returns the admin role that controls `role`. See {grantRole} and {revokeRole}. To change a role's admin, use {_setRoleAdmin}."
      },
      "grantRole(bytes32,address)": {
        "details": "Grants `role` to `account`. If `account` had not been already granted `role`, emits a {RoleGranted} event. Requirements: - the caller must have ``role``'s admin role."
      },
      "hasRole(bytes32,address)": {
        "details": "Returns `true` if `account` has been granted `role`."
      },
      "isApprovedForAll(address,address)": {
        "details": "See {IERC1155-isApprovedForAll}."
      },
      "renounceRole(bytes32,address)": {
        "details": "Revokes `role` from the calling account. Roles are often managed via {grantRole} and {revokeRole}: this function's purpose is to provide a mechanism for accounts to lose their privileges if they are compromised (such as when a trusted device is misplaced). If the calling account had been granted `role`, emits a {RoleRevoked} event. Requirements: - the caller must be `account`."
      },
      "revokeRole(bytes32,address)": {
        "details": "Revokes `role` from `account`. If `account` had been granted `role`, emits a {RoleRevoked} event. Requirements: - the caller must have ``role``'s admin role."
      },
      "safeBatchTransferFrom(address,address,uint256[],uint256[],bytes)": {
        "details": "See {IERC1155-safeBatchTransferFrom}."
      },
      "safeTransferFrom(address,address,uint256,uint256,bytes)": {
        "details": "See {IERC1155-safeTransferFrom}."
      },
      "setApprovalForAll(address,bool)": {
        "details": "See {IERC1155-setApprovalForAll}."
      },
      "supportsInterface(bytes4)": {
        "details": "See {IERC165-supportsInterface}."
      },
      "uri(uint256)": {
        "details": "See {IERC1155MetadataURI-uri}. This implementation returns the same URI for *all* token types. It relies on the token type ID substitution mechanism https://eips.ethereum.org/EIPS/eip-1155#metadata[defined in the EIP]. Clients calling this function must replace the `\\{id\\}` substring with the actual token type ID."
      }
    },
    "version": 1
  },
  "userdoc": {
    "kind": "user",
    "methods": {
      "addExternalBuy(address,uint256,uint256)": {
        "notice": "add a buy from other payment "
      },
      "addWhitelist(address[])": {
        "notice": "ONLY OWNER FUNCTIONS"
      },
      "changeUSDTaddress(address)": {
        "notice": "Change usdt address"
      },
      "desactive_ActivateNFT(address,uint256)": {
        "notice": "function to desactive an nft "
      },
      "getNFTByColleccion(uint256)": {
        "notice": "VIEW FUNCTIONS"
      },
      "howManyNFTs(uint256,address)": {
        "notice": "PUBLIC FUNCTIONS"
      }
    },
    "version": 1
  },
  "storageLayout": {
    "storage": [
      {
        "astId": 391,
        "contract": "contracts/Criptonix.sol:Criptonix",
        "label": "_initialized",
        "offset": 0,
        "slot": "0",
        "type": "t_bool"
      },
      {
        "astId": 394,
        "contract": "contracts/Criptonix.sol:Criptonix",
        "label": "_initializing",
        "offset": 1,
        "slot": "0",
        "type": "t_bool"
      },
      {
        "astId": 2129,
        "contract": "contracts/Criptonix.sol:Criptonix",
        "label": "__gap",
        "offset": 0,
        "slot": "1",
        "type": "t_array(t_uint256)50_storage"
      },
      {
        "astId": 2378,
        "contract": "contracts/Criptonix.sol:Criptonix",
        "label": "__gap",
        "offset": 0,
        "slot": "51",
        "type": "t_array(t_uint256)50_storage"
      },
      {
        "astId": 518,
        "contract": "contracts/Criptonix.sol:Criptonix",
        "label": "_balances",
        "offset": 0,
        "slot": "101",
        "type": "t_mapping(t_uint256,t_mapping(t_address,t_uint256))"
      },
      {
        "astId": 524,
        "contract": "contracts/Criptonix.sol:Criptonix",
        "label": "_operatorApprovals",
        "offset": 0,
        "slot": "102",
        "type": "t_mapping(t_address,t_mapping(t_address,t_bool))"
      },
      {
        "astId": 526,
        "contract": "contracts/Criptonix.sol:Criptonix",
        "label": "_uri",
        "offset": 0,
        "slot": "103",
        "type": "t_string_storage"
      },
      {
        "astId": 1565,
        "contract": "contracts/Criptonix.sol:Criptonix",
        "label": "__gap",
        "offset": 0,
        "slot": "104",
        "type": "t_array(t_uint256)47_storage"
      },
      {
        "astId": 1825,
        "contract": "contracts/Criptonix.sol:Criptonix",
        "label": "__gap",
        "offset": 0,
        "slot": "151",
        "type": "t_array(t_uint256)50_storage"
      },
      {
        "astId": 48,
        "contract": "contracts/Criptonix.sol:Criptonix",
        "label": "_roles",
        "offset": 0,
        "slot": "201",
        "type": "t_mapping(t_bytes32,t_struct(RoleData)43_storage)"
      },
      {
        "astId": 311,
        "contract": "contracts/Criptonix.sol:Criptonix",
        "label": "__gap",
        "offset": 0,
        "slot": "202",
        "type": "t_array(t_uint256)49_storage"
      },
      {
        "astId": 445,
        "contract": "contracts/Criptonix.sol:Criptonix",
        "label": "_status",
        "offset": 0,
        "slot": "251",
        "type": "t_uint256"
      },
      {
        "astId": 488,
        "contract": "contracts/Criptonix.sol:Criptonix",
        "label": "__gap",
        "offset": 0,
        "slot": "252",
        "type": "t_array(t_uint256)49_storage"
      },
      {
        "astId": 3359,
        "contract": "contracts/Criptonix.sol:Criptonix",
        "label": "_baseUri",
        "offset": 0,
        "slot": "301",
        "type": "t_string_storage"
      },
      {
        "astId": 3361,
        "contract": "contracts/Criptonix.sol:Criptonix",
        "label": "_contractUri",
        "offset": 0,
        "slot": "302",
        "type": "t_string_storage"
      },
      {
        "astId": 3364,
        "contract": "contracts/Criptonix.sol:Criptonix",
        "label": "idCollection",
        "offset": 0,
        "slot": "303",
        "type": "t_uint256"
      },
      {
        "astId": 3367,
        "contract": "contracts/Criptonix.sol:Criptonix",
        "label": "nftId",
        "offset": 0,
        "slot": "304",
        "type": "t_uint256"
      },
      {
        "astId": 3369,
        "contract": "contracts/Criptonix.sol:Criptonix",
        "label": "USDTAddress",
        "offset": 0,
        "slot": "305",
        "type": "t_address"
      },
      {
        "astId": 3371,
        "contract": "contracts/Criptonix.sol:Criptonix",
        "label": "recipient",
        "offset": 0,
        "slot": "306",
        "type": "t_address"
      },
      {
        "astId": 3374,
        "contract": "contracts/Criptonix.sol:Criptonix",
        "label": "whitelistArr",
        "offset": 0,
        "slot": "307",
        "type": "t_array(t_address)dyn_storage"
      },
      {
        "astId": 3441,
        "contract": "contracts/Criptonix.sol:Criptonix",
        "label": "ipfsHashes",
        "offset": 0,
        "slot": "308",
        "type": "t_mapping(t_uint256,t_string_storage)"
      },
      {
        "astId": 3446,
        "contract": "contracts/Criptonix.sol:Criptonix",
        "label": "tokenDatas",
        "offset": 0,
        "slot": "309",
        "type": "t_mapping(t_uint256,t_struct(tokenData)3383_storage)"
      },
      {
        "astId": 3451,
        "contract": "contracts/Criptonix.sol:Criptonix",
        "label": "collections",
        "offset": 0,
        "slot": "310",
        "type": "t_mapping(t_uint256,t_struct(Collection)3410_storage)"
      },
      {
        "astId": 3455,
        "contract": "contracts/Criptonix.sol:Criptonix",
        "label": "whitelisted",
        "offset": 0,
        "slot": "311",
        "type": "t_mapping(t_address,t_bool)"
      },
      {
        "astId": 3460,
        "contract": "contracts/Criptonix.sol:Criptonix",
        "label": "nftsOfCollection",
        "offset": 0,
        "slot": "312",
        "type": "t_mapping(t_uint256,t_array(t_uint256)dyn_storage)"
      },
      {
        "astId": 3465,
        "contract": "contracts/Criptonix.sol:Criptonix",
        "label": "userInfo",
        "offset": 0,
        "slot": "313",
        "type": "t_mapping(t_address,t_struct(User)3434_storage)"
      }
    ],
    "types": {
      "t_address": {
        "encoding": "inplace",
        "label": "address",
        "numberOfBytes": "20"
      },
      "t_array(t_address)dyn_storage": {
        "base": "t_address",
        "encoding": "dynamic_array",
        "label": "address[]",
        "numberOfBytes": "32"
      },
      "t_array(t_struct(pagoNFTinactivo)3417_storage)dyn_storage": {
        "base": "t_struct(pagoNFTinactivo)3417_storage",
        "encoding": "dynamic_array",
        "label": "struct Criptonix.pagoNFTinactivo[]",
        "numberOfBytes": "32"
      },
      "t_array(t_uint256)47_storage": {
        "base": "t_uint256",
        "encoding": "inplace",
        "label": "uint256[47]",
        "numberOfBytes": "1504"
      },
      "t_array(t_uint256)49_storage": {
        "base": "t_uint256",
        "encoding": "inplace",
        "label": "uint256[49]",
        "numberOfBytes": "1568"
      },
      "t_array(t_uint256)50_storage": {
        "base": "t_uint256",
        "encoding": "inplace",
        "label": "uint256[50]",
        "numberOfBytes": "1600"
      },
      "t_array(t_uint256)dyn_storage": {
        "base": "t_uint256",
        "encoding": "dynamic_array",
        "label": "uint256[]",
        "numberOfBytes": "32"
      },
      "t_bool": {
        "encoding": "inplace",
        "label": "bool",
        "numberOfBytes": "1"
      },
      "t_bytes32": {
        "encoding": "inplace",
        "label": "bytes32",
        "numberOfBytes": "32"
      },
      "t_mapping(t_address,t_bool)": {
        "encoding": "mapping",
        "key": "t_address",
        "label": "mapping(address => bool)",
        "numberOfBytes": "32",
        "value": "t_bool"
      },
      "t_mapping(t_address,t_mapping(t_address,t_bool))": {
        "encoding": "mapping",
        "key": "t_address",
        "label": "mapping(address => mapping(address => bool))",
        "numberOfBytes": "32",
        "value": "t_mapping(t_address,t_bool)"
      },
      "t_mapping(t_address,t_struct(User)3434_storage)": {
        "encoding": "mapping",
        "key": "t_address",
        "label": "mapping(address => struct Criptonix.User)",
        "numberOfBytes": "32",
        "value": "t_struct(User)3434_storage"
      },
      "t_mapping(t_address,t_uint256)": {
        "encoding": "mapping",
        "key": "t_address",
        "label": "mapping(address => uint256)",
        "numberOfBytes": "32",
        "value": "t_uint256"
      },
      "t_mapping(t_bytes32,t_struct(RoleData)43_storage)": {
        "encoding": "mapping",
        "key": "t_bytes32",
        "label": "mapping(bytes32 => struct AccessControlUpgradeable.RoleData)",
        "numberOfBytes": "32",
        "value": "t_struct(RoleData)43_storage"
      },
      "t_mapping(t_uint256,t_array(t_struct(pagoNFTinactivo)3417_storage)dyn_storage)": {
        "encoding": "mapping",
        "key": "t_uint256",
        "label": "mapping(uint256 => struct Criptonix.pagoNFTinactivo[])",
        "numberOfBytes": "32",
        "value": "t_array(t_struct(pagoNFTinactivo)3417_storage)dyn_storage"
      },
      "t_mapping(t_uint256,t_array(t_uint256)dyn_storage)": {
        "encoding": "mapping",
        "key": "t_uint256",
        "label": "mapping(uint256 => uint256[])",
        "numberOfBytes": "32",
        "value": "t_array(t_uint256)dyn_storage"
      },
      "t_mapping(t_uint256,t_mapping(t_address,t_uint256))": {
        "encoding": "mapping",
        "key": "t_uint256",
        "label": "mapping(uint256 => mapping(address => uint256))",
        "numberOfBytes": "32",
        "value": "t_mapping(t_address,t_uint256)"
      },
      "t_mapping(t_uint256,t_string_storage)": {
        "encoding": "mapping",
        "key": "t_uint256",
        "label": "mapping(uint256 => string)",
        "numberOfBytes": "32",
        "value": "t_string_storage"
      },
      "t_mapping(t_uint256,t_struct(Collection)3410_storage)": {
        "encoding": "mapping",
        "key": "t_uint256",
        "label": "mapping(uint256 => struct Criptonix.Collection)",
        "numberOfBytes": "32",
        "value": "t_struct(Collection)3410_storage"
      },
      "t_mapping(t_uint256,t_struct(tokenData)3383_storage)": {
        "encoding": "mapping",
        "key": "t_uint256",
        "label": "mapping(uint256 => struct Criptonix.tokenData)",
        "numberOfBytes": "32",
        "value": "t_struct(tokenData)3383_storage"
      },
      "t_mapping(t_uint256,t_uint256)": {
        "encoding": "mapping",
        "key": "t_uint256",
        "label": "mapping(uint256 => uint256)",
        "numberOfBytes": "32",
        "value": "t_uint256"
      },
      "t_string_storage": {
        "encoding": "bytes",
        "label": "string",
        "numberOfBytes": "32"
      },
      "t_struct(Collection)3410_storage": {
        "encoding": "inplace",
        "label": "struct Criptonix.Collection",
        "members": [
          {
            "astId": 3385,
            "contract": "contracts/Criptonix.sol:Criptonix",
            "label": "isPublic",
            "offset": 0,
            "slot": "0",
            "type": "t_bool"
          },
          {
            "astId": 3387,
            "contract": "contracts/Criptonix.sol:Criptonix",
            "label": "desactiveCost",
            "offset": 0,
            "slot": "1",
            "type": "t_uint256"
          },
          {
            "astId": 3389,
            "contract": "contracts/Criptonix.sol:Criptonix",
            "label": "madurationStartedAt",
            "offset": 0,
            "slot": "2",
            "type": "t_uint256"
          },
          {
            "astId": 3391,
            "contract": "contracts/Criptonix.sol:Criptonix",
            "label": "remainAmountToSell",
            "offset": 0,
            "slot": "3",
            "type": "t_uint256"
          },
          {
            "astId": 3393,
            "contract": "contracts/Criptonix.sol:Criptonix",
            "label": "TH",
            "offset": 0,
            "slot": "4",
            "type": "t_uint256"
          },
          {
            "astId": 3395,
            "contract": "contracts/Criptonix.sol:Criptonix",
            "label": "price",
            "offset": 0,
            "slot": "5",
            "type": "t_uint256"
          },
          {
            "astId": 3397,
            "contract": "contracts/Criptonix.sol:Criptonix",
            "label": "madurityTime",
            "offset": 0,
            "slot": "6",
            "type": "t_uint256"
          },
          {
            "astId": 3399,
            "contract": "contracts/Criptonix.sol:Criptonix",
            "label": "tokenLife",
            "offset": 0,
            "slot": "7",
            "type": "t_uint256"
          },
          {
            "astId": 3401,
            "contract": "contracts/Criptonix.sol:Criptonix",
            "label": "amount",
            "offset": 0,
            "slot": "8",
            "type": "t_uint256"
          },
          {
            "astId": 3403,
            "contract": "contracts/Criptonix.sol:Criptonix",
            "label": "amountToStartMaduration",
            "offset": 0,
            "slot": "9",
            "type": "t_uint256"
          },
          {
            "astId": 3405,
            "contract": "contracts/Criptonix.sol:Criptonix",
            "label": "energyCost",
            "offset": 0,
            "slot": "10",
            "type": "t_uint256"
          },
          {
            "astId": 3407,
            "contract": "contracts/Criptonix.sol:Criptonix",
            "label": "description",
            "offset": 0,
            "slot": "11",
            "type": "t_string_storage"
          },
          {
            "astId": 3409,
            "contract": "contracts/Criptonix.sol:Criptonix",
            "label": "ipfsHash",
            "offset": 0,
            "slot": "12",
            "type": "t_string_storage"
          }
        ],
        "numberOfBytes": "416"
      },
      "t_struct(RoleData)43_storage": {
        "encoding": "inplace",
        "label": "struct AccessControlUpgradeable.RoleData",
        "members": [
          {
            "astId": 40,
            "contract": "contracts/Criptonix.sol:Criptonix",
            "label": "members",
            "offset": 0,
            "slot": "0",
            "type": "t_mapping(t_address,t_bool)"
          },
          {
            "astId": 42,
            "contract": "contracts/Criptonix.sol:Criptonix",
            "label": "adminRole",
            "offset": 0,
            "slot": "1",
            "type": "t_bytes32"
          }
        ],
        "numberOfBytes": "64"
      },
      "t_struct(User)3434_storage": {
        "encoding": "inplace",
        "label": "struct Criptonix.User",
        "members": [
          {
            "astId": 3420,
            "contract": "contracts/Criptonix.sol:Criptonix",
            "label": "idsForUser",
            "offset": 0,
            "slot": "0",
            "type": "t_array(t_uint256)dyn_storage"
          },
          {
            "astId": 3423,
            "contract": "contracts/Criptonix.sol:Criptonix",
            "label": "rewardsAlreadyPaid",
            "offset": 0,
            "slot": "1",
            "type": "t_array(t_uint256)dyn_storage"
          },
          {
            "astId": 3427,
            "contract": "contracts/Criptonix.sol:Criptonix",
            "label": "daysPerReward",
            "offset": 0,
            "slot": "2",
            "type": "t_mapping(t_uint256,t_uint256)"
          },
          {
            "astId": 3433,
            "contract": "contracts/Criptonix.sol:Criptonix",
            "label": "inactivoPays",
            "offset": 0,
            "slot": "3",
            "type": "t_mapping(t_uint256,t_array(t_struct(pagoNFTinactivo)3417_storage)dyn_storage)"
          }
        ],
        "numberOfBytes": "128"
      },
      "t_struct(pagoNFTinactivo)3417_storage": {
        "encoding": "inplace",
        "label": "struct Criptonix.pagoNFTinactivo",
        "members": [
          {
            "astId": 3412,
            "contract": "contracts/Criptonix.sol:Criptonix",
            "label": "amountOfDays",
            "offset": 0,
            "slot": "0",
            "type": "t_uint256"
          },
          {
            "astId": 3414,
            "contract": "contracts/Criptonix.sol:Criptonix",
            "label": "amountOfUSDT",
            "offset": 0,
            "slot": "1",
            "type": "t_uint256"
          },
          {
            "astId": 3416,
            "contract": "contracts/Criptonix.sol:Criptonix",
            "label": "date",
            "offset": 0,
            "slot": "2",
            "type": "t_uint256"
          }
        ],
        "numberOfBytes": "96"
      },
      "t_struct(tokenData)3383_storage": {
        "encoding": "inplace",
        "label": "struct Criptonix.tokenData",
        "members": [
          {
            "astId": 3376,
            "contract": "contracts/Criptonix.sol:Criptonix",
            "label": "creator",
            "offset": 0,
            "slot": "0",
            "type": "t_address"
          },
          {
            "astId": 3378,
            "contract": "contracts/Criptonix.sol:Criptonix",
            "label": "idCollection",
            "offset": 0,
            "slot": "1",
            "type": "t_uint256"
          },
          {
            "astId": 3380,
            "contract": "contracts/Criptonix.sol:Criptonix",
            "label": "born",
            "offset": 0,
            "slot": "2",
            "type": "t_uint256"
          },
          {
            "astId": 3382,
            "contract": "contracts/Criptonix.sol:Criptonix",
            "label": "active",
            "offset": 0,
            "slot": "3",
            "type": "t_bool"
          }
        ],
        "numberOfBytes": "128"
      },
      "t_uint256": {
        "encoding": "inplace",
        "label": "uint256",
        "numberOfBytes": "32"
      }
    }
  }
}