{
  "address": "0x692079CB0AF33f14CA5C3bed483059acca2A7D23",
  "abi": [
    {
      "inputs": [
        {
          "internalType": "string",
          "name": "contractUri",
          "type": "string"
        },
        {
          "internalType": "address",
          "name": "_USDTAddress",
          "type": "address"
        },
        {
          "internalType": "address",
          "name": "_recipient",
          "type": "address"
        }
      ],
      "stateMutability": "nonpayable",
      "type": "constructor"
    },
    {
      "anonymous": false,
      "inputs": [
        {
          "indexed": true,
          "internalType": "address",
          "name": "account",
          "type": "address"
        },
        {
          "indexed": true,
          "internalType": "address",
          "name": "operator",
          "type": "address"
        },
        {
          "indexed": false,
          "internalType": "bool",
          "name": "approved",
          "type": "bool"
        }
      ],
      "name": "ApprovalForAll",
      "type": "event"
    },
    {
      "anonymous": false,
      "inputs": [
        {
          "indexed": false,
          "internalType": "address",
          "name": "creator",
          "type": "address"
        },
        {
          "indexed": false,
          "internalType": "uint256",
          "name": "amount",
          "type": "uint256"
        },
        {
          "indexed": false,
          "internalType": "uint256",
          "name": "id",
          "type": "uint256"
        }
      ],
      "name": "BurnNFT",
      "type": "event"
    },
    {
      "anonymous": false,
      "inputs": [
        {
          "indexed": false,
          "internalType": "uint256",
          "name": "price",
          "type": "uint256"
        },
        {
          "indexed": false,
          "internalType": "uint256",
          "name": "madurityTime",
          "type": "uint256"
        },
        {
          "indexed": false,
          "internalType": "uint256",
          "name": "tokenLife",
          "type": "uint256"
        },
        {
          "indexed": false,
          "internalType": "uint256",
          "name": "amount",
          "type": "uint256"
        },
        {
          "indexed": false,
          "internalType": "uint256",
          "name": "energyCost",
          "type": "uint256"
        },
        {
          "indexed": false,
          "internalType": "string",
          "name": "description",
          "type": "string"
        },
        {
          "indexed": false,
          "internalType": "string",
          "name": "ipfsHash",
          "type": "string"
        }
      ],
      "name": "CollectionCreated",
      "type": "event"
    },
    {
      "anonymous": false,
      "inputs": [
        {
          "indexed": false,
          "internalType": "address",
          "name": "creator",
          "type": "address"
        },
        {
          "indexed": false,
          "internalType": "uint256",
          "name": "amount",
          "type": "uint256"
        },
        {
          "indexed": false,
          "internalType": "uint256",
          "name": "id",
          "type": "uint256"
        }
      ],
      "name": "NewNFT",
      "type": "event"
    },
    {
      "anonymous": false,
      "inputs": [
        {
          "indexed": false,
          "internalType": "uint256",
          "name": "amount",
          "type": "uint256"
        },
        {
          "indexed": false,
          "internalType": "uint256",
          "name": "born",
          "type": "uint256"
        }
      ],
      "name": "Purchased",
      "type": "event"
    },
    {
      "anonymous": false,
      "inputs": [
        {
          "indexed": true,
          "internalType": "bytes32",
          "name": "role",
          "type": "bytes32"
        },
        {
          "indexed": true,
          "internalType": "bytes32",
          "name": "previousAdminRole",
          "type": "bytes32"
        },
        {
          "indexed": true,
          "internalType": "bytes32",
          "name": "newAdminRole",
          "type": "bytes32"
        }
      ],
      "name": "RoleAdminChanged",
      "type": "event"
    },
    {
      "anonymous": false,
      "inputs": [
        {
          "indexed": true,
          "internalType": "bytes32",
          "name": "role",
          "type": "bytes32"
        },
        {
          "indexed": true,
          "internalType": "address",
          "name": "account",
          "type": "address"
        },
        {
          "indexed": true,
          "internalType": "address",
          "name": "sender",
          "type": "address"
        }
      ],
      "name": "RoleGranted",
      "type": "event"
    },
    {
      "anonymous": false,
      "inputs": [
        {
          "indexed": true,
          "internalType": "bytes32",
          "name": "role",
          "type": "bytes32"
        },
        {
          "indexed": true,
          "internalType": "address",
          "name": "account",
          "type": "address"
        },
        {
          "indexed": true,
          "internalType": "address",
          "name": "sender",
          "type": "address"
        }
      ],
      "name": "RoleRevoked",
      "type": "event"
    },
    {
      "anonymous": false,
      "inputs": [
        {
          "indexed": true,
          "internalType": "address",
          "name": "operator",
          "type": "address"
        },
        {
          "indexed": true,
          "internalType": "address",
          "name": "from",
          "type": "address"
        },
        {
          "indexed": true,
          "internalType": "address",
          "name": "to",
          "type": "address"
        },
        {
          "indexed": false,
          "internalType": "uint256[]",
          "name": "ids",
          "type": "uint256[]"
        },
        {
          "indexed": false,
          "internalType": "uint256[]",
          "name": "values",
          "type": "uint256[]"
        }
      ],
      "name": "TransferBatch",
      "type": "event"
    },
    {
      "anonymous": false,
      "inputs": [
        {
          "indexed": true,
          "internalType": "address",
          "name": "operator",
          "type": "address"
        },
        {
          "indexed": true,
          "internalType": "address",
          "name": "from",
          "type": "address"
        },
        {
          "indexed": true,
          "internalType": "address",
          "name": "to",
          "type": "address"
        },
        {
          "indexed": false,
          "internalType": "uint256",
          "name": "id",
          "type": "uint256"
        },
        {
          "indexed": false,
          "internalType": "uint256",
          "name": "value",
          "type": "uint256"
        }
      ],
      "name": "TransferSingle",
      "type": "event"
    },
    {
      "anonymous": false,
      "inputs": [
        {
          "indexed": false,
          "internalType": "string",
          "name": "value",
          "type": "string"
        },
        {
          "indexed": true,
          "internalType": "uint256",
          "name": "id",
          "type": "uint256"
        }
      ],
      "name": "URI",
      "type": "event"
    },
    {
      "anonymous": false,
      "inputs": [
        {
          "indexed": false,
          "internalType": "uint256",
          "name": "rewardId",
          "type": "uint256"
        },
        {
          "indexed": false,
          "internalType": "address",
          "name": "user",
          "type": "address"
        }
      ],
      "name": "rewardPaid",
      "type": "event"
    },
    {
      "inputs": [],
      "name": "DEFAULT_ADMIN_ROLE",
      "outputs": [
        {
          "internalType": "bytes32",
          "name": "",
          "type": "bytes32"
        }
      ],
      "stateMutability": "view",
      "type": "function"
    },
    {
      "inputs": [],
      "name": "USDTAddress",
      "outputs": [
        {
          "internalType": "address",
          "name": "",
          "type": "address"
        }
      ],
      "stateMutability": "view",
      "type": "function"
    },
    {
      "inputs": [
        {
          "internalType": "address",
          "name": "_userAddress",
          "type": "address"
        },
        {
          "internalType": "uint256",
          "name": "_amount",
          "type": "uint256"
        },
        {
          "internalType": "uint256",
          "name": "_collectionID",
          "type": "uint256"
        }
      ],
      "name": "addExternalBuy",
      "outputs": [],
      "stateMutability": "nonpayable",
      "type": "function"
    },
    {
      "inputs": [
        {
          "internalType": "address[]",
          "name": "_accounts",
          "type": "address[]"
        }
      ],
      "name": "addWhitelist",
      "outputs": [],
      "stateMutability": "nonpayable",
      "type": "function"
    },
    {
      "inputs": [
        {
          "internalType": "address",
          "name": "account",
          "type": "address"
        },
        {
          "internalType": "uint256",
          "name": "id",
          "type": "uint256"
        }
      ],
      "name": "balanceOf",
      "outputs": [
        {
          "internalType": "uint256",
          "name": "",
          "type": "uint256"
        }
      ],
      "stateMutability": "view",
      "type": "function"
    },
    {
      "inputs": [
        {
          "internalType": "address[]",
          "name": "accounts",
          "type": "address[]"
        },
        {
          "internalType": "uint256[]",
          "name": "ids",
          "type": "uint256[]"
        }
      ],
      "name": "balanceOfBatch",
      "outputs": [
        {
          "internalType": "uint256[]",
          "name": "",
          "type": "uint256[]"
        }
      ],
      "stateMutability": "view",
      "type": "function"
    },
    {
      "inputs": [
        {
          "internalType": "address",
          "name": "account",
          "type": "address"
        },
        {
          "internalType": "uint256",
          "name": "id",
          "type": "uint256"
        },
        {
          "internalType": "uint256",
          "name": "value",
          "type": "uint256"
        }
      ],
      "name": "burn",
      "outputs": [],
      "stateMutability": "nonpayable",
      "type": "function"
    },
    {
      "inputs": [
        {
          "internalType": "address",
          "name": "account",
          "type": "address"
        },
        {
          "internalType": "uint256[]",
          "name": "ids",
          "type": "uint256[]"
        },
        {
          "internalType": "uint256[]",
          "name": "values",
          "type": "uint256[]"
        }
      ],
      "name": "burnBatch",
      "outputs": [],
      "stateMutability": "nonpayable",
      "type": "function"
    },
    {
      "inputs": [
        {
          "internalType": "uint256",
          "name": "tokenId",
          "type": "uint256"
        },
        {
          "internalType": "uint256",
          "name": "amount",
          "type": "uint256"
        }
      ],
      "name": "burnIt",
      "outputs": [],
      "stateMutability": "nonpayable",
      "type": "function"
    },
    {
      "inputs": [
        {
          "internalType": "uint256",
          "name": "_amount",
          "type": "uint256"
        },
        {
          "internalType": "uint256",
          "name": "_collectionID",
          "type": "uint256"
        }
      ],
      "name": "buyToken",
      "outputs": [],
      "stateMutability": "nonpayable",
      "type": "function"
    },
    {
      "inputs": [
        {
          "internalType": "address",
          "name": "_newAddress",
          "type": "address"
        }
      ],
      "name": "changeUSDTaddress",
      "outputs": [],
      "stateMutability": "nonpayable",
      "type": "function"
    },
    {
      "inputs": [
        {
          "internalType": "uint256",
          "name": "",
          "type": "uint256"
        }
      ],
      "name": "collections",
      "outputs": [
        {
          "internalType": "bool",
          "name": "isPublic",
          "type": "bool"
        },
        {
          "internalType": "uint256",
          "name": "madurationStartedAt",
          "type": "uint256"
        },
        {
          "internalType": "uint256",
          "name": "remainAmountToSell",
          "type": "uint256"
        },
        {
          "internalType": "uint256",
          "name": "TH",
          "type": "uint256"
        },
        {
          "internalType": "uint256",
          "name": "price",
          "type": "uint256"
        },
        {
          "internalType": "uint256",
          "name": "madurityTime",
          "type": "uint256"
        },
        {
          "internalType": "uint256",
          "name": "tokenLife",
          "type": "uint256"
        },
        {
          "internalType": "uint256",
          "name": "amount",
          "type": "uint256"
        },
        {
          "internalType": "uint256",
          "name": "amountToStartMaduration",
          "type": "uint256"
        },
        {
          "internalType": "uint256",
          "name": "energyCost",
          "type": "uint256"
        },
        {
          "internalType": "string",
          "name": "description",
          "type": "string"
        },
        {
          "internalType": "string",
          "name": "ipfsHash",
          "type": "string"
        }
      ],
      "stateMutability": "view",
      "type": "function"
    },
    {
      "inputs": [],
      "name": "contractURI",
      "outputs": [
        {
          "internalType": "string",
          "name": "",
          "type": "string"
        }
      ],
      "stateMutability": "view",
      "type": "function"
    },
    {
      "inputs": [
        {
          "internalType": "uint256",
          "name": "_price",
          "type": "uint256"
        },
        {
          "internalType": "string",
          "name": "_description",
          "type": "string"
        },
        {
          "internalType": "bool",
          "name": "_privacy",
          "type": "bool"
        },
        {
          "internalType": "uint256",
          "name": "_TH",
          "type": "uint256"
        },
        {
          "internalType": "uint256",
          "name": "_madurityTime",
          "type": "uint256"
        },
        {
          "internalType": "uint256",
          "name": "_energyCost",
          "type": "uint256"
        },
        {
          "internalType": "uint256",
          "name": "_tokenLife",
          "type": "uint256"
        },
        {
          "internalType": "uint256",
          "name": "_amount",
          "type": "uint256"
        },
        {
          "internalType": "uint256",
          "name": "_amountToStartMaduration",
          "type": "uint256"
        },
        {
          "internalType": "string",
          "name": "_ipfsHash",
          "type": "string"
        }
      ],
      "name": "createCollection",
      "outputs": [],
      "stateMutability": "nonpayable",
      "type": "function"
    },
    {
      "inputs": [
        {
          "internalType": "address",
          "name": "_user",
          "type": "address"
        },
        {
          "internalType": "uint256",
          "name": "_rewardID",
          "type": "uint256"
        }
      ],
      "name": "getDaysPerReward",
      "outputs": [
        {
          "internalType": "uint256",
          "name": "",
          "type": "uint256"
        }
      ],
      "stateMutability": "view",
      "type": "function"
    },
    {
      "inputs": [
        {
          "internalType": "uint256",
          "name": "collectionID",
          "type": "uint256"
        }
      ],
      "name": "getIpfsHash",
      "outputs": [
        {
          "internalType": "string",
          "name": "",
          "type": "string"
        }
      ],
      "stateMutability": "view",
      "type": "function"
    },
    {
      "inputs": [
        {
          "internalType": "uint256",
          "name": "_id",
          "type": "uint256"
        }
      ],
      "name": "getNFTByColleccion",
      "outputs": [
        {
          "internalType": "uint256[]",
          "name": "",
          "type": "uint256[]"
        }
      ],
      "stateMutability": "view",
      "type": "function"
    },
    {
      "inputs": [
        {
          "internalType": "bytes32",
          "name": "role",
          "type": "bytes32"
        }
      ],
      "name": "getRoleAdmin",
      "outputs": [
        {
          "internalType": "bytes32",
          "name": "",
          "type": "bytes32"
        }
      ],
      "stateMutability": "view",
      "type": "function"
    },
    {
      "inputs": [
        {
          "internalType": "uint256",
          "name": "tokenId",
          "type": "uint256"
        }
      ],
      "name": "getTokenData",
      "outputs": [
        {
          "components": [
            {
              "internalType": "address",
              "name": "creator",
              "type": "address"
            },
            {
              "internalType": "uint256",
              "name": "idCollection",
              "type": "uint256"
            },
            {
              "internalType": "uint256",
              "name": "born",
              "type": "uint256"
            }
          ],
          "internalType": "struct Criptonix.tokenData",
          "name": "",
          "type": "tuple"
        }
      ],
      "stateMutability": "view",
      "type": "function"
    },
    {
      "inputs": [
        {
          "internalType": "address",
          "name": "_account",
          "type": "address"
        }
      ],
      "name": "getUserNftsId",
      "outputs": [
        {
          "internalType": "uint256[]",
          "name": "",
          "type": "uint256[]"
        }
      ],
      "stateMutability": "view",
      "type": "function"
    },
    {
      "inputs": [
        {
          "internalType": "bytes32",
          "name": "role",
          "type": "bytes32"
        },
        {
          "internalType": "address",
          "name": "account",
          "type": "address"
        }
      ],
      "name": "grantRole",
      "outputs": [],
      "stateMutability": "nonpayable",
      "type": "function"
    },
    {
      "inputs": [
        {
          "internalType": "bytes32",
          "name": "role",
          "type": "bytes32"
        },
        {
          "internalType": "address",
          "name": "account",
          "type": "address"
        }
      ],
      "name": "hasRole",
      "outputs": [
        {
          "internalType": "bool",
          "name": "",
          "type": "bool"
        }
      ],
      "stateMutability": "view",
      "type": "function"
    },
    {
      "inputs": [
        {
          "internalType": "uint256",
          "name": "collectionID",
          "type": "uint256"
        },
        {
          "internalType": "address",
          "name": "_userAddress",
          "type": "address"
        }
      ],
      "name": "howManyNFTs",
      "outputs": [
        {
          "internalType": "uint256",
          "name": "",
          "type": "uint256"
        }
      ],
      "stateMutability": "view",
      "type": "function"
    },
    {
      "inputs": [],
      "name": "idCollection",
      "outputs": [
        {
          "internalType": "uint256",
          "name": "",
          "type": "uint256"
        }
      ],
      "stateMutability": "view",
      "type": "function"
    },
    {
      "inputs": [
        {
          "internalType": "uint256",
          "name": "",
          "type": "uint256"
        }
      ],
      "name": "ipfsHashes",
      "outputs": [
        {
          "internalType": "string",
          "name": "",
          "type": "string"
        }
      ],
      "stateMutability": "view",
      "type": "function"
    },
    {
      "inputs": [
        {
          "internalType": "address",
          "name": "account",
          "type": "address"
        },
        {
          "internalType": "address",
          "name": "operator",
          "type": "address"
        }
      ],
      "name": "isApprovedForAll",
      "outputs": [
        {
          "internalType": "bool",
          "name": "",
          "type": "bool"
        }
      ],
      "stateMutability": "view",
      "type": "function"
    },
    {
      "inputs": [
        {
          "internalType": "uint256",
          "name": "",
          "type": "uint256"
        },
        {
          "internalType": "uint256",
          "name": "",
          "type": "uint256"
        }
      ],
      "name": "nftsOfCollection",
      "outputs": [
        {
          "internalType": "uint256",
          "name": "",
          "type": "uint256"
        }
      ],
      "stateMutability": "view",
      "type": "function"
    },
    {
      "inputs": [
        {
          "internalType": "uint256",
          "name": "rewardID",
          "type": "uint256"
        },
        {
          "internalType": "uint256",
          "name": "collectionID",
          "type": "uint256"
        },
        {
          "internalType": "uint256",
          "name": "amountOfDays",
          "type": "uint256"
        }
      ],
      "name": "payEnergyCost",
      "outputs": [],
      "stateMutability": "nonpayable",
      "type": "function"
    },
    {
      "inputs": [],
      "name": "removeWhitelistedAddress",
      "outputs": [],
      "stateMutability": "nonpayable",
      "type": "function"
    },
    {
      "inputs": [
        {
          "internalType": "bytes32",
          "name": "role",
          "type": "bytes32"
        },
        {
          "internalType": "address",
          "name": "account",
          "type": "address"
        }
      ],
      "name": "renounceRole",
      "outputs": [],
      "stateMutability": "nonpayable",
      "type": "function"
    },
    {
      "inputs": [
        {
          "internalType": "bytes32",
          "name": "role",
          "type": "bytes32"
        },
        {
          "internalType": "address",
          "name": "account",
          "type": "address"
        }
      ],
      "name": "revokeRole",
      "outputs": [],
      "stateMutability": "nonpayable",
      "type": "function"
    },
    {
      "inputs": [
        {
          "internalType": "address",
          "name": "_user",
          "type": "address"
        }
      ],
      "name": "rewardsPaid",
      "outputs": [
        {
          "internalType": "uint256[]",
          "name": "",
          "type": "uint256[]"
        }
      ],
      "stateMutability": "view",
      "type": "function"
    },
    {
      "inputs": [
        {
          "internalType": "address",
          "name": "from",
          "type": "address"
        },
        {
          "internalType": "address",
          "name": "to",
          "type": "address"
        },
        {
          "internalType": "uint256[]",
          "name": "ids",
          "type": "uint256[]"
        },
        {
          "internalType": "uint256[]",
          "name": "amounts",
          "type": "uint256[]"
        },
        {
          "internalType": "bytes",
          "name": "data",
          "type": "bytes"
        }
      ],
      "name": "safeBatchTransferFrom",
      "outputs": [],
      "stateMutability": "nonpayable",
      "type": "function"
    },
    {
      "inputs": [
        {
          "internalType": "address",
          "name": "from",
          "type": "address"
        },
        {
          "internalType": "address",
          "name": "to",
          "type": "address"
        },
        {
          "internalType": "uint256",
          "name": "id",
          "type": "uint256"
        },
        {
          "internalType": "uint256",
          "name": "amount",
          "type": "uint256"
        },
        {
          "internalType": "bytes",
          "name": "data",
          "type": "bytes"
        }
      ],
      "name": "safeTransferFrom",
      "outputs": [],
      "stateMutability": "nonpayable",
      "type": "function"
    },
    {
      "inputs": [
        {
          "internalType": "address",
          "name": "operator",
          "type": "address"
        },
        {
          "internalType": "bool",
          "name": "approved",
          "type": "bool"
        }
      ],
      "name": "setApprovalForAll",
      "outputs": [],
      "stateMutability": "nonpayable",
      "type": "function"
    },
    {
      "inputs": [
        {
          "internalType": "bytes4",
          "name": "interfaceId",
          "type": "bytes4"
        }
      ],
      "name": "supportsInterface",
      "outputs": [
        {
          "internalType": "bool",
          "name": "",
          "type": "bool"
        }
      ],
      "stateMutability": "view",
      "type": "function"
    },
    {
      "inputs": [
        {
          "internalType": "uint256",
          "name": "",
          "type": "uint256"
        }
      ],
      "name": "tokenDatas",
      "outputs": [
        {
          "internalType": "address",
          "name": "creator",
          "type": "address"
        },
        {
          "internalType": "uint256",
          "name": "idCollection",
          "type": "uint256"
        },
        {
          "internalType": "uint256",
          "name": "born",
          "type": "uint256"
        }
      ],
      "stateMutability": "view",
      "type": "function"
    },
    {
      "inputs": [
        {
          "internalType": "uint256",
          "name": "",
          "type": "uint256"
        }
      ],
      "name": "uri",
      "outputs": [
        {
          "internalType": "string",
          "name": "",
          "type": "string"
        }
      ],
      "stateMutability": "view",
      "type": "function"
    },
    {
      "inputs": [
        {
          "internalType": "uint256",
          "name": "",
          "type": "uint256"
        }
      ],
      "name": "whitelistArr",
      "outputs": [
        {
          "internalType": "address",
          "name": "",
          "type": "address"
        }
      ],
      "stateMutability": "view",
      "type": "function"
    },
    {
      "inputs": [
        {
          "internalType": "address",
          "name": "",
          "type": "address"
        }
      ],
      "name": "whitelisted",
      "outputs": [
        {
          "internalType": "bool",
          "name": "",
          "type": "bool"
        }
      ],
      "stateMutability": "view",
      "type": "function"
    }
  ],
  "transactionHash": "0x580f59622184765767a4ced832ff1e01086a1f1fb68b74e704ed3097314a2bbd",
  "args": [
    "htttp://",
    "0x32698D37E2f6d00dE3B694246943053493851642",
    "0xd6873602200ED3869205B5E8423020C933022276"
  ],
  "solcInputHash": "b18d64d66ca25c0283892b35a6340e81",
  "bytecode": "0x6080604052600160075560016008553480156200001b57600080fd5b50604051620046af380380620046af8339810160408190526200003e9162000292565b604080516020810190915260008152620000588162000109565b5060016004556200006b60003362000122565b60408051808201909152600780825266697066733a2f2f60c81b60209092019182526200009b91600591620001cf565b5082604051602001620000af919062000371565b60405160208183030381529060405260069080519060200190620000d5929190620001cf565b50600980546001600160a01b039384166001600160a01b031991821617909155600a80549290931691161790555062000428565b80516200011e906002906020840190620001cf565b5050565b60008281526003602090815260408083206001600160a01b03851684529091529020546200011e908390839060ff166200011e5760008281526003602090815260408083206001600160a01b03851684529091529020805460ff191660011790556200018b3390565b6001600160a01b0316816001600160a01b0316837f2f8788117e7eff1d82e926ec794901d17c78024a50270940304540a733656f0d60405160405180910390a45050565b828054620001dd90620003d5565b90600052602060002090601f0160209004810192826200020157600085556200024c565b82601f106200021c57805160ff19168380011785556200024c565b828001600101855582156200024c579182015b828111156200024c5782518255916020019190600101906200022f565b506200025a9291506200025e565b5090565b5b808211156200025a57600081556001016200025f565b80516001600160a01b03811681146200028d57600080fd5b919050565b600080600060608486031215620002a857600080fd5b83516001600160401b0380821115620002c057600080fd5b818601915086601f830112620002d557600080fd5b815181811115620002ea57620002ea62000412565b604051601f8201601f19908116603f0116810190838211818310171562000315576200031562000412565b816040528281528960208487010111156200032f57600080fd5b62000342836020830160208801620003a2565b8097505050505050620003586020850162000275565b9150620003686040850162000275565b90509250925092565b66697066733a2f2f60c81b81526000825162000395816007850160208701620003a2565b9190910160070192915050565b60005b83811015620003bf578181015183820152602001620003a5565b83811115620003cf576000848401525b50505050565b600181811c90821680620003ea57607f821691505b602082108114156200040c57634e487b7160e01b600052602260045260246000fd5b50919050565b634e487b7160e01b600052604160045260246000fd5b61427780620004386000396000f3fe608060405234801561001057600080fd5b50600436106102475760003560e01c8063a217fddf1161013b578063d936547e116100b8578063f242432a1161007c578063f242432a14610612578063f5298aca14610625578063fdbda0ec14610638578063ff920c7414610663578063ffa9aede1461067657600080fd5b8063d936547e14610585578063e7020307146105a8578063e8a3d485146105bb578063e985e9c5146105c3578063edac985b146105ff57600080fd5b8063b0b8f553116100ff578063b0b8f5531461050e578063b6b75c3814610521578063be38341d14610534578063d450fbc91461055f578063d547741f1461057257600080fd5b8063a217fddf1461048f578063a22cb46514610497578063a4de2f5c146104aa578063a5527248146104bd578063b09afec1146104d057600080fd5b806334279b68116101c95780636b20c4541161018d5780636b20c454146103e55780636fc37a75146103f8578063700a4a74146104565780638257ea891461046957806391d148541461047c57600080fd5b806334279b681461039157806336568abe1461039957806336d00a23146103ac5780633736e8d9146103bf5780634e1273f4146103d257600080fd5b80630e89341c116102105780630e89341c146102ee5780630fc56db91461030e578063248a9ca3146103485780632eb2c2d61461036b5780632f2ff15d1461037e57600080fd5b8062fdd58e1461024c57806301ffc9a714610272578063057466ea146102a65780630c5e2e12146102bb5780630dd57270146102ce575b600080fd5b61025f61025a366004613819565b61067f565b6040519081526020015b60405180910390f35b610296610280366004613970565b6001600160e01b0319166301ffc9a760e01b1490565b6040519015158152602001610269565b6102b96102b4366004613a64565b610716565b005b61025f6102c936600461394d565b610cd4565b6102e16102dc366004613611565b610f86565b6040516102699190613c31565b6103016102fc366004613934565b610ff2565b6040516102699190613cef565b61025f61031c366004613819565b6001600160a01b0391909116600090815260116020908152604080832093835260029093019052205490565b61025f610356366004613934565b60009081526003602052604090206001015490565b6102b961037936600461365f565b61107c565b6102b961038c36600461394d565b6112e6565b6102b9611311565b6102b96103a736600461394d565b6113b3565b6102b96103ba366004613a86565b611431565b6102b96103cd366004613611565b611913565b6102e16103e03660046138b3565b61195c565b6102b96103f336600461376e565b611a79565b610431610406366004613934565b600d602052600090815260409020805460018201546002909201546001600160a01b03909116919083565b604080516001600160a01b039094168452602084019290925290820152606001610269565b6102e1610464366004613611565b611abc565b61025f610477366004613a64565b611b29565b61029661048a36600461394d565b611b5a565b61025f600081565b6102b96104a53660046137e2565b611b85565b6103016104b8366004613934565b611c5c565b6102e16104cb366004613934565b611cf6565b6104e36104de366004613934565b611d56565b6040805182516001600160a01b03168152602080840151908201529181015190820152606001610269565b6102b961051c3660046139aa565b611dc5565b6102b961052f366004613a64565b611fdd565b610547610542366004613934565b612054565b6040516001600160a01b039091168152602001610269565b61030161056d366004613934565b61207e565b6102b961058036600461394d565b61209e565b610296610593366004613611565b600f6020526000908152604090205460ff1681565b6102b96105b6366004613843565b6120c4565b610301612592565b6102966105d136600461362c565b6001600160a01b03918216600090815260016020908152604080832093909416825291909152205460ff1690565b6102b961060d366004613876565b612624565b6102b9610620366004613709565b6126c7565b6102b9610633366004613843565b612835565b61064b610646366004613934565b612878565b6040516102699c9b9a99989796959493929190613c72565b600954610547906001600160a01b031681565b61025f60075481565b60006001600160a01b0383166106f05760405162461bcd60e51b815260206004820152602b60248201527f455243313135353a2062616c616e636520717565727920666f7220746865207a60448201526a65726f206164647265737360a81b60648201526084015b60405180910390fd5b506000908152602081815260408083206001600160a01b03949094168352929052205490565b600260045414156107695760405162461bcd60e51b815260206004820152601f60248201527f5265656e7472616e637947756172643a207265656e7472616e742063616c6c0060448201526064016106e7565b60026004556000818152600e6020526040902054819060ff166107e557336000908152600f602052604090205460ff166107e55760405162461bcd60e51b815260206004820152601a60248201527f5468697320636f6c6c656374696f6e206973207072697661746500000000000060448201526064016106e7565b6000828152600e60209081526040808320815161018081018352815460ff16151581526001820154938101939093526002810154918301919091526003810154606083015260048101546080830152600581015460a0830152600681015460c0830152600781015460e083015260088101546101008301526009810154610120830152600a810180546101408401919061087e906140b2565b80601f01602080910402602001604051908101604052809291908181526020018280546108aa906140b2565b80156108f75780601f106108cc576101008083540402835291602001916108f7565b820191906000526020600020905b8154815290600101906020018083116108da57829003601f168201915b50505050508152602001600b82018054610910906140b2565b80601f016020809104026020016040519081016040528092919081815260200182805461093c906140b2565b80156109895780601f1061095e57610100808354040283529160200191610989565b820191906000526020600020905b81548152906001019060200180831161096c57829003601f168201915b505050505081525050905083816040015110156109b85760405162461bcd60e51b81526004016106e790613dd7565b6000831180156109ca57506007548311155b610a165760405162461bcd60e51b815260206004820152601c60248201527f54686973206964206973206e6f7420696e20636f6c6c656374696f6e0000000060448201526064016106e7565b600954600a5460808301516001600160a01b03928316926323b872dd923392911690610a5c906c0c9f2c9cd04674edea4000000090610a56908b906129ed565b90612a00565b6040516001600160e01b031960e086901b1681526001600160a01b0393841660048201529290911660248301526044820152606401602060405180830381600087803b158015610aab57600080fd5b505af1158015610abf573d6000803e3d6000fd5b505050506040513d601f19601f82011682018060405250810190610ae39190613917565b610b2a5760405162461bcd60e51b8152602060048201526018602482015277151a19481d5cd91d081d1c985b9cd9995c8819985a5b195960421b60448201526064016106e7565b60005b610b3f85670de0b6b3a7640000612a00565b811015610c2c57610b6f33600854600160405180604001604052806002815260200161060f60f31b815250612a0c565b6040805160608101825233808252602080830188815242848601908152600880546000908152600d8552878120965187546001600160a01b0319166001600160a01b039091161787559251600180880191909155915160029096019590955592815260118252848120845481548086018355918352838320909101558881526010825293842083548154938401825590855290842090910155805491610c148361411a565b91905055508080610c249061411a565b915050610b2d565b506000838152600e6020526040902060020154610c499085612b0d565b6000848152600e60205260409020600281018290556101008301516007909101549091610c769190612b0d565b10610c91576000838152600e60205260409020426001909101555b604080518581524260208201527fb5178cc061af0b3448e47e868e15690d28deeae596550c7ba8ebe9eb105c97d3910160405180910390a1505060016004555050565b60008080610ce184610f86565b905060005b8151811015610f7c576000868152600e60209081526040808320815161018081018352815460ff16151581526001820154938101939093526002810154918301919091526003810154606083015260048101546080830152600581015460a0830152600681015460c0830152600781015460e083015260088101546101008301526009810154610120830152600a8101805461014084019190610d88906140b2565b80601f0160208091040260200160405190810160405280929190818152602001828054610db4906140b2565b8015610e015780601f10610dd657610100808354040283529160200191610e01565b820191906000526020600020905b815481529060010190602001808311610de457829003601f168201915b50505050508152602001600b82018054610e1a906140b2565b80601f0160208091040260200160405190810160405280929190818152602001828054610e46906140b2565b8015610e935780601f10610e6857610100808354040283529160200191610e93565b820191906000526020600020905b815481529060010190602001808311610e7657829003601f168201915b505050505081525050905086600d6000858581518110610eb557610eb561414b565b6020026020010151815260200190815260200160002060010154148015610f2857508060c001518160a00151600d6000868681518110610ef757610ef761414b565b6020026020010151815260200190815260200160002060020154610f1b9190613ffb565b610f259190613ffb565b42105b8015610f5657506000610f5487858581518110610f4757610f4761414b565b602002602001015161067f565b115b15610f695783610f658161411a565b9450505b5080610f748161411a565b915050610ce6565b5090949350505050565b6001600160a01b038116600090815260116020908152604091829020805483518184028101840190945280845260609392830182828015610fe657602002820191906000526020600020905b815481526020019060010190808311610fd2575b50505050509050919050565b606060028054611001906140b2565b80601f016020809104026020016040519081016040528092919081815260200182805461102d906140b2565b8015610fe65780601f1061104f57610100808354040283529160200191610fe6565b820191906000526020600020905b81548152906001019060200180831161105d5750939695505050505050565b815183511461109d5760405162461bcd60e51b81526004016106e790613f25565b6001600160a01b0384166110c35760405162461bcd60e51b81526004016106e790613e24565b6001600160a01b0385163314806110df57506110df85336105d1565b6111465760405162461bcd60e51b815260206004820152603260248201527f455243313135353a207472616e736665722063616c6c6572206973206e6f74206044820152711bdddb995c881b9bdc88185c1c1c9bdd995960721b60648201526084016106e7565b3360005b84518110156112785760008582815181106111675761116761414b565b6020026020010151905060008583815181106111855761118561414b565b602090810291909101810151600084815280835260408082206001600160a01b038e1683529093529190912054909150818110156111d55760405162461bcd60e51b81526004016106e790613eac565b6111df8282614054565b60008085815260200190815260200160002060008c6001600160a01b03166001600160a01b03168152602001908152602001600020819055508160008085815260200190815260200160002060008b6001600160a01b03166001600160a01b03168152602001908152602001600020600082825461125d9190613ffb565b92505081905550505050806112719061411a565b905061114a565b50846001600160a01b0316866001600160a01b0316826001600160a01b03167f4a39dc06d4c0dbc64b70af90fd698a233a518aa5d07e595d983b8c0526c8f7fb87876040516112c8929190613c44565b60405180910390a46112de818787878787612b19565b505050505050565b6000828152600360205260409020600101546113028133612c84565b61130c8383612ce8565b505050565b61131c600033611b5a565b6113385760405162461bcd60e51b81526004016106e790613ef6565b60005b600b548110156113a4576001600f6000600b848154811061135e5761135e61414b565b6000918252602080832091909101546001600160a01b031683528201929092526040019020805460ff19169115159190911790558061139c8161411a565b91505061133b565b506113b1600b600061337f565b565b6001600160a01b03811633146114235760405162461bcd60e51b815260206004820152602f60248201527f416363657373436f6e74726f6c3a2063616e206f6e6c792072656e6f756e636560448201526e103937b632b9903337b91039b2b63360891b60648201526084016106e7565b61142d8282612d6e565b5050565b6000828152600e60209081526040808320815161018081018352815460ff16151581526001820154938101939093526002810154918301919091526003810154606083015260048101546080830152600581015460a0830152600681015460c0830152600781015460e083015260088101546101008301526009810154610120830152600a81018054610140840191906114ca906140b2565b80601f01602080910402602001604051908101604052809291908181526020018280546114f6906140b2565b80156115435780601f1061151857610100808354040283529160200191611543565b820191906000526020600020905b81548152906001019060200180831161152657829003601f168201915b50505050508152602001600b8201805461155c906140b2565b80601f0160208091040260200160405190810160405280929190818152602001828054611588906140b2565b80156115d55780601f106115aa576101008083540402835291602001916115d5565b820191906000526020600020905b8154815290600101906020018083116115b857829003601f168201915b505050505081525050905060b48210156116245760405162461bcd60e51b815260206004820152601060248201526f4174206c65617374206f6e652064617960801b60448201526064016106e7565b60008160200151116116785760405162461bcd60e51b815260206004820152601a60248201527f4d616475726174696f6e206e6f7420737461727465642079657400000000000060448201526064016106e7565b8060a00151816020015161168c9190613ffb565b42116116d25760405162461bcd60e51b815260206004820152601560248201527409ac2c8eae4c2e8d2dedc40dcdee840ccd2dcd2e6d605b1b60448201526064016106e7565b60006116de8433610cd4565b9050600081116117305760405162461bcd60e51b815260206004820152601a60248201527f4e6f204e46545320696e207468697320636f6c6c656374696f6e00000000000060448201526064016106e7565b61178a611766826117606c0c9f2c9cd04674edea40000000610a56876101200151896129ed90919063ffffffff16565b906129ed565b60405180604001604052806006815260200165185b5bdd5b9d60d21b815250612dd5565b600954600a546101208401516001600160a01b03928316926323b872dd9233929116906117d1908690611760906c0c9f2c9cd04674edea4000000090610a56908c906129ed565b6040516001600160e01b031960e086901b1681526001600160a01b0393841660048201529290911660248301526044820152606401602060405180830381600087803b15801561182057600080fd5b505af1158015611834573d6000803e3d6000fd5b505050506040513d601f19601f820116820180604052508101906118589190613917565b61189f5760405162461bcd60e51b8152602060048201526018602482015277151a19481d5cd91d081d1c985b9cd9995c8819985a5b195960421b60448201526064016106e7565b3360008181526011602090815260408083206001808201805491820181558552838520018a90558984526002018252918290208690558151888152908101929092527f83345060e3eb4917210def935c880d7bfa8ed73b136153d3ac60f0be5a183dfa910160405180910390a15050505050565b61191e600033611b5a565b61193a5760405162461bcd60e51b81526004016106e790613ef6565b600980546001600160a01b0319166001600160a01b0392909216919091179055565b606081518351146119c15760405162461bcd60e51b815260206004820152602960248201527f455243313135353a206163636f756e747320616e6420696473206c656e677468604482015268040dad2e6dac2e8c6d60bb1b60648201526084016106e7565b6000835167ffffffffffffffff8111156119dd576119dd614161565b604051908082528060200260200182016040528015611a06578160200160208202803683370190505b50905060005b8451811015611a7157611a44858281518110611a2a57611a2a61414b565b6020026020010151858381518110610f4757610f4761414b565b828281518110611a5657611a5661414b565b6020908102919091010152611a6a8161411a565b9050611a0c565b509392505050565b6001600160a01b038316331480611a955750611a9583336105d1565b611ab15760405162461bcd60e51b81526004016106e790613d8e565b61130c838383612e1a565b6001600160a01b038116600090815260116020908152604091829020600101805483518184028101840190945280845260609392830182828015610fe65760200282019190600052602060002090815481526020019060010190808311610fd25750505050509050919050565b60106020528160005260406000208181548110611b4557600080fd5b90600052602060002001600091509150505481565b60009182526003602090815260408084206001600160a01b0393909316845291905290205460ff1690565b336001600160a01b0383161415611bf05760405162461bcd60e51b815260206004820152602960248201527f455243313135353a2073657474696e6720617070726f76616c20737461747573604482015268103337b91039b2b63360b91b60648201526084016106e7565b3360008181526001602090815260408083206001600160a01b03871680855290835292819020805460ff191686151590811790915590519081529192917f17307eab39ab6107e8899845ad3d59bd9653f200f220920489ca2b5937696c31910160405180910390a35050565b600c6020526000908152604090208054611c75906140b2565b80601f0160208091040260200160405190810160405280929190818152602001828054611ca1906140b2565b8015611cee5780601f10611cc357610100808354040283529160200191611cee565b820191906000526020600020905b815481529060010190602001808311611cd157829003601f168201915b505050505081565b600081815260106020908152604091829020805483518184028101840190945280845260609392830182828015610fe65760200282019190600052602060002090815481526020019060010190808311610fd25750505050509050919050565b611d83604051806060016040528060006001600160a01b0316815260200160008152602001600081525090565b506000908152600d6020908152604091829020825160608101845281546001600160a01b03168152600182015492810192909252600201549181019190915290565b611dd0600033611b5a565b611dec5760405162461bcd60e51b81526004016106e790613ef6565b818311611e565760405162461bcd60e51b815260206004820152603260248201527f4d616475726174696f6e20616d6f756e742073686f756c64206265206c657373604482015271081d1a185b881d1bdd185b08185b5bdd5b9d60721b60648201526084016106e7565b6040518061018001604052808915158152602001600081526020018481526020018881526020018b81526020018781526020018581526020018481526020018381526020018681526020018a815260200182815250600e6000600754815260200190815260200160002060008201518160000160006101000a81548160ff0219169083151502179055506020820151816001015560408201518160020155606082015181600301556080820151816004015560a0820151816005015560c0820151816006015560e082015181600701556101008201518160080155610120820151816009015561014082015181600a019080519060200190611f599291906133a0565b506101608201518051611f7691600b8401916020909101906133a0565b50506007805491506000611f898361411a565b91905055507f5f8d39c5b2157ce3be3fba6bc83dced30befa23d4fc4a67702ab0017d48f47d58a878686898e87604051611fc99796959493929190613f86565b60405180910390a150505050505050505050565b611fe8600033611b5a565b6120045760405162461bcd60e51b81526004016106e790613ef6565b61200f338383612835565b60408051338152602081018390529081018390527fac9904ccb216c7c9a336264f26486b74305b0e54e9234ee5bfafc767044870d19060600160405180910390a15050565b600b818154811061206457600080fd5b6000918252602090912001546001600160a01b0316905081565b6000818152600e60205260409020600b01805460609190611001906140b2565b6000828152600360205260409020600101546120ba8133612c84565b61130c8383612d6e565b600260045414156121175760405162461bcd60e51b815260206004820152601f60248201527f5265656e7472616e637947756172643a207265656e7472616e742063616c6c0060448201526064016106e7565b6002600455612127600033611b5a565b6121435760405162461bcd60e51b81526004016106e790613ef6565b6000818152600e6020526040902054819060ff166121ba57336000908152600f602052604090205460ff166121ba5760405162461bcd60e51b815260206004820152601a60248201527f5468697320636f6c6c656374696f6e206973207072697661746500000000000060448201526064016106e7565b6000828152600e60209081526040808320815161018081018352815460ff16151581526001820154938101939093526002810154918301919091526003810154606083015260048101546080830152600581015460a0830152600681015460c0830152600781015460e083015260088101546101008301526009810154610120830152600a8101805461014084019190612253906140b2565b80601f016020809104026020016040519081016040528092919081815260200182805461227f906140b2565b80156122cc5780601f106122a1576101008083540402835291602001916122cc565b820191906000526020600020905b8154815290600101906020018083116122af57829003601f168201915b50505050508152602001600b820180546122e5906140b2565b80601f0160208091040260200160405190810160405280929190818152602001828054612311906140b2565b801561235e5780601f106123335761010080835404028352916020019161235e565b820191906000526020600020905b81548152906001019060200180831161234157829003601f168201915b5050505050815250509050838160400151101561238d5760405162461bcd60e51b81526004016106e790613dd7565b60008311801561239f57506007548311155b6123eb5760405162461bcd60e51b815260206004820152601c60248201527f54686973206964206973206e6f7420696e20636f6c6c656374696f6e0000000060448201526064016106e7565b60005b61240085670de0b6b3a7640000612a00565b8110156124e95761242586600854600160405180602001604052806000815250612a0c565b604080516060810182526001600160a01b03888116808352602080840189815242858701908152600880546000908152600d8552888120975188546001600160a01b031916971696909617875591516001808801919091559051600290960195909555918352601181528483208254815480870183559185528285209091015588835260108152938220815481549485018255908352938220909201929092558054916124d18361411a565b919050555080806124e19061411a565b9150506123ee565b506000838152600e60205260409020600201546125069085612b0d565b6000848152600e602052604090206002810182905561010083015160079091015490916125339190612b0d565b1061254e576000838152600e60205260409020426001909101555b604080518581524260208201527fb5178cc061af0b3448e47e868e15690d28deeae596550c7ba8ebe9eb105c97d3910160405180910390a150506001600455505050565b6060600680546125a1906140b2565b80601f01602080910402602001604051908101604052809291908181526020018280546125cd906140b2565b801561261a5780601f106125ef5761010080835404028352916020019161261a565b820191906000526020600020905b8154815290600101906020018083116125fd57829003601f168201915b5050505050905090565b61262f600033611b5a565b61264b5760405162461bcd60e51b81526004016106e790613ef6565b60005b81518110156126b3576001600f600084848151811061266f5761266f61414b565b6020908102919091018101516001600160a01b03168252810191909152604001600020805460ff1916911515919091179055806126ab8161411a565b91505061264e565b50805161142d90600b906020840190613424565b6001600160a01b0384166126ed5760405162461bcd60e51b81526004016106e790613e24565b6001600160a01b038516331480612709575061270985336105d1565b6127255760405162461bcd60e51b81526004016106e790613d8e565b3361274581878761273588612fa3565b61273e88612fa3565b5050505050565b6000848152602081815260408083206001600160a01b038a168452909152902054838110156127865760405162461bcd60e51b81526004016106e790613eac565b6127908482614054565b6000868152602081815260408083206001600160a01b038c811685529252808320939093558816815290812080548692906127cc908490613ffb565b909155505060408051868152602081018690526001600160a01b03808916928a821692918616917fc3d58168c5ae7397731d063d5bbf3d657854427343f4c083240f7aacaa2d0f62910160405180910390a461282c828888888888612fee565b50505050505050565b6001600160a01b038316331480612851575061285183336105d1565b61286d5760405162461bcd60e51b81526004016106e790613d8e565b61130c8383836130b8565b600e60205260009081526040902080546001820154600283015460038401546004850154600586015460068701546007880154600889015460098a0154600a8b01805460ff909b169b999a989997989697959694959394929391926128dc906140b2565b80601f0160208091040260200160405190810160405280929190818152602001828054612908906140b2565b80156129555780601f1061292a57610100808354040283529160200191612955565b820191906000526020600020905b81548152906001019060200180831161293857829003601f168201915b50505050509080600b01805461296a906140b2565b80601f0160208091040260200160405190810160405280929190818152602001828054612996906140b2565b80156129e35780601f106129b8576101008083540402835291602001916129e3565b820191906000526020600020905b8154815290600101906020018083116129c657829003601f168201915b505050505090508c565b60006129f98284614035565b9392505050565b60006129f98284614013565b6001600160a01b038416612a6c5760405162461bcd60e51b815260206004820152602160248201527f455243313135353a206d696e7420746f20746865207a65726f206164647265736044820152607360f81b60648201526084016106e7565b33612a7d8160008761273588612fa3565b6000848152602081815260408083206001600160a01b038916845290915281208054859290612aad908490613ffb565b909155505060408051858152602081018590526001600160a01b0380881692600092918516917fc3d58168c5ae7397731d063d5bbf3d657854427343f4c083240f7aacaa2d0f62910160405180910390a461273e81600087878787612fee565b60006129f98284614054565b6001600160a01b0384163b156112de5760405163bc197c8160e01b81526001600160a01b0385169063bc197c8190612b5d9089908990889088908890600401613b8e565b602060405180830381600087803b158015612b7757600080fd5b505af1925050508015612ba7575060408051601f3d908101601f19168201909252612ba49181019061398d565b60015b612c5457612bb3614177565b806308c379a01415612bed5750612bc8614193565b80612bd35750612bef565b8060405162461bcd60e51b81526004016106e79190613cef565b505b60405162461bcd60e51b815260206004820152603460248201527f455243313135353a207472616e7366657220746f206e6f6e20455243313135356044820152732932b1b2b4bb32b91034b6b83632b6b2b73a32b960611b60648201526084016106e7565b6001600160e01b0319811663bc197c8160e01b1461282c5760405162461bcd60e51b81526004016106e790613d02565b612c8e8282611b5a565b61142d57612ca6816001600160a01b031660146131c2565b612cb18360206131c2565b604051602001612cc2929190613b19565b60408051601f198184030181529082905262461bcd60e51b82526106e791600401613cef565b612cf28282611b5a565b61142d5760008281526003602090815260408083206001600160a01b03851684529091529020805460ff19166001179055612d2a3390565b6001600160a01b0316816001600160a01b0316837f2f8788117e7eff1d82e926ec794901d17c78024a50270940304540a733656f0d60405160405180910390a45050565b612d788282611b5a565b1561142d5760008281526003602090815260408083206001600160a01b0385168085529252808320805460ff1916905551339285917ff6391f5c32d9c69d2a47ea670b442974b53935d1edc7fd64eb21e047a839171b9190a45050565b61142d8282604051602401612deb929190613f6d565b60408051601f198184030181529190526020810180516001600160e01b031663643fd0df60e01b17905261335e565b6001600160a01b038316612e405760405162461bcd60e51b81526004016106e790613e69565b8051825114612e615760405162461bcd60e51b81526004016106e790613f25565b604080516020810190915260009081905233905b8351811015612f44576000848281518110612e9257612e9261414b565b602002602001015190506000848381518110612eb057612eb061414b565b602090810291909101810151600084815280835260408082206001600160a01b038c168352909352919091205490915081811015612f005760405162461bcd60e51b81526004016106e790613d4a565b612f0a8282614054565b6000938452602084815260408086206001600160a01b038c1687529091529093209290925550819050612f3c8161411a565b915050612e75565b5060006001600160a01b0316846001600160a01b0316826001600160a01b03167f4a39dc06d4c0dbc64b70af90fd698a233a518aa5d07e595d983b8c0526c8f7fb8686604051612f95929190613c44565b60405180910390a450505050565b60408051600180825281830190925260609160009190602080830190803683370190505090508281600081518110612fdd57612fdd61414b565b602090810291909101015292915050565b6001600160a01b0384163b156112de5760405163f23a6e6160e01b81526001600160a01b0385169063f23a6e61906130329089908990889088908890600401613bec565b602060405180830381600087803b15801561304c57600080fd5b505af192505050801561307c575060408051601f3d908101601f191682019092526130799181019061398d565b60015b61308857612bb3614177565b6001600160e01b0319811663f23a6e6160e01b1461282c5760405162461bcd60e51b81526004016106e790613d02565b6001600160a01b0383166130de5760405162461bcd60e51b81526004016106e790613e69565b3361310e818560006130ef87612fa3565b6130f887612fa3565b5050604080516020810190915260009052505050565b6000838152602081815260408083206001600160a01b03881684529091529020548281101561314f5760405162461bcd60e51b81526004016106e790613d4a565b6131598382614054565b6000858152602081815260408083206001600160a01b038a811680865291845282852095909555815189815292830188905292938616917fc3d58168c5ae7397731d063d5bbf3d657854427343f4c083240f7aacaa2d0f62910160405180910390a45050505050565b606060006131d1836002614035565b6131dc906002613ffb565b67ffffffffffffffff8111156131f4576131f4614161565b6040519080825280601f01601f19166020018201604052801561321e576020820181803683370190505b509050600360fc1b816000815181106132395761323961414b565b60200101906001600160f81b031916908160001a905350600f60fb1b816001815181106132685761326861414b565b60200101906001600160f81b031916908160001a905350600061328c846002614035565b613297906001613ffb565b90505b600181111561330f576f181899199a1a9b1b9c1cb0b131b232b360811b85600f16601081106132cb576132cb61414b565b1a60f81b8282815181106132e1576132e161414b565b60200101906001600160f81b031916908160001a90535060049490941c936133088161409b565b905061329a565b5083156129f95760405162461bcd60e51b815260206004820181905260248201527f537472696e67733a20686578206c656e67746820696e73756666696369656e7460448201526064016106e7565b80516a636f6e736f6c652e6c6f67602083016000808483855afa5050505050565b508054600082559060005260206000209081019061339d9190613479565b50565b8280546133ac906140b2565b90600052602060002090601f0160209004810192826133ce5760008555613414565b82601f106133e757805160ff1916838001178555613414565b82800160010185558215613414579182015b828111156134145782518255916020019190600101906133f9565b50613420929150613479565b5090565b828054828255906000526020600020908101928215613414579160200282015b8281111561341457825182546001600160a01b0319166001600160a01b03909116178255602090920191600190910190613444565b5b80821115613420576000815560010161347a565b80356001600160a01b03811681146134a557600080fd5b919050565b600082601f8301126134bb57600080fd5b813560206134c882613fd7565b6040516134d582826140ed565b8381528281019150858301600585901b870184018810156134f557600080fd5b60005b8581101561351b576135098261348e565b845292840192908401906001016134f8565b5090979650505050505050565b600082601f83011261353957600080fd5b8135602061354682613fd7565b60405161355382826140ed565b8381528281019150858301600585901b8701840188101561357357600080fd5b60005b8581101561351b57813584529284019290840190600101613576565b80356134a58161421d565b600082601f8301126135ae57600080fd5b813567ffffffffffffffff8111156135c8576135c8614161565b6040516135df601f8301601f1916602001826140ed565b8181528460208386010111156135f457600080fd5b816020850160208301376000918101602001919091529392505050565b60006020828403121561362357600080fd5b6129f98261348e565b6000806040838503121561363f57600080fd5b6136488361348e565b91506136566020840161348e565b90509250929050565b600080600080600060a0868803121561367757600080fd5b6136808661348e565b945061368e6020870161348e565b9350604086013567ffffffffffffffff808211156136ab57600080fd5b6136b789838a01613528565b945060608801359150808211156136cd57600080fd5b6136d989838a01613528565b935060808801359150808211156136ef57600080fd5b506136fc8882890161359d565b9150509295509295909350565b600080600080600060a0868803121561372157600080fd5b61372a8661348e565b94506137386020870161348e565b93506040860135925060608601359150608086013567ffffffffffffffff81111561376257600080fd5b6136fc8882890161359d565b60008060006060848603121561378357600080fd5b61378c8461348e565b9250602084013567ffffffffffffffff808211156137a957600080fd5b6137b587838801613528565b935060408601359150808211156137cb57600080fd5b506137d886828701613528565b9150509250925092565b600080604083850312156137f557600080fd5b6137fe8361348e565b9150602083013561380e8161421d565b809150509250929050565b6000806040838503121561382c57600080fd5b6138358361348e565b946020939093013593505050565b60008060006060848603121561385857600080fd5b6138618461348e565b95602085013595506040909401359392505050565b60006020828403121561388857600080fd5b813567ffffffffffffffff81111561389f57600080fd5b6138ab848285016134aa565b949350505050565b600080604083850312156138c657600080fd5b823567ffffffffffffffff808211156138de57600080fd5b6138ea868387016134aa565b9350602085013591508082111561390057600080fd5b5061390d85828601613528565b9150509250929050565b60006020828403121561392957600080fd5b81516129f98161421d565b60006020828403121561394657600080fd5b5035919050565b6000806040838503121561396057600080fd5b823591506136566020840161348e565b60006020828403121561398257600080fd5b81356129f98161422b565b60006020828403121561399f57600080fd5b81516129f98161422b565b6000806000806000806000806000806101408b8d0312156139ca57600080fd5b8a35995060208b013567ffffffffffffffff808211156139e957600080fd5b6139f58e838f0161359d565b9a50613a0360408e01613592565b995060608d0135985060808d0135975060a08d0135965060c08d0135955060e08d013594506101008d013593506101208d0135915080821115613a4557600080fd5b50613a528d828e0161359d565b9150509295989b9194979a5092959850565b60008060408385031215613a7757600080fd5b50508035926020909101359150565b600080600060608486031215613a9b57600080fd5b505081359360208301359350604090920135919050565b600081518084526020808501945080840160005b83811015613ae257815187529582019590820190600101613ac6565b509495945050505050565b60008151808452613b0581602086016020860161406b565b601f01601f19169290920160200192915050565b7f416363657373436f6e74726f6c3a206163636f756e7420000000000000000000815260008351613b5181601785016020880161406b565b7001034b99036b4b9b9b4b733903937b6329607d1b6017918401918201528351613b8281602884016020880161406b565b01602801949350505050565b6001600160a01b0386811682528516602082015260a060408201819052600090613bba90830186613ab2565b8281036060840152613bcc8186613ab2565b90508281036080840152613be08185613aed565b98975050505050505050565b6001600160a01b03868116825285166020820152604081018490526060810183905260a060808201819052600090613c2690830184613aed565b979650505050505050565b6020815260006129f96020830184613ab2565b604081526000613c576040830185613ab2565b8281036020840152613c698185613ab2565b95945050505050565b60006101808e151583528d60208401528c60408401528b60608401528a60808401528960a08401528860c08401528760e0840152866101008401528561012084015280610140840152613cc781840186613aed565b9050828103610160840152613cdc8185613aed565b9f9e505050505050505050505050505050565b6020815260006129f96020830184613aed565b60208082526028908201527f455243313135353a204552433131353552656365697665722072656a656374656040820152676420746f6b656e7360c01b606082015260800190565b60208082526024908201527f455243313135353a206275726e20616d6f756e7420657863656564732062616c604082015263616e636560e01b606082015260800190565b60208082526029908201527f455243313135353a2063616c6c6572206973206e6f74206f776e6572206e6f7260408201526808185c1c1c9bdd995960ba1b606082015260800190565b6020808252602d908201527f5468657265206973206e6f7420656e6f75676820616d6f756e7420696e20746860408201526c34b99031b7b63632b1ba34b7b760991b606082015260800190565b60208082526025908201527f455243313135353a207472616e7366657220746f20746865207a65726f206164604082015264647265737360d81b606082015260800190565b60208082526023908201527f455243313135353a206275726e2066726f6d20746865207a65726f206164647260408201526265737360e81b606082015260800190565b6020808252602a908201527f455243313135353a20696e73756666696369656e742062616c616e636520666f60408201526939103a3930b739b332b960b11b606082015260800190565b6020808252601590820152744f6e6c79206f776e65722063616e2061636365737360581b604082015260600190565b60208082526028908201527f455243313135353a2069647320616e6420616d6f756e7473206c656e677468206040820152670dad2e6dac2e8c6d60c31b606082015260800190565b8281526040602082015260006138ab6040830184613aed565b87815286602082015285604082015284606082015283608082015260e060a08201526000613fb760e0830185613aed565b82810360c0840152613fc98185613aed565b9a9950505050505050505050565b600067ffffffffffffffff821115613ff157613ff1614161565b5060051b60200190565b6000821982111561400e5761400e614135565b500190565b60008261403057634e487b7160e01b600052601260045260246000fd5b500490565b600081600019048311821515161561404f5761404f614135565b500290565b60008282101561406657614066614135565b500390565b60005b8381101561408657818101518382015260200161406e565b83811115614095576000848401525b50505050565b6000816140aa576140aa614135565b506000190190565b600181811c908216806140c657607f821691505b602082108114156140e757634e487b7160e01b600052602260045260246000fd5b50919050565b601f8201601f1916810167ffffffffffffffff8111828210171561411357614113614161565b6040525050565b600060001982141561412e5761412e614135565b5060010190565b634e487b7160e01b600052601160045260246000fd5b634e487b7160e01b600052603260045260246000fd5b634e487b7160e01b600052604160045260246000fd5b600060033d11156141905760046000803e5060005160e01c5b90565b600060443d10156141a15790565b6040516003193d81016004833e81513d67ffffffffffffffff81602484011181841117156141d157505050505090565b82850191508151818111156141e95750505050505090565b843d87010160208285010111156142035750505050505090565b614212602082860101876140ed565b509095945050505050565b801515811461339d57600080fd5b6001600160e01b03198116811461339d57600080fdfea26469706673582212208540c463172a9b01a952c9a02ac1bf5360ee7273953f68f76b3c23dcc586b9a864736f6c63430008070033",
  "devdoc": {
    "kind": "dev",
    "methods": {
      "balanceOf(address,uint256)": {
        "details": "See {IERC1155-balanceOf}. Requirements: - `account` cannot be the zero address."
      },
      "balanceOfBatch(address[],uint256[])": {
        "details": "See {IERC1155-balanceOfBatch}. Requirements: - `accounts` and `ids` must have the same length."
      },
      "burnIt(uint256,uint256)": {
        "details": "user burns his NFTs"
      },
      "createCollection(uint256,string,bool,uint256,uint256,uint256,uint256,uint256,uint256,string)": {
        "details": "admin create collections without upload ipfs"
      },
      "getRoleAdmin(bytes32)": {
        "details": "Returns the admin role that controls `role`. See {grantRole} and {revokeRole}. To change a role's admin, use {_setRoleAdmin}."
      },
      "grantRole(bytes32,address)": {
        "details": "Grants `role` to `account`. If `account` had not been already granted `role`, emits a {RoleGranted} event. Requirements: - the caller must have ``role``'s admin role."
      },
      "hasRole(bytes32,address)": {
        "details": "Returns `true` if `account` has been granted `role`."
      },
      "isApprovedForAll(address,address)": {
        "details": "See {IERC1155-isApprovedForAll}."
      },
      "renounceRole(bytes32,address)": {
        "details": "Revokes `role` from the calling account. Roles are often managed via {grantRole} and {revokeRole}: this function's purpose is to provide a mechanism for accounts to lose their privileges if they are compromised (such as when a trusted device is misplaced). If the calling account had been granted `role`, emits a {RoleRevoked} event. Requirements: - the caller must be `account`."
      },
      "revokeRole(bytes32,address)": {
        "details": "Revokes `role` from `account`. If `account` had been granted `role`, emits a {RoleRevoked} event. Requirements: - the caller must have ``role``'s admin role."
      },
      "safeBatchTransferFrom(address,address,uint256[],uint256[],bytes)": {
        "details": "See {IERC1155-safeBatchTransferFrom}."
      },
      "safeTransferFrom(address,address,uint256,uint256,bytes)": {
        "details": "See {IERC1155-safeTransferFrom}."
      },
      "setApprovalForAll(address,bool)": {
        "details": "See {IERC1155-setApprovalForAll}."
      },
      "supportsInterface(bytes4)": {
        "details": "See {IERC165-supportsInterface}."
      },
      "uri(uint256)": {
        "details": "See {IERC1155MetadataURI-uri}. This implementation returns the same URI for *all* token types. It relies on the token type ID substitution mechanism https://eips.ethereum.org/EIPS/eip-1155#metadata[defined in the EIP]. Clients calling this function must replace the `\\{id\\}` substring with the actual token type ID."
      }
    },
    "version": 1
  },
  "userdoc": {
    "kind": "user",
    "methods": {
      "addExternalBuy(address,uint256,uint256)": {
        "notice": "add a buy from other payment "
      },
      "addWhitelist(address[])": {
        "notice": "ONLY OWNER FUNCTIONS"
      },
      "changeUSDTaddress(address)": {
        "notice": "Change usdt address"
      },
      "getNFTByColleccion(uint256)": {
        "notice": "VIEW FUNCTIONS"
      },
      "howManyNFTs(uint256,address)": {
        "notice": "PUBLIC FUNCTIONS"
      }
    },
    "version": 1
  },
  "storageLayout": {
    "storage": [
      {
        "astId": 411,
        "contract": "contracts/Criptonix.sol:Criptonix",
        "label": "_balances",
        "offset": 0,
        "slot": "0",
        "type": "t_mapping(t_uint256,t_mapping(t_address,t_uint256))"
      },
      {
        "astId": 417,
        "contract": "contracts/Criptonix.sol:Criptonix",
        "label": "_operatorApprovals",
        "offset": 0,
        "slot": "1",
        "type": "t_mapping(t_address,t_mapping(t_address,t_bool))"
      },
      {
        "astId": 419,
        "contract": "contracts/Criptonix.sol:Criptonix",
        "label": "_uri",
        "offset": 0,
        "slot": "2",
        "type": "t_string_storage"
      },
      {
        "astId": 62,
        "contract": "contracts/Criptonix.sol:Criptonix",
        "label": "_roles",
        "offset": 0,
        "slot": "3",
        "type": "t_mapping(t_bytes32,t_struct(RoleData)57_storage)"
      },
      {
        "astId": 356,
        "contract": "contracts/Criptonix.sol:Criptonix",
        "label": "_status",
        "offset": 0,
        "slot": "4",
        "type": "t_uint256"
      },
      {
        "astId": 3134,
        "contract": "contracts/Criptonix.sol:Criptonix",
        "label": "_baseUri",
        "offset": 0,
        "slot": "5",
        "type": "t_string_storage"
      },
      {
        "astId": 3136,
        "contract": "contracts/Criptonix.sol:Criptonix",
        "label": "_contractUri",
        "offset": 0,
        "slot": "6",
        "type": "t_string_storage"
      },
      {
        "astId": 3139,
        "contract": "contracts/Criptonix.sol:Criptonix",
        "label": "idCollection",
        "offset": 0,
        "slot": "7",
        "type": "t_uint256"
      },
      {
        "astId": 3142,
        "contract": "contracts/Criptonix.sol:Criptonix",
        "label": "nftId",
        "offset": 0,
        "slot": "8",
        "type": "t_uint256"
      },
      {
        "astId": 3144,
        "contract": "contracts/Criptonix.sol:Criptonix",
        "label": "USDTAddress",
        "offset": 0,
        "slot": "9",
        "type": "t_address"
      },
      {
        "astId": 3146,
        "contract": "contracts/Criptonix.sol:Criptonix",
        "label": "recipient",
        "offset": 0,
        "slot": "10",
        "type": "t_address"
      },
      {
        "astId": 3149,
        "contract": "contracts/Criptonix.sol:Criptonix",
        "label": "whitelistArr",
        "offset": 0,
        "slot": "11",
        "type": "t_array(t_address)dyn_storage"
      },
      {
        "astId": 3199,
        "contract": "contracts/Criptonix.sol:Criptonix",
        "label": "ipfsHashes",
        "offset": 0,
        "slot": "12",
        "type": "t_mapping(t_uint256,t_string_storage)"
      },
      {
        "astId": 3204,
        "contract": "contracts/Criptonix.sol:Criptonix",
        "label": "tokenDatas",
        "offset": 0,
        "slot": "13",
        "type": "t_mapping(t_uint256,t_struct(tokenData)3156_storage)"
      },
      {
        "astId": 3209,
        "contract": "contracts/Criptonix.sol:Criptonix",
        "label": "collections",
        "offset": 0,
        "slot": "14",
        "type": "t_mapping(t_uint256,t_struct(Collection)3181_storage)"
      },
      {
        "astId": 3213,
        "contract": "contracts/Criptonix.sol:Criptonix",
        "label": "whitelisted",
        "offset": 0,
        "slot": "15",
        "type": "t_mapping(t_address,t_bool)"
      },
      {
        "astId": 3218,
        "contract": "contracts/Criptonix.sol:Criptonix",
        "label": "nftsOfCollection",
        "offset": 0,
        "slot": "16",
        "type": "t_mapping(t_uint256,t_array(t_uint256)dyn_storage)"
      },
      {
        "astId": 3223,
        "contract": "contracts/Criptonix.sol:Criptonix",
        "label": "userInfo",
        "offset": 0,
        "slot": "17",
        "type": "t_mapping(t_address,t_struct(User)3192_storage)"
      }
    ],
    "types": {
      "t_address": {
        "encoding": "inplace",
        "label": "address",
        "numberOfBytes": "20"
      },
      "t_array(t_address)dyn_storage": {
        "base": "t_address",
        "encoding": "dynamic_array",
        "label": "address[]",
        "numberOfBytes": "32"
      },
      "t_array(t_uint256)dyn_storage": {
        "base": "t_uint256",
        "encoding": "dynamic_array",
        "label": "uint256[]",
        "numberOfBytes": "32"
      },
      "t_bool": {
        "encoding": "inplace",
        "label": "bool",
        "numberOfBytes": "1"
      },
      "t_bytes32": {
        "encoding": "inplace",
        "label": "bytes32",
        "numberOfBytes": "32"
      },
      "t_mapping(t_address,t_bool)": {
        "encoding": "mapping",
        "key": "t_address",
        "label": "mapping(address => bool)",
        "numberOfBytes": "32",
        "value": "t_bool"
      },
      "t_mapping(t_address,t_mapping(t_address,t_bool))": {
        "encoding": "mapping",
        "key": "t_address",
        "label": "mapping(address => mapping(address => bool))",
        "numberOfBytes": "32",
        "value": "t_mapping(t_address,t_bool)"
      },
      "t_mapping(t_address,t_struct(User)3192_storage)": {
        "encoding": "mapping",
        "key": "t_address",
        "label": "mapping(address => struct Criptonix.User)",
        "numberOfBytes": "32",
        "value": "t_struct(User)3192_storage"
      },
      "t_mapping(t_address,t_uint256)": {
        "encoding": "mapping",
        "key": "t_address",
        "label": "mapping(address => uint256)",
        "numberOfBytes": "32",
        "value": "t_uint256"
      },
      "t_mapping(t_bytes32,t_struct(RoleData)57_storage)": {
        "encoding": "mapping",
        "key": "t_bytes32",
        "label": "mapping(bytes32 => struct AccessControl.RoleData)",
        "numberOfBytes": "32",
        "value": "t_struct(RoleData)57_storage"
      },
      "t_mapping(t_uint256,t_array(t_uint256)dyn_storage)": {
        "encoding": "mapping",
        "key": "t_uint256",
        "label": "mapping(uint256 => uint256[])",
        "numberOfBytes": "32",
        "value": "t_array(t_uint256)dyn_storage"
      },
      "t_mapping(t_uint256,t_mapping(t_address,t_uint256))": {
        "encoding": "mapping",
        "key": "t_uint256",
        "label": "mapping(uint256 => mapping(address => uint256))",
        "numberOfBytes": "32",
        "value": "t_mapping(t_address,t_uint256)"
      },
      "t_mapping(t_uint256,t_string_storage)": {
        "encoding": "mapping",
        "key": "t_uint256",
        "label": "mapping(uint256 => string)",
        "numberOfBytes": "32",
        "value": "t_string_storage"
      },
      "t_mapping(t_uint256,t_struct(Collection)3181_storage)": {
        "encoding": "mapping",
        "key": "t_uint256",
        "label": "mapping(uint256 => struct Criptonix.Collection)",
        "numberOfBytes": "32",
        "value": "t_struct(Collection)3181_storage"
      },
      "t_mapping(t_uint256,t_struct(tokenData)3156_storage)": {
        "encoding": "mapping",
        "key": "t_uint256",
        "label": "mapping(uint256 => struct Criptonix.tokenData)",
        "numberOfBytes": "32",
        "value": "t_struct(tokenData)3156_storage"
      },
      "t_mapping(t_uint256,t_uint256)": {
        "encoding": "mapping",
        "key": "t_uint256",
        "label": "mapping(uint256 => uint256)",
        "numberOfBytes": "32",
        "value": "t_uint256"
      },
      "t_string_storage": {
        "encoding": "bytes",
        "label": "string",
        "numberOfBytes": "32"
      },
      "t_struct(Collection)3181_storage": {
        "encoding": "inplace",
        "label": "struct Criptonix.Collection",
        "members": [
          {
            "astId": 3158,
            "contract": "contracts/Criptonix.sol:Criptonix",
            "label": "isPublic",
            "offset": 0,
            "slot": "0",
            "type": "t_bool"
          },
          {
            "astId": 3160,
            "contract": "contracts/Criptonix.sol:Criptonix",
            "label": "madurationStartedAt",
            "offset": 0,
            "slot": "1",
            "type": "t_uint256"
          },
          {
            "astId": 3162,
            "contract": "contracts/Criptonix.sol:Criptonix",
            "label": "remainAmountToSell",
            "offset": 0,
            "slot": "2",
            "type": "t_uint256"
          },
          {
            "astId": 3164,
            "contract": "contracts/Criptonix.sol:Criptonix",
            "label": "TH",
            "offset": 0,
            "slot": "3",
            "type": "t_uint256"
          },
          {
            "astId": 3166,
            "contract": "contracts/Criptonix.sol:Criptonix",
            "label": "price",
            "offset": 0,
            "slot": "4",
            "type": "t_uint256"
          },
          {
            "astId": 3168,
            "contract": "contracts/Criptonix.sol:Criptonix",
            "label": "madurityTime",
            "offset": 0,
            "slot": "5",
            "type": "t_uint256"
          },
          {
            "astId": 3170,
            "contract": "contracts/Criptonix.sol:Criptonix",
            "label": "tokenLife",
            "offset": 0,
            "slot": "6",
            "type": "t_uint256"
          },
          {
            "astId": 3172,
            "contract": "contracts/Criptonix.sol:Criptonix",
            "label": "amount",
            "offset": 0,
            "slot": "7",
            "type": "t_uint256"
          },
          {
            "astId": 3174,
            "contract": "contracts/Criptonix.sol:Criptonix",
            "label": "amountToStartMaduration",
            "offset": 0,
            "slot": "8",
            "type": "t_uint256"
          },
          {
            "astId": 3176,
            "contract": "contracts/Criptonix.sol:Criptonix",
            "label": "energyCost",
            "offset": 0,
            "slot": "9",
            "type": "t_uint256"
          },
          {
            "astId": 3178,
            "contract": "contracts/Criptonix.sol:Criptonix",
            "label": "description",
            "offset": 0,
            "slot": "10",
            "type": "t_string_storage"
          },
          {
            "astId": 3180,
            "contract": "contracts/Criptonix.sol:Criptonix",
            "label": "ipfsHash",
            "offset": 0,
            "slot": "11",
            "type": "t_string_storage"
          }
        ],
        "numberOfBytes": "384"
      },
      "t_struct(RoleData)57_storage": {
        "encoding": "inplace",
        "label": "struct AccessControl.RoleData",
        "members": [
          {
            "astId": 54,
            "contract": "contracts/Criptonix.sol:Criptonix",
            "label": "members",
            "offset": 0,
            "slot": "0",
            "type": "t_mapping(t_address,t_bool)"
          },
          {
            "astId": 56,
            "contract": "contracts/Criptonix.sol:Criptonix",
            "label": "adminRole",
            "offset": 0,
            "slot": "1",
            "type": "t_bytes32"
          }
        ],
        "numberOfBytes": "64"
      },
      "t_struct(User)3192_storage": {
        "encoding": "inplace",
        "label": "struct Criptonix.User",
        "members": [
          {
            "astId": 3184,
            "contract": "contracts/Criptonix.sol:Criptonix",
            "label": "idsForUser",
            "offset": 0,
            "slot": "0",
            "type": "t_array(t_uint256)dyn_storage"
          },
          {
            "astId": 3187,
            "contract": "contracts/Criptonix.sol:Criptonix",
            "label": "rewardsAlreadyPaid",
            "offset": 0,
            "slot": "1",
            "type": "t_array(t_uint256)dyn_storage"
          },
          {
            "astId": 3191,
            "contract": "contracts/Criptonix.sol:Criptonix",
            "label": "daysPerReward",
            "offset": 0,
            "slot": "2",
            "type": "t_mapping(t_uint256,t_uint256)"
          }
        ],
        "numberOfBytes": "96"
      },
      "t_struct(tokenData)3156_storage": {
        "encoding": "inplace",
        "label": "struct Criptonix.tokenData",
        "members": [
          {
            "astId": 3151,
            "contract": "contracts/Criptonix.sol:Criptonix",
            "label": "creator",
            "offset": 0,
            "slot": "0",
            "type": "t_address"
          },
          {
            "astId": 3153,
            "contract": "contracts/Criptonix.sol:Criptonix",
            "label": "idCollection",
            "offset": 0,
            "slot": "1",
            "type": "t_uint256"
          },
          {
            "astId": 3155,
            "contract": "contracts/Criptonix.sol:Criptonix",
            "label": "born",
            "offset": 0,
            "slot": "2",
            "type": "t_uint256"
          }
        ],
        "numberOfBytes": "96"
      },
      "t_uint256": {
        "encoding": "inplace",
        "label": "uint256",
        "numberOfBytes": "32"
      }
    }
  }
}