{
  "address": "0x54665D3BCB3D9268b2AB6f4b99e795B5E405897D",
  "abi": [
    {
      "inputs": [
        {
          "internalType": "string",
          "name": "contractUri",
          "type": "string"
        },
        {
          "internalType": "address",
          "name": "_USDTAddress",
          "type": "address"
        },
        {
          "internalType": "address",
          "name": "_recipient",
          "type": "address"
        }
      ],
      "stateMutability": "nonpayable",
      "type": "constructor"
    },
    {
      "anonymous": false,
      "inputs": [
        {
          "indexed": true,
          "internalType": "address",
          "name": "account",
          "type": "address"
        },
        {
          "indexed": true,
          "internalType": "address",
          "name": "operator",
          "type": "address"
        },
        {
          "indexed": false,
          "internalType": "bool",
          "name": "approved",
          "type": "bool"
        }
      ],
      "name": "ApprovalForAll",
      "type": "event"
    },
    {
      "anonymous": false,
      "inputs": [
        {
          "indexed": false,
          "internalType": "address",
          "name": "creator",
          "type": "address"
        },
        {
          "indexed": false,
          "internalType": "uint256",
          "name": "amount",
          "type": "uint256"
        },
        {
          "indexed": false,
          "internalType": "uint256",
          "name": "id",
          "type": "uint256"
        }
      ],
      "name": "BurnNFT",
      "type": "event"
    },
    {
      "anonymous": false,
      "inputs": [
        {
          "indexed": false,
          "internalType": "uint256",
          "name": "price",
          "type": "uint256"
        },
        {
          "indexed": false,
          "internalType": "uint256",
          "name": "madurityTime",
          "type": "uint256"
        },
        {
          "indexed": false,
          "internalType": "uint256",
          "name": "tokenLife",
          "type": "uint256"
        },
        {
          "indexed": false,
          "internalType": "uint256",
          "name": "amount",
          "type": "uint256"
        },
        {
          "indexed": false,
          "internalType": "uint256",
          "name": "energyCost",
          "type": "uint256"
        },
        {
          "indexed": false,
          "internalType": "string",
          "name": "description",
          "type": "string"
        },
        {
          "indexed": false,
          "internalType": "string",
          "name": "ipfsHash",
          "type": "string"
        }
      ],
      "name": "CollectionCreated",
      "type": "event"
    },
    {
      "anonymous": false,
      "inputs": [
        {
          "indexed": false,
          "internalType": "address",
          "name": "creator",
          "type": "address"
        },
        {
          "indexed": false,
          "internalType": "uint256",
          "name": "amount",
          "type": "uint256"
        },
        {
          "indexed": false,
          "internalType": "uint256",
          "name": "id",
          "type": "uint256"
        }
      ],
      "name": "NewNFT",
      "type": "event"
    },
    {
      "anonymous": false,
      "inputs": [
        {
          "indexed": false,
          "internalType": "uint256",
          "name": "amount",
          "type": "uint256"
        },
        {
          "indexed": false,
          "internalType": "uint256",
          "name": "born",
          "type": "uint256"
        }
      ],
      "name": "Purchased",
      "type": "event"
    },
    {
      "anonymous": false,
      "inputs": [
        {
          "indexed": true,
          "internalType": "bytes32",
          "name": "role",
          "type": "bytes32"
        },
        {
          "indexed": true,
          "internalType": "bytes32",
          "name": "previousAdminRole",
          "type": "bytes32"
        },
        {
          "indexed": true,
          "internalType": "bytes32",
          "name": "newAdminRole",
          "type": "bytes32"
        }
      ],
      "name": "RoleAdminChanged",
      "type": "event"
    },
    {
      "anonymous": false,
      "inputs": [
        {
          "indexed": true,
          "internalType": "bytes32",
          "name": "role",
          "type": "bytes32"
        },
        {
          "indexed": true,
          "internalType": "address",
          "name": "account",
          "type": "address"
        },
        {
          "indexed": true,
          "internalType": "address",
          "name": "sender",
          "type": "address"
        }
      ],
      "name": "RoleGranted",
      "type": "event"
    },
    {
      "anonymous": false,
      "inputs": [
        {
          "indexed": true,
          "internalType": "bytes32",
          "name": "role",
          "type": "bytes32"
        },
        {
          "indexed": true,
          "internalType": "address",
          "name": "account",
          "type": "address"
        },
        {
          "indexed": true,
          "internalType": "address",
          "name": "sender",
          "type": "address"
        }
      ],
      "name": "RoleRevoked",
      "type": "event"
    },
    {
      "anonymous": false,
      "inputs": [
        {
          "indexed": true,
          "internalType": "address",
          "name": "operator",
          "type": "address"
        },
        {
          "indexed": true,
          "internalType": "address",
          "name": "from",
          "type": "address"
        },
        {
          "indexed": true,
          "internalType": "address",
          "name": "to",
          "type": "address"
        },
        {
          "indexed": false,
          "internalType": "uint256[]",
          "name": "ids",
          "type": "uint256[]"
        },
        {
          "indexed": false,
          "internalType": "uint256[]",
          "name": "values",
          "type": "uint256[]"
        }
      ],
      "name": "TransferBatch",
      "type": "event"
    },
    {
      "anonymous": false,
      "inputs": [
        {
          "indexed": true,
          "internalType": "address",
          "name": "operator",
          "type": "address"
        },
        {
          "indexed": true,
          "internalType": "address",
          "name": "from",
          "type": "address"
        },
        {
          "indexed": true,
          "internalType": "address",
          "name": "to",
          "type": "address"
        },
        {
          "indexed": false,
          "internalType": "uint256",
          "name": "id",
          "type": "uint256"
        },
        {
          "indexed": false,
          "internalType": "uint256",
          "name": "value",
          "type": "uint256"
        }
      ],
      "name": "TransferSingle",
      "type": "event"
    },
    {
      "anonymous": false,
      "inputs": [
        {
          "indexed": false,
          "internalType": "string",
          "name": "value",
          "type": "string"
        },
        {
          "indexed": true,
          "internalType": "uint256",
          "name": "id",
          "type": "uint256"
        }
      ],
      "name": "URI",
      "type": "event"
    },
    {
      "anonymous": false,
      "inputs": [
        {
          "indexed": false,
          "internalType": "uint256",
          "name": "rewardId",
          "type": "uint256"
        },
        {
          "indexed": false,
          "internalType": "address",
          "name": "user",
          "type": "address"
        }
      ],
      "name": "rewardPaid",
      "type": "event"
    },
    {
      "inputs": [],
      "name": "DEFAULT_ADMIN_ROLE",
      "outputs": [
        {
          "internalType": "bytes32",
          "name": "",
          "type": "bytes32"
        }
      ],
      "stateMutability": "view",
      "type": "function"
    },
    {
      "inputs": [],
      "name": "USDTAddress",
      "outputs": [
        {
          "internalType": "address",
          "name": "",
          "type": "address"
        }
      ],
      "stateMutability": "view",
      "type": "function"
    },
    {
      "inputs": [
        {
          "internalType": "address",
          "name": "_userAddress",
          "type": "address"
        },
        {
          "internalType": "uint256",
          "name": "_amount",
          "type": "uint256"
        },
        {
          "internalType": "uint256",
          "name": "_collectionID",
          "type": "uint256"
        }
      ],
      "name": "addExternalBuy",
      "outputs": [],
      "stateMutability": "nonpayable",
      "type": "function"
    },
    {
      "inputs": [
        {
          "internalType": "address[]",
          "name": "_accounts",
          "type": "address[]"
        }
      ],
      "name": "addWhitelist",
      "outputs": [],
      "stateMutability": "nonpayable",
      "type": "function"
    },
    {
      "inputs": [
        {
          "internalType": "address",
          "name": "account",
          "type": "address"
        },
        {
          "internalType": "uint256",
          "name": "id",
          "type": "uint256"
        }
      ],
      "name": "balanceOf",
      "outputs": [
        {
          "internalType": "uint256",
          "name": "",
          "type": "uint256"
        }
      ],
      "stateMutability": "view",
      "type": "function"
    },
    {
      "inputs": [
        {
          "internalType": "address[]",
          "name": "accounts",
          "type": "address[]"
        },
        {
          "internalType": "uint256[]",
          "name": "ids",
          "type": "uint256[]"
        }
      ],
      "name": "balanceOfBatch",
      "outputs": [
        {
          "internalType": "uint256[]",
          "name": "",
          "type": "uint256[]"
        }
      ],
      "stateMutability": "view",
      "type": "function"
    },
    {
      "inputs": [
        {
          "internalType": "address",
          "name": "account",
          "type": "address"
        },
        {
          "internalType": "uint256",
          "name": "id",
          "type": "uint256"
        },
        {
          "internalType": "uint256",
          "name": "value",
          "type": "uint256"
        }
      ],
      "name": "burn",
      "outputs": [],
      "stateMutability": "nonpayable",
      "type": "function"
    },
    {
      "inputs": [
        {
          "internalType": "address",
          "name": "account",
          "type": "address"
        },
        {
          "internalType": "uint256[]",
          "name": "ids",
          "type": "uint256[]"
        },
        {
          "internalType": "uint256[]",
          "name": "values",
          "type": "uint256[]"
        }
      ],
      "name": "burnBatch",
      "outputs": [],
      "stateMutability": "nonpayable",
      "type": "function"
    },
    {
      "inputs": [
        {
          "internalType": "uint256",
          "name": "tokenId",
          "type": "uint256"
        },
        {
          "internalType": "uint256",
          "name": "amount",
          "type": "uint256"
        }
      ],
      "name": "burnIt",
      "outputs": [],
      "stateMutability": "nonpayable",
      "type": "function"
    },
    {
      "inputs": [
        {
          "internalType": "uint256",
          "name": "_amount",
          "type": "uint256"
        },
        {
          "internalType": "uint256",
          "name": "_collectionID",
          "type": "uint256"
        }
      ],
      "name": "buyToken",
      "outputs": [],
      "stateMutability": "nonpayable",
      "type": "function"
    },
    {
      "inputs": [
        {
          "internalType": "address",
          "name": "_newAddress",
          "type": "address"
        }
      ],
      "name": "changeUSDTaddress",
      "outputs": [],
      "stateMutability": "nonpayable",
      "type": "function"
    },
    {
      "inputs": [
        {
          "internalType": "uint256",
          "name": "",
          "type": "uint256"
        }
      ],
      "name": "collections",
      "outputs": [
        {
          "internalType": "bool",
          "name": "isPublic",
          "type": "bool"
        },
        {
          "internalType": "uint256",
          "name": "madurationStartedAt",
          "type": "uint256"
        },
        {
          "internalType": "uint256",
          "name": "remainAmountToSell",
          "type": "uint256"
        },
        {
          "internalType": "uint256",
          "name": "TH",
          "type": "uint256"
        },
        {
          "internalType": "uint256",
          "name": "price",
          "type": "uint256"
        },
        {
          "internalType": "uint256",
          "name": "madurityTime",
          "type": "uint256"
        },
        {
          "internalType": "uint256",
          "name": "tokenLife",
          "type": "uint256"
        },
        {
          "internalType": "uint256",
          "name": "amount",
          "type": "uint256"
        },
        {
          "internalType": "uint256",
          "name": "amountToStartMaduration",
          "type": "uint256"
        },
        {
          "internalType": "uint256",
          "name": "energyCost",
          "type": "uint256"
        },
        {
          "internalType": "string",
          "name": "description",
          "type": "string"
        },
        {
          "internalType": "string",
          "name": "ipfsHash",
          "type": "string"
        }
      ],
      "stateMutability": "view",
      "type": "function"
    },
    {
      "inputs": [],
      "name": "contractURI",
      "outputs": [
        {
          "internalType": "string",
          "name": "",
          "type": "string"
        }
      ],
      "stateMutability": "view",
      "type": "function"
    },
    {
      "inputs": [
        {
          "internalType": "uint256",
          "name": "_price",
          "type": "uint256"
        },
        {
          "internalType": "string",
          "name": "_description",
          "type": "string"
        },
        {
          "internalType": "bool",
          "name": "_privacy",
          "type": "bool"
        },
        {
          "internalType": "uint256",
          "name": "_TH",
          "type": "uint256"
        },
        {
          "internalType": "uint256",
          "name": "_madurityTime",
          "type": "uint256"
        },
        {
          "internalType": "uint256",
          "name": "_energyCost",
          "type": "uint256"
        },
        {
          "internalType": "uint256",
          "name": "_tokenLife",
          "type": "uint256"
        },
        {
          "internalType": "uint256",
          "name": "_amount",
          "type": "uint256"
        },
        {
          "internalType": "uint256",
          "name": "_amountToStartMaduration",
          "type": "uint256"
        },
        {
          "internalType": "string",
          "name": "_ipfsHash",
          "type": "string"
        }
      ],
      "name": "createCollection",
      "outputs": [],
      "stateMutability": "nonpayable",
      "type": "function"
    },
    {
      "inputs": [
        {
          "internalType": "uint256",
          "name": "collectionID",
          "type": "uint256"
        }
      ],
      "name": "getIpfsHash",
      "outputs": [
        {
          "internalType": "string",
          "name": "",
          "type": "string"
        }
      ],
      "stateMutability": "view",
      "type": "function"
    },
    {
      "inputs": [
        {
          "internalType": "uint256",
          "name": "_id",
          "type": "uint256"
        }
      ],
      "name": "getNFTByColleccion",
      "outputs": [
        {
          "internalType": "uint256[]",
          "name": "",
          "type": "uint256[]"
        }
      ],
      "stateMutability": "view",
      "type": "function"
    },
    {
      "inputs": [
        {
          "internalType": "bytes32",
          "name": "role",
          "type": "bytes32"
        }
      ],
      "name": "getRoleAdmin",
      "outputs": [
        {
          "internalType": "bytes32",
          "name": "",
          "type": "bytes32"
        }
      ],
      "stateMutability": "view",
      "type": "function"
    },
    {
      "inputs": [
        {
          "internalType": "uint256",
          "name": "tokenId",
          "type": "uint256"
        }
      ],
      "name": "getTokenData",
      "outputs": [
        {
          "components": [
            {
              "internalType": "address",
              "name": "creator",
              "type": "address"
            },
            {
              "internalType": "uint256",
              "name": "idCollection",
              "type": "uint256"
            },
            {
              "internalType": "uint256",
              "name": "born",
              "type": "uint256"
            }
          ],
          "internalType": "struct Criptonix.tokenData",
          "name": "",
          "type": "tuple"
        }
      ],
      "stateMutability": "view",
      "type": "function"
    },
    {
      "inputs": [
        {
          "internalType": "address",
          "name": "_account",
          "type": "address"
        }
      ],
      "name": "getUserNftsId",
      "outputs": [
        {
          "internalType": "uint256[]",
          "name": "",
          "type": "uint256[]"
        }
      ],
      "stateMutability": "view",
      "type": "function"
    },
    {
      "inputs": [
        {
          "internalType": "bytes32",
          "name": "role",
          "type": "bytes32"
        },
        {
          "internalType": "address",
          "name": "account",
          "type": "address"
        }
      ],
      "name": "grantRole",
      "outputs": [],
      "stateMutability": "nonpayable",
      "type": "function"
    },
    {
      "inputs": [
        {
          "internalType": "bytes32",
          "name": "role",
          "type": "bytes32"
        },
        {
          "internalType": "address",
          "name": "account",
          "type": "address"
        }
      ],
      "name": "hasRole",
      "outputs": [
        {
          "internalType": "bool",
          "name": "",
          "type": "bool"
        }
      ],
      "stateMutability": "view",
      "type": "function"
    },
    {
      "inputs": [
        {
          "internalType": "uint256",
          "name": "collectionID",
          "type": "uint256"
        },
        {
          "internalType": "address",
          "name": "_userAddress",
          "type": "address"
        }
      ],
      "name": "howManyNFTs",
      "outputs": [
        {
          "internalType": "uint256",
          "name": "",
          "type": "uint256"
        }
      ],
      "stateMutability": "view",
      "type": "function"
    },
    {
      "inputs": [],
      "name": "idCollection",
      "outputs": [
        {
          "internalType": "uint256",
          "name": "",
          "type": "uint256"
        }
      ],
      "stateMutability": "view",
      "type": "function"
    },
    {
      "inputs": [
        {
          "internalType": "address",
          "name": "",
          "type": "address"
        },
        {
          "internalType": "uint256",
          "name": "",
          "type": "uint256"
        }
      ],
      "name": "idsForUser",
      "outputs": [
        {
          "internalType": "uint256",
          "name": "",
          "type": "uint256"
        }
      ],
      "stateMutability": "view",
      "type": "function"
    },
    {
      "inputs": [
        {
          "internalType": "uint256",
          "name": "",
          "type": "uint256"
        }
      ],
      "name": "ipfsHashes",
      "outputs": [
        {
          "internalType": "string",
          "name": "",
          "type": "string"
        }
      ],
      "stateMutability": "view",
      "type": "function"
    },
    {
      "inputs": [
        {
          "internalType": "address",
          "name": "account",
          "type": "address"
        },
        {
          "internalType": "address",
          "name": "operator",
          "type": "address"
        }
      ],
      "name": "isApprovedForAll",
      "outputs": [
        {
          "internalType": "bool",
          "name": "",
          "type": "bool"
        }
      ],
      "stateMutability": "view",
      "type": "function"
    },
    {
      "inputs": [
        {
          "internalType": "uint256",
          "name": "",
          "type": "uint256"
        },
        {
          "internalType": "uint256",
          "name": "",
          "type": "uint256"
        }
      ],
      "name": "nftsOfCollection",
      "outputs": [
        {
          "internalType": "uint256",
          "name": "",
          "type": "uint256"
        }
      ],
      "stateMutability": "view",
      "type": "function"
    },
    {
      "inputs": [
        {
          "internalType": "uint256",
          "name": "rewardID",
          "type": "uint256"
        },
        {
          "internalType": "uint256",
          "name": "collectionID",
          "type": "uint256"
        },
        {
          "internalType": "uint256",
          "name": "amountOfDays",
          "type": "uint256"
        }
      ],
      "name": "payEnergyCost",
      "outputs": [],
      "stateMutability": "nonpayable",
      "type": "function"
    },
    {
      "inputs": [],
      "name": "removeWhitelistedAddress",
      "outputs": [],
      "stateMutability": "nonpayable",
      "type": "function"
    },
    {
      "inputs": [
        {
          "internalType": "bytes32",
          "name": "role",
          "type": "bytes32"
        },
        {
          "internalType": "address",
          "name": "account",
          "type": "address"
        }
      ],
      "name": "renounceRole",
      "outputs": [],
      "stateMutability": "nonpayable",
      "type": "function"
    },
    {
      "inputs": [
        {
          "internalType": "bytes32",
          "name": "role",
          "type": "bytes32"
        },
        {
          "internalType": "address",
          "name": "account",
          "type": "address"
        }
      ],
      "name": "revokeRole",
      "outputs": [],
      "stateMutability": "nonpayable",
      "type": "function"
    },
    {
      "inputs": [
        {
          "internalType": "address",
          "name": "",
          "type": "address"
        },
        {
          "internalType": "uint256",
          "name": "",
          "type": "uint256"
        }
      ],
      "name": "rewardsAlreadyPaid",
      "outputs": [
        {
          "internalType": "uint256",
          "name": "",
          "type": "uint256"
        }
      ],
      "stateMutability": "view",
      "type": "function"
    },
    {
      "inputs": [
        {
          "internalType": "address",
          "name": "_user",
          "type": "address"
        }
      ],
      "name": "rewardsPaid",
      "outputs": [
        {
          "internalType": "uint256[]",
          "name": "",
          "type": "uint256[]"
        }
      ],
      "stateMutability": "view",
      "type": "function"
    },
    {
      "inputs": [
        {
          "internalType": "address",
          "name": "from",
          "type": "address"
        },
        {
          "internalType": "address",
          "name": "to",
          "type": "address"
        },
        {
          "internalType": "uint256[]",
          "name": "ids",
          "type": "uint256[]"
        },
        {
          "internalType": "uint256[]",
          "name": "amounts",
          "type": "uint256[]"
        },
        {
          "internalType": "bytes",
          "name": "data",
          "type": "bytes"
        }
      ],
      "name": "safeBatchTransferFrom",
      "outputs": [],
      "stateMutability": "nonpayable",
      "type": "function"
    },
    {
      "inputs": [
        {
          "internalType": "address",
          "name": "from",
          "type": "address"
        },
        {
          "internalType": "address",
          "name": "to",
          "type": "address"
        },
        {
          "internalType": "uint256",
          "name": "id",
          "type": "uint256"
        },
        {
          "internalType": "uint256",
          "name": "amount",
          "type": "uint256"
        },
        {
          "internalType": "bytes",
          "name": "data",
          "type": "bytes"
        }
      ],
      "name": "safeTransferFrom",
      "outputs": [],
      "stateMutability": "nonpayable",
      "type": "function"
    },
    {
      "inputs": [
        {
          "internalType": "address",
          "name": "operator",
          "type": "address"
        },
        {
          "internalType": "bool",
          "name": "approved",
          "type": "bool"
        }
      ],
      "name": "setApprovalForAll",
      "outputs": [],
      "stateMutability": "nonpayable",
      "type": "function"
    },
    {
      "inputs": [
        {
          "internalType": "bytes4",
          "name": "interfaceId",
          "type": "bytes4"
        }
      ],
      "name": "supportsInterface",
      "outputs": [
        {
          "internalType": "bool",
          "name": "",
          "type": "bool"
        }
      ],
      "stateMutability": "view",
      "type": "function"
    },
    {
      "inputs": [
        {
          "internalType": "uint256",
          "name": "",
          "type": "uint256"
        }
      ],
      "name": "tokenDatas",
      "outputs": [
        {
          "internalType": "address",
          "name": "creator",
          "type": "address"
        },
        {
          "internalType": "uint256",
          "name": "idCollection",
          "type": "uint256"
        },
        {
          "internalType": "uint256",
          "name": "born",
          "type": "uint256"
        }
      ],
      "stateMutability": "view",
      "type": "function"
    },
    {
      "inputs": [
        {
          "internalType": "uint256",
          "name": "",
          "type": "uint256"
        }
      ],
      "name": "uri",
      "outputs": [
        {
          "internalType": "string",
          "name": "",
          "type": "string"
        }
      ],
      "stateMutability": "view",
      "type": "function"
    },
    {
      "inputs": [
        {
          "internalType": "uint256",
          "name": "",
          "type": "uint256"
        }
      ],
      "name": "whitelistArr",
      "outputs": [
        {
          "internalType": "address",
          "name": "",
          "type": "address"
        }
      ],
      "stateMutability": "view",
      "type": "function"
    },
    {
      "inputs": [
        {
          "internalType": "address",
          "name": "",
          "type": "address"
        }
      ],
      "name": "whitelisted",
      "outputs": [
        {
          "internalType": "bool",
          "name": "",
          "type": "bool"
        }
      ],
      "stateMutability": "view",
      "type": "function"
    }
  ],
  "transactionHash": "0x0256963d38749d470f4be9c0adde4cadcd290d41c901573e53e60c1734b2b50f",
  "args": [
    "htttp://",
    "0x32698D37E2f6d00dE3B694246943053493851642",
    "0xd6873602200ED3869205B5E8423020C933022276"
  ],
  "solcInputHash": "d2ef4bf20a8440f00b51d0adfd62351c",
  "bytecode": "0x6080604052600160075560016008553480156200001b57600080fd5b5060405162004688380380620046888339810160408190526200003e9162000292565b604080516020810190915260008152620000588162000109565b5060016004556200006b60003362000122565b60408051808201909152600780825266697066733a2f2f60c81b60209092019182526200009b91600591620001cf565b5082604051602001620000af919062000371565b60405160208183030381529060405260069080519060200190620000d5929190620001cf565b50600980546001600160a01b039384166001600160a01b031991821617909155600a80549290931691161790555062000428565b80516200011e906002906020840190620001cf565b5050565b60008281526003602090815260408083206001600160a01b03851684529091529020546200011e908390839060ff166200011e5760008281526003602090815260408083206001600160a01b03851684529091529020805460ff191660011790556200018b3390565b6001600160a01b0316816001600160a01b0316837f2f8788117e7eff1d82e926ec794901d17c78024a50270940304540a733656f0d60405160405180910390a45050565b828054620001dd90620003d5565b90600052602060002090601f0160209004810192826200020157600085556200024c565b82601f106200021c57805160ff19168380011785556200024c565b828001600101855582156200024c579182015b828111156200024c5782518255916020019190600101906200022f565b506200025a9291506200025e565b5090565b5b808211156200025a57600081556001016200025f565b80516001600160a01b03811681146200028d57600080fd5b919050565b600080600060608486031215620002a857600080fd5b83516001600160401b0380821115620002c057600080fd5b818601915086601f830112620002d557600080fd5b815181811115620002ea57620002ea62000412565b604051601f8201601f19908116603f0116810190838211818310171562000315576200031562000412565b816040528281528960208487010111156200032f57600080fd5b62000342836020830160208801620003a2565b8097505050505050620003586020850162000275565b9150620003686040850162000275565b90509250925092565b66697066733a2f2f60c81b81526000825162000395816007850160208701620003a2565b9190910160070192915050565b60005b83811015620003bf578181015183820152602001620003a5565b83811115620003cf576000848401525b50505050565b600181811c90821680620003ea57607f821691505b602082108114156200040c57634e487b7160e01b600052602260045260246000fd5b50919050565b634e487b7160e01b600052604160045260246000fd5b61425080620004386000396000f3fe608060405234801561001057600080fd5b50600436106102525760003560e01c806391d1485411610146578063d547741f116100c3578063edac985b11610087578063edac985b146105f6578063f242432a14610609578063f5298aca1461061c578063fdbda0ec1461062f578063ff920c741461065a578063ffa9aede1461066d57600080fd5b8063d547741f14610569578063d936547e1461057c578063e70203071461059f578063e8a3d485146105b2578063e985e9c5146105ba57600080fd5b8063b09afec11161010a578063b09afec1146104c7578063b0b8f55314610505578063b6b75c3814610518578063be38341d1461052b578063d450fbc91461055657600080fd5b806391d1485414610473578063a217fddf14610486578063a22cb4651461048e578063a4de2f5c146104a1578063a5527248146104b457600080fd5b80632f2ff15d116101d45780634e1273f4116101985780634e1273f4146103c95780636b20c454146103dc5780636fc37a75146103ef578063700a4a741461044d5780638257ea891461046057600080fd5b80632f2ff15d1461037557806334279b681461038857806336568abe1461039057806336d00a23146103a35780633736e8d9146103b657600080fd5b80630dd572701161021b5780630dd57270146102ec5780630e89341c1461030c578063185de68d1461032c578063248a9ca31461033f5780632eb2c2d61461036257600080fd5b8062fdd58e1461025757806301ffc9a71461027d578063057466ea146102b1578063069f9d97146102c65780630c5e2e12146102d9575b600080fd5b61026a6102653660046137f2565b610676565b6040519081526020015b60405180910390f35b6102a161028b366004613949565b6001600160e01b0319166301ffc9a760e01b1490565b6040519015158152602001610274565b6102c46102bf366004613a3d565b61070d565b005b61026a6102d43660046137f2565b610ccb565b61026a6102e7366004613926565b610cfc565b6102ff6102fa3660046135ea565b610fae565b6040516102749190613c0a565b61031f61031a36600461390d565b61101a565b6040516102749190613cc8565b61026a61033a3660046137f2565b6110a4565b61026a61034d36600461390d565b60009081526003602052604090206001015490565b6102c4610370366004613638565b6110c0565b6102c4610383366004613926565b61132a565b6102c4611355565b6102c461039e366004613926565b6113f7565b6102c46103b1366004613a5f565b611475565b6102c46103c43660046135ea565b611904565b6102ff6103d736600461388c565b61194d565b6102c46103ea366004613747565b611a6a565b6104286103fd36600461390d565b600d602052600090815260409020805460018201546002909201546001600160a01b03909116919083565b604080516001600160a01b039094168452602084019290925290820152606001610274565b6102ff61045b3660046135ea565b611aad565b61026a61046e366004613a3d565b611b17565b6102a1610481366004613926565b611b33565b61026a600081565b6102c461049c3660046137bb565b611b5e565b61031f6104af36600461390d565b611c35565b6102ff6104c236600461390d565b611ccf565b6104da6104d536600461390d565b611d2f565b6040805182516001600160a01b03168152602080840151908201529181015190820152606001610274565b6102c4610513366004613983565b611d9e565b6102c4610526366004613a3d565b611fb6565b61053e61053936600461390d565b61202d565b6040516001600160a01b039091168152602001610274565b61031f61056436600461390d565b612057565b6102c4610577366004613926565b612077565b6102a161058a3660046135ea565b60106020526000908152604090205460ff1681565b6102c46105ad36600461381c565b61209d565b61031f61256b565b6102a16105c8366004613605565b6001600160a01b03918216600090815260016020908152604080832093909416825291909152205460ff1690565b6102c461060436600461384f565b6125fd565b6102c46106173660046136e2565b6126a0565b6102c461062a36600461381c565b61280e565b61064261063d36600461390d565b612851565b6040516102749c9b9a99989796959493929190613c4b565b60095461053e906001600160a01b031681565b61026a60075481565b60006001600160a01b0383166106e75760405162461bcd60e51b815260206004820152602b60248201527f455243313135353a2062616c616e636520717565727920666f7220746865207a60448201526a65726f206164647265737360a81b60648201526084015b60405180910390fd5b506000908152602081815260408083206001600160a01b03949094168352929052205490565b600260045414156107605760405162461bcd60e51b815260206004820152601f60248201527f5265656e7472616e637947756172643a207265656e7472616e742063616c6c0060448201526064016106de565b60026004556000818152600e6020526040902054819060ff166107dc573360009081526010602052604090205460ff166107dc5760405162461bcd60e51b815260206004820152601a60248201527f5468697320636f6c6c656374696f6e206973207072697661746500000000000060448201526064016106de565b6000828152600e60209081526040808320815161018081018352815460ff16151581526001820154938101939093526002810154918301919091526003810154606083015260048101546080830152600581015460a0830152600681015460c0830152600781015460e083015260088101546101008301526009810154610120830152600a81018054610140840191906108759061408b565b80601f01602080910402602001604051908101604052809291908181526020018280546108a19061408b565b80156108ee5780601f106108c3576101008083540402835291602001916108ee565b820191906000526020600020905b8154815290600101906020018083116108d157829003601f168201915b50505050508152602001600b820180546109079061408b565b80601f01602080910402602001604051908101604052809291908181526020018280546109339061408b565b80156109805780601f1061095557610100808354040283529160200191610980565b820191906000526020600020905b81548152906001019060200180831161096357829003601f168201915b505050505081525050905083816040015110156109af5760405162461bcd60e51b81526004016106de90613db0565b6000831180156109c157506007548311155b610a0d5760405162461bcd60e51b815260206004820152601c60248201527f54686973206964206973206e6f7420696e20636f6c6c656374696f6e0000000060448201526064016106de565b600954600a5460808301516001600160a01b03928316926323b872dd923392911690610a53906c0c9f2c9cd04674edea4000000090610a4d908b906129c6565b906129d9565b6040516001600160e01b031960e086901b1681526001600160a01b0393841660048201529290911660248301526044820152606401602060405180830381600087803b158015610aa257600080fd5b505af1158015610ab6573d6000803e3d6000fd5b505050506040513d601f19601f82011682018060405250810190610ada91906138f0565b610b215760405162461bcd60e51b8152602060048201526018602482015277151a19481d5cd91d081d1c985b9cd9995c8819985a5b195960421b60448201526064016106de565b60005b610b3685670de0b6b3a76400006129d9565b811015610c2357610b6633600854600160405180604001604052806002815260200161060f60f31b8152506129e5565b6040805160608101825233808252602080830188815242848601908152600880546000908152600d8552878120965187546001600160a01b0319166001600160a01b0390911617875592516001808801919091559151600290960195909555928152600f8252848120845481548086018355918352838320909101558881526012825293842083548154938401825590855290842090910155805491610c0b836140f3565b91905055508080610c1b906140f3565b915050610b24565b506000838152600e6020526040902060020154610c409085612ae6565b6000848152600e60205260409020600281018290556101008301516007909101549091610c6d9190612ae6565b10610c88576000838152600e60205260409020426001909101555b604080518581524260208201527fb5178cc061af0b3448e47e868e15690d28deeae596550c7ba8ebe9eb105c97d3910160405180910390a1505060016004555050565b60116020528160005260406000208181548110610ce757600080fd5b90600052602060002001600091509150505481565b60008080610d0984610fae565b905060005b8151811015610fa4576000868152600e60209081526040808320815161018081018352815460ff16151581526001820154938101939093526002810154918301919091526003810154606083015260048101546080830152600581015460a0830152600681015460c0830152600781015460e083015260088101546101008301526009810154610120830152600a8101805461014084019190610db09061408b565b80601f0160208091040260200160405190810160405280929190818152602001828054610ddc9061408b565b8015610e295780601f10610dfe57610100808354040283529160200191610e29565b820191906000526020600020905b815481529060010190602001808311610e0c57829003601f168201915b50505050508152602001600b82018054610e429061408b565b80601f0160208091040260200160405190810160405280929190818152602001828054610e6e9061408b565b8015610ebb5780601f10610e9057610100808354040283529160200191610ebb565b820191906000526020600020905b815481529060010190602001808311610e9e57829003601f168201915b505050505081525050905086600d6000858581518110610edd57610edd614124565b6020026020010151815260200190815260200160002060010154148015610f5057508060c001518160a00151600d6000868681518110610f1f57610f1f614124565b6020026020010151815260200190815260200160002060020154610f439190613fd4565b610f4d9190613fd4565b42105b8015610f7e57506000610f7c87858581518110610f6f57610f6f614124565b6020026020010151610676565b115b15610f915783610f8d816140f3565b9450505b5080610f9c816140f3565b915050610d0e565b5090949350505050565b6001600160a01b0381166000908152600f602090815260409182902080548351818402810184019094528084526060939283018282801561100e57602002820191906000526020600020905b815481526020019060010190808311610ffa575b50505050509050919050565b6060600280546110299061408b565b80601f01602080910402602001604051908101604052809291908181526020018280546110559061408b565b801561100e5780601f106110775761010080835404028352916020019161100e565b820191906000526020600020905b8154815290600101906020018083116110855750939695505050505050565b600f6020528160005260406000208181548110610ce757600080fd5b81518351146110e15760405162461bcd60e51b81526004016106de90613efe565b6001600160a01b0384166111075760405162461bcd60e51b81526004016106de90613dfd565b6001600160a01b038516331480611123575061112385336105c8565b61118a5760405162461bcd60e51b815260206004820152603260248201527f455243313135353a207472616e736665722063616c6c6572206973206e6f74206044820152711bdddb995c881b9bdc88185c1c1c9bdd995960721b60648201526084016106de565b3360005b84518110156112bc5760008582815181106111ab576111ab614124565b6020026020010151905060008583815181106111c9576111c9614124565b602090810291909101810151600084815280835260408082206001600160a01b038e1683529093529190912054909150818110156112195760405162461bcd60e51b81526004016106de90613e85565b611223828261402d565b60008085815260200190815260200160002060008c6001600160a01b03166001600160a01b03168152602001908152602001600020819055508160008085815260200190815260200160002060008b6001600160a01b03166001600160a01b0316815260200190815260200160002060008282546112a19190613fd4565b92505081905550505050806112b5906140f3565b905061118e565b50846001600160a01b0316866001600160a01b0316826001600160a01b03167f4a39dc06d4c0dbc64b70af90fd698a233a518aa5d07e595d983b8c0526c8f7fb878760405161130c929190613c1d565b60405180910390a4611322818787878787612af2565b505050505050565b6000828152600360205260409020600101546113468133612c5d565b6113508383612cc1565b505050565b611360600033611b33565b61137c5760405162461bcd60e51b81526004016106de90613ecf565b60005b600b548110156113e857600160106000600b84815481106113a2576113a2614124565b6000918252602080832091909101546001600160a01b031683528201929092526040019020805460ff1916911515919091179055806113e0816140f3565b91505061137f565b506113f5600b6000613358565b565b6001600160a01b03811633146114675760405162461bcd60e51b815260206004820152602f60248201527f416363657373436f6e74726f6c3a2063616e206f6e6c792072656e6f756e636560448201526e103937b632b9903337b91039b2b63360891b60648201526084016106de565b6114718282612d47565b5050565b6000828152600e60209081526040808320815161018081018352815460ff16151581526001820154938101939093526002810154918301919091526003810154606083015260048101546080830152600581015460a0830152600681015460c0830152600781015460e083015260088101546101008301526009810154610120830152600a810180546101408401919061150e9061408b565b80601f016020809104026020016040519081016040528092919081815260200182805461153a9061408b565b80156115875780601f1061155c57610100808354040283529160200191611587565b820191906000526020600020905b81548152906001019060200180831161156a57829003601f168201915b50505050508152602001600b820180546115a09061408b565b80601f01602080910402602001604051908101604052809291908181526020018280546115cc9061408b565b80156116195780601f106115ee57610100808354040283529160200191611619565b820191906000526020600020905b8154815290600101906020018083116115fc57829003601f168201915b505050505081525050905060008160200151116116785760405162461bcd60e51b815260206004820152601a60248201527f4d616475726174696f6e206e6f7420737461727465642079657400000000000060448201526064016106de565b8060a00151816020015161168c9190613fd4565b42116116d25760405162461bcd60e51b815260206004820152601560248201527409ac2c8eae4c2e8d2dedc40dcdee840ccd2dcd2e6d605b1b60448201526064016106de565b60006116de8433610cfc565b9050600081116117305760405162461bcd60e51b815260206004820152601a60248201527f4e6f204e46545320696e207468697320636f6c6c656374696f6e00000000000060448201526064016106de565b61178a611766826117606c0c9f2c9cd04674edea40000000610a4d876101200151896129c690919063ffffffff16565b906129c6565b60405180604001604052806006815260200165185b5bdd5b9d60d21b815250612dae565b600954600a546101208401516001600160a01b03928316926323b872dd9233929116906117d1908690611760906c0c9f2c9cd04674edea4000000090610a4d908c906129c6565b6040516001600160e01b031960e086901b1681526001600160a01b0393841660048201529290911660248301526044820152606401602060405180830381600087803b15801561182057600080fd5b505af1158015611834573d6000803e3d6000fd5b505050506040513d601f19601f8201168201806040525081019061185891906138f0565b61189f5760405162461bcd60e51b8152602060048201526018602482015277151a19481d5cd91d081d1c985b9cd9995c8819985a5b195960421b60448201526064016106de565b3360008181526011602090815260408083208054600181018255908452928290209092018890558151888152908101929092527f83345060e3eb4917210def935c880d7bfa8ed73b136153d3ac60f0be5a183dfa910160405180910390a15050505050565b61190f600033611b33565b61192b5760405162461bcd60e51b81526004016106de90613ecf565b600980546001600160a01b0319166001600160a01b0392909216919091179055565b606081518351146119b25760405162461bcd60e51b815260206004820152602960248201527f455243313135353a206163636f756e747320616e6420696473206c656e677468604482015268040dad2e6dac2e8c6d60bb1b60648201526084016106de565b6000835167ffffffffffffffff8111156119ce576119ce61413a565b6040519080825280602002602001820160405280156119f7578160200160208202803683370190505b50905060005b8451811015611a6257611a35858281518110611a1b57611a1b614124565b6020026020010151858381518110610f6f57610f6f614124565b828281518110611a4757611a47614124565b6020908102919091010152611a5b816140f3565b90506119fd565b509392505050565b6001600160a01b038316331480611a865750611a8683336105c8565b611aa25760405162461bcd60e51b81526004016106de90613d67565b611350838383612df3565b6001600160a01b03811660009081526011602090815260409182902080548351818402810184019094528084526060939283018282801561100e5760200282019190600052602060002090815481526020019060010190808311610ffa5750505050509050919050565b60126020528160005260406000208181548110610ce757600080fd5b60009182526003602090815260408084206001600160a01b0393909316845291905290205460ff1690565b336001600160a01b0383161415611bc95760405162461bcd60e51b815260206004820152602960248201527f455243313135353a2073657474696e6720617070726f76616c20737461747573604482015268103337b91039b2b63360b91b60648201526084016106de565b3360008181526001602090815260408083206001600160a01b03871680855290835292819020805460ff191686151590811790915590519081529192917f17307eab39ab6107e8899845ad3d59bd9653f200f220920489ca2b5937696c31910160405180910390a35050565b600c6020526000908152604090208054611c4e9061408b565b80601f0160208091040260200160405190810160405280929190818152602001828054611c7a9061408b565b8015611cc75780601f10611c9c57610100808354040283529160200191611cc7565b820191906000526020600020905b815481529060010190602001808311611caa57829003601f168201915b505050505081565b60008181526012602090815260409182902080548351818402810184019094528084526060939283018282801561100e5760200282019190600052602060002090815481526020019060010190808311610ffa5750505050509050919050565b611d5c604051806060016040528060006001600160a01b0316815260200160008152602001600081525090565b506000908152600d6020908152604091829020825160608101845281546001600160a01b03168152600182015492810192909252600201549181019190915290565b611da9600033611b33565b611dc55760405162461bcd60e51b81526004016106de90613ecf565b818311611e2f5760405162461bcd60e51b815260206004820152603260248201527f4d616475726174696f6e20616d6f756e742073686f756c64206265206c657373604482015271081d1a185b881d1bdd185b08185b5bdd5b9d60721b60648201526084016106de565b6040518061018001604052808915158152602001600081526020018481526020018881526020018b81526020018781526020018581526020018481526020018381526020018681526020018a815260200182815250600e6000600754815260200190815260200160002060008201518160000160006101000a81548160ff0219169083151502179055506020820151816001015560408201518160020155606082015181600301556080820151816004015560a0820151816005015560c0820151816006015560e082015181600701556101008201518160080155610120820151816009015561014082015181600a019080519060200190611f32929190613379565b506101608201518051611f4f91600b840191602090910190613379565b50506007805491506000611f62836140f3565b91905055507f5f8d39c5b2157ce3be3fba6bc83dced30befa23d4fc4a67702ab0017d48f47d58a878686898e87604051611fa29796959493929190613f5f565b60405180910390a150505050505050505050565b611fc1600033611b33565b611fdd5760405162461bcd60e51b81526004016106de90613ecf565b611fe833838361280e565b60408051338152602081018390529081018390527fac9904ccb216c7c9a336264f26486b74305b0e54e9234ee5bfafc767044870d19060600160405180910390a15050565b600b818154811061203d57600080fd5b6000918252602090912001546001600160a01b0316905081565b6000818152600e60205260409020600b018054606091906110299061408b565b6000828152600360205260409020600101546120938133612c5d565b6113508383612d47565b600260045414156120f05760405162461bcd60e51b815260206004820152601f60248201527f5265656e7472616e637947756172643a207265656e7472616e742063616c6c0060448201526064016106de565b6002600455612100600033611b33565b61211c5760405162461bcd60e51b81526004016106de90613ecf565b6000818152600e6020526040902054819060ff16612193573360009081526010602052604090205460ff166121935760405162461bcd60e51b815260206004820152601a60248201527f5468697320636f6c6c656374696f6e206973207072697661746500000000000060448201526064016106de565b6000828152600e60209081526040808320815161018081018352815460ff16151581526001820154938101939093526002810154918301919091526003810154606083015260048101546080830152600581015460a0830152600681015460c0830152600781015460e083015260088101546101008301526009810154610120830152600a810180546101408401919061222c9061408b565b80601f01602080910402602001604051908101604052809291908181526020018280546122589061408b565b80156122a55780601f1061227a576101008083540402835291602001916122a5565b820191906000526020600020905b81548152906001019060200180831161228857829003601f168201915b50505050508152602001600b820180546122be9061408b565b80601f01602080910402602001604051908101604052809291908181526020018280546122ea9061408b565b80156123375780601f1061230c57610100808354040283529160200191612337565b820191906000526020600020905b81548152906001019060200180831161231a57829003601f168201915b505050505081525050905083816040015110156123665760405162461bcd60e51b81526004016106de90613db0565b60008311801561237857506007548311155b6123c45760405162461bcd60e51b815260206004820152601c60248201527f54686973206964206973206e6f7420696e20636f6c6c656374696f6e0000000060448201526064016106de565b60005b6123d985670de0b6b3a76400006129d9565b8110156124c2576123fe866008546001604051806020016040528060008152506129e5565b604080516060810182526001600160a01b03888116808352602080840189815242858701908152600880546000908152600d8552888120975188546001600160a01b031916971696909617875591516001808801919091559051600290960195909555918352600f81528483208254815480870183559185528285209091015588835260128152938220815481549485018255908352938220909201929092558054916124aa836140f3565b919050555080806124ba906140f3565b9150506123c7565b506000838152600e60205260409020600201546124df9085612ae6565b6000848152600e6020526040902060028101829055610100830151600790910154909161250c9190612ae6565b10612527576000838152600e60205260409020426001909101555b604080518581524260208201527fb5178cc061af0b3448e47e868e15690d28deeae596550c7ba8ebe9eb105c97d3910160405180910390a150506001600455505050565b60606006805461257a9061408b565b80601f01602080910402602001604051908101604052809291908181526020018280546125a69061408b565b80156125f35780601f106125c8576101008083540402835291602001916125f3565b820191906000526020600020905b8154815290600101906020018083116125d657829003601f168201915b5050505050905090565b612608600033611b33565b6126245760405162461bcd60e51b81526004016106de90613ecf565b60005b815181101561268c5760016010600084848151811061264857612648614124565b6020908102919091018101516001600160a01b03168252810191909152604001600020805460ff191691151591909117905580612684816140f3565b915050612627565b50805161147190600b9060208401906133fd565b6001600160a01b0384166126c65760405162461bcd60e51b81526004016106de90613dfd565b6001600160a01b0385163314806126e257506126e285336105c8565b6126fe5760405162461bcd60e51b81526004016106de90613d67565b3361271e81878761270e88612f7c565b61271788612f7c565b5050505050565b6000848152602081815260408083206001600160a01b038a1684529091529020548381101561275f5760405162461bcd60e51b81526004016106de90613e85565b612769848261402d565b6000868152602081815260408083206001600160a01b038c811685529252808320939093558816815290812080548692906127a5908490613fd4565b909155505060408051868152602081018690526001600160a01b03808916928a821692918616917fc3d58168c5ae7397731d063d5bbf3d657854427343f4c083240f7aacaa2d0f62910160405180910390a4612805828888888888612fc7565b50505050505050565b6001600160a01b03831633148061282a575061282a83336105c8565b6128465760405162461bcd60e51b81526004016106de90613d67565b611350838383613091565b600e60205260009081526040902080546001820154600283015460038401546004850154600586015460068701546007880154600889015460098a0154600a8b01805460ff909b169b999a989997989697959694959394929391926128b59061408b565b80601f01602080910402602001604051908101604052809291908181526020018280546128e19061408b565b801561292e5780601f106129035761010080835404028352916020019161292e565b820191906000526020600020905b81548152906001019060200180831161291157829003601f168201915b50505050509080600b0180546129439061408b565b80601f016020809104026020016040519081016040528092919081815260200182805461296f9061408b565b80156129bc5780601f10612991576101008083540402835291602001916129bc565b820191906000526020600020905b81548152906001019060200180831161299f57829003601f168201915b505050505090508c565b60006129d2828461400e565b9392505050565b60006129d28284613fec565b6001600160a01b038416612a455760405162461bcd60e51b815260206004820152602160248201527f455243313135353a206d696e7420746f20746865207a65726f206164647265736044820152607360f81b60648201526084016106de565b33612a568160008761270e88612f7c565b6000848152602081815260408083206001600160a01b038916845290915281208054859290612a86908490613fd4565b909155505060408051858152602081018590526001600160a01b0380881692600092918516917fc3d58168c5ae7397731d063d5bbf3d657854427343f4c083240f7aacaa2d0f62910160405180910390a461271781600087878787612fc7565b60006129d2828461402d565b6001600160a01b0384163b156113225760405163bc197c8160e01b81526001600160a01b0385169063bc197c8190612b369089908990889088908890600401613b67565b602060405180830381600087803b158015612b5057600080fd5b505af1925050508015612b80575060408051601f3d908101601f19168201909252612b7d91810190613966565b60015b612c2d57612b8c614150565b806308c379a01415612bc65750612ba161416c565b80612bac5750612bc8565b8060405162461bcd60e51b81526004016106de9190613cc8565b505b60405162461bcd60e51b815260206004820152603460248201527f455243313135353a207472616e7366657220746f206e6f6e20455243313135356044820152732932b1b2b4bb32b91034b6b83632b6b2b73a32b960611b60648201526084016106de565b6001600160e01b0319811663bc197c8160e01b146128055760405162461bcd60e51b81526004016106de90613cdb565b612c678282611b33565b61147157612c7f816001600160a01b0316601461319b565b612c8a83602061319b565b604051602001612c9b929190613af2565b60408051601f198184030181529082905262461bcd60e51b82526106de91600401613cc8565b612ccb8282611b33565b6114715760008281526003602090815260408083206001600160a01b03851684529091529020805460ff19166001179055612d033390565b6001600160a01b0316816001600160a01b0316837f2f8788117e7eff1d82e926ec794901d17c78024a50270940304540a733656f0d60405160405180910390a45050565b612d518282611b33565b156114715760008281526003602090815260408083206001600160a01b0385168085529252808320805460ff1916905551339285917ff6391f5c32d9c69d2a47ea670b442974b53935d1edc7fd64eb21e047a839171b9190a45050565b6114718282604051602401612dc4929190613f46565b60408051601f198184030181529190526020810180516001600160e01b031663643fd0df60e01b179052613337565b6001600160a01b038316612e195760405162461bcd60e51b81526004016106de90613e42565b8051825114612e3a5760405162461bcd60e51b81526004016106de90613efe565b604080516020810190915260009081905233905b8351811015612f1d576000848281518110612e6b57612e6b614124565b602002602001015190506000848381518110612e8957612e89614124565b602090810291909101810151600084815280835260408082206001600160a01b038c168352909352919091205490915081811015612ed95760405162461bcd60e51b81526004016106de90613d23565b612ee3828261402d565b6000938452602084815260408086206001600160a01b038c1687529091529093209290925550819050612f15816140f3565b915050612e4e565b5060006001600160a01b0316846001600160a01b0316826001600160a01b03167f4a39dc06d4c0dbc64b70af90fd698a233a518aa5d07e595d983b8c0526c8f7fb8686604051612f6e929190613c1d565b60405180910390a450505050565b60408051600180825281830190925260609160009190602080830190803683370190505090508281600081518110612fb657612fb6614124565b602090810291909101015292915050565b6001600160a01b0384163b156113225760405163f23a6e6160e01b81526001600160a01b0385169063f23a6e619061300b9089908990889088908890600401613bc5565b602060405180830381600087803b15801561302557600080fd5b505af1925050508015613055575060408051601f3d908101601f1916820190925261305291810190613966565b60015b61306157612b8c614150565b6001600160e01b0319811663f23a6e6160e01b146128055760405162461bcd60e51b81526004016106de90613cdb565b6001600160a01b0383166130b75760405162461bcd60e51b81526004016106de90613e42565b336130e7818560006130c887612f7c565b6130d187612f7c565b5050604080516020810190915260009052505050565b6000838152602081815260408083206001600160a01b0388168452909152902054828110156131285760405162461bcd60e51b81526004016106de90613d23565b613132838261402d565b6000858152602081815260408083206001600160a01b038a811680865291845282852095909555815189815292830188905292938616917fc3d58168c5ae7397731d063d5bbf3d657854427343f4c083240f7aacaa2d0f62910160405180910390a45050505050565b606060006131aa83600261400e565b6131b5906002613fd4565b67ffffffffffffffff8111156131cd576131cd61413a565b6040519080825280601f01601f1916602001820160405280156131f7576020820181803683370190505b509050600360fc1b8160008151811061321257613212614124565b60200101906001600160f81b031916908160001a905350600f60fb1b8160018151811061324157613241614124565b60200101906001600160f81b031916908160001a905350600061326584600261400e565b613270906001613fd4565b90505b60018111156132e8576f181899199a1a9b1b9c1cb0b131b232b360811b85600f16601081106132a4576132a4614124565b1a60f81b8282815181106132ba576132ba614124565b60200101906001600160f81b031916908160001a90535060049490941c936132e181614074565b9050613273565b5083156129d25760405162461bcd60e51b815260206004820181905260248201527f537472696e67733a20686578206c656e67746820696e73756666696369656e7460448201526064016106de565b80516a636f6e736f6c652e6c6f67602083016000808483855afa5050505050565b50805460008255906000526020600020908101906133769190613452565b50565b8280546133859061408b565b90600052602060002090601f0160209004810192826133a757600085556133ed565b82601f106133c057805160ff19168380011785556133ed565b828001600101855582156133ed579182015b828111156133ed5782518255916020019190600101906133d2565b506133f9929150613452565b5090565b8280548282559060005260206000209081019282156133ed579160200282015b828111156133ed57825182546001600160a01b0319166001600160a01b0390911617825560209092019160019091019061341d565b5b808211156133f95760008155600101613453565b80356001600160a01b038116811461347e57600080fd5b919050565b600082601f83011261349457600080fd5b813560206134a182613fb0565b6040516134ae82826140c6565b8381528281019150858301600585901b870184018810156134ce57600080fd5b60005b858110156134f4576134e282613467565b845292840192908401906001016134d1565b5090979650505050505050565b600082601f83011261351257600080fd5b8135602061351f82613fb0565b60405161352c82826140c6565b8381528281019150858301600585901b8701840188101561354c57600080fd5b60005b858110156134f45781358452928401929084019060010161354f565b803561347e816141f6565b600082601f83011261358757600080fd5b813567ffffffffffffffff8111156135a1576135a161413a565b6040516135b8601f8301601f1916602001826140c6565b8181528460208386010111156135cd57600080fd5b816020850160208301376000918101602001919091529392505050565b6000602082840312156135fc57600080fd5b6129d282613467565b6000806040838503121561361857600080fd5b61362183613467565b915061362f60208401613467565b90509250929050565b600080600080600060a0868803121561365057600080fd5b61365986613467565b945061366760208701613467565b9350604086013567ffffffffffffffff8082111561368457600080fd5b61369089838a01613501565b945060608801359150808211156136a657600080fd5b6136b289838a01613501565b935060808801359150808211156136c857600080fd5b506136d588828901613576565b9150509295509295909350565b600080600080600060a086880312156136fa57600080fd5b61370386613467565b945061371160208701613467565b93506040860135925060608601359150608086013567ffffffffffffffff81111561373b57600080fd5b6136d588828901613576565b60008060006060848603121561375c57600080fd5b61376584613467565b9250602084013567ffffffffffffffff8082111561378257600080fd5b61378e87838801613501565b935060408601359150808211156137a457600080fd5b506137b186828701613501565b9150509250925092565b600080604083850312156137ce57600080fd5b6137d783613467565b915060208301356137e7816141f6565b809150509250929050565b6000806040838503121561380557600080fd5b61380e83613467565b946020939093013593505050565b60008060006060848603121561383157600080fd5b61383a84613467565b95602085013595506040909401359392505050565b60006020828403121561386157600080fd5b813567ffffffffffffffff81111561387857600080fd5b61388484828501613483565b949350505050565b6000806040838503121561389f57600080fd5b823567ffffffffffffffff808211156138b757600080fd5b6138c386838701613483565b935060208501359150808211156138d957600080fd5b506138e685828601613501565b9150509250929050565b60006020828403121561390257600080fd5b81516129d2816141f6565b60006020828403121561391f57600080fd5b5035919050565b6000806040838503121561393957600080fd5b8235915061362f60208401613467565b60006020828403121561395b57600080fd5b81356129d281614204565b60006020828403121561397857600080fd5b81516129d281614204565b6000806000806000806000806000806101408b8d0312156139a357600080fd5b8a35995060208b013567ffffffffffffffff808211156139c257600080fd5b6139ce8e838f01613576565b9a506139dc60408e0161356b565b995060608d0135985060808d0135975060a08d0135965060c08d0135955060e08d013594506101008d013593506101208d0135915080821115613a1e57600080fd5b50613a2b8d828e01613576565b9150509295989b9194979a5092959850565b60008060408385031215613a5057600080fd5b50508035926020909101359150565b600080600060608486031215613a7457600080fd5b505081359360208301359350604090920135919050565b600081518084526020808501945080840160005b83811015613abb57815187529582019590820190600101613a9f565b509495945050505050565b60008151808452613ade816020860160208601614044565b601f01601f19169290920160200192915050565b7f416363657373436f6e74726f6c3a206163636f756e7420000000000000000000815260008351613b2a816017850160208801614044565b7001034b99036b4b9b9b4b733903937b6329607d1b6017918401918201528351613b5b816028840160208801614044565b01602801949350505050565b6001600160a01b0386811682528516602082015260a060408201819052600090613b9390830186613a8b565b8281036060840152613ba58186613a8b565b90508281036080840152613bb98185613ac6565b98975050505050505050565b6001600160a01b03868116825285166020820152604081018490526060810183905260a060808201819052600090613bff90830184613ac6565b979650505050505050565b6020815260006129d26020830184613a8b565b604081526000613c306040830185613a8b565b8281036020840152613c428185613a8b565b95945050505050565b60006101808e151583528d60208401528c60408401528b60608401528a60808401528960a08401528860c08401528760e0840152866101008401528561012084015280610140840152613ca081840186613ac6565b9050828103610160840152613cb58185613ac6565b9f9e505050505050505050505050505050565b6020815260006129d26020830184613ac6565b60208082526028908201527f455243313135353a204552433131353552656365697665722072656a656374656040820152676420746f6b656e7360c01b606082015260800190565b60208082526024908201527f455243313135353a206275726e20616d6f756e7420657863656564732062616c604082015263616e636560e01b606082015260800190565b60208082526029908201527f455243313135353a2063616c6c6572206973206e6f74206f776e6572206e6f7260408201526808185c1c1c9bdd995960ba1b606082015260800190565b6020808252602d908201527f5468657265206973206e6f7420656e6f75676820616d6f756e7420696e20746860408201526c34b99031b7b63632b1ba34b7b760991b606082015260800190565b60208082526025908201527f455243313135353a207472616e7366657220746f20746865207a65726f206164604082015264647265737360d81b606082015260800190565b60208082526023908201527f455243313135353a206275726e2066726f6d20746865207a65726f206164647260408201526265737360e81b606082015260800190565b6020808252602a908201527f455243313135353a20696e73756666696369656e742062616c616e636520666f60408201526939103a3930b739b332b960b11b606082015260800190565b6020808252601590820152744f6e6c79206f776e65722063616e2061636365737360581b604082015260600190565b60208082526028908201527f455243313135353a2069647320616e6420616d6f756e7473206c656e677468206040820152670dad2e6dac2e8c6d60c31b606082015260800190565b8281526040602082015260006138846040830184613ac6565b87815286602082015285604082015284606082015283608082015260e060a08201526000613f9060e0830185613ac6565b82810360c0840152613fa28185613ac6565b9a9950505050505050505050565b600067ffffffffffffffff821115613fca57613fca61413a565b5060051b60200190565b60008219821115613fe757613fe761410e565b500190565b60008261400957634e487b7160e01b600052601260045260246000fd5b500490565b60008160001904831182151516156140285761402861410e565b500290565b60008282101561403f5761403f61410e565b500390565b60005b8381101561405f578181015183820152602001614047565b8381111561406e576000848401525b50505050565b6000816140835761408361410e565b506000190190565b600181811c9082168061409f57607f821691505b602082108114156140c057634e487b7160e01b600052602260045260246000fd5b50919050565b601f8201601f1916810167ffffffffffffffff811182821017156140ec576140ec61413a565b6040525050565b60006000198214156141075761410761410e565b5060010190565b634e487b7160e01b600052601160045260246000fd5b634e487b7160e01b600052603260045260246000fd5b634e487b7160e01b600052604160045260246000fd5b600060033d11156141695760046000803e5060005160e01c5b90565b600060443d101561417a5790565b6040516003193d81016004833e81513d67ffffffffffffffff81602484011181841117156141aa57505050505090565b82850191508151818111156141c25750505050505090565b843d87010160208285010111156141dc5750505050505090565b6141eb602082860101876140c6565b509095945050505050565b801515811461337657600080fd5b6001600160e01b03198116811461337657600080fdfea2646970667358221220c78f660f3c439bbc44c87f18db7c33b277238a24628bbb4ea6aa570819c0817064736f6c63430008070033",
  "devdoc": {
    "kind": "dev",
    "methods": {
      "balanceOf(address,uint256)": {
        "details": "See {IERC1155-balanceOf}. Requirements: - `account` cannot be the zero address."
      },
      "balanceOfBatch(address[],uint256[])": {
        "details": "See {IERC1155-balanceOfBatch}. Requirements: - `accounts` and `ids` must have the same length."
      },
      "burnIt(uint256,uint256)": {
        "details": "user burns his NFTs"
      },
      "createCollection(uint256,string,bool,uint256,uint256,uint256,uint256,uint256,uint256,string)": {
        "details": "admin create collections without upload ipfs"
      },
      "getRoleAdmin(bytes32)": {
        "details": "Returns the admin role that controls `role`. See {grantRole} and {revokeRole}. To change a role's admin, use {_setRoleAdmin}."
      },
      "grantRole(bytes32,address)": {
        "details": "Grants `role` to `account`. If `account` had not been already granted `role`, emits a {RoleGranted} event. Requirements: - the caller must have ``role``'s admin role."
      },
      "hasRole(bytes32,address)": {
        "details": "Returns `true` if `account` has been granted `role`."
      },
      "isApprovedForAll(address,address)": {
        "details": "See {IERC1155-isApprovedForAll}."
      },
      "renounceRole(bytes32,address)": {
        "details": "Revokes `role` from the calling account. Roles are often managed via {grantRole} and {revokeRole}: this function's purpose is to provide a mechanism for accounts to lose their privileges if they are compromised (such as when a trusted device is misplaced). If the calling account had been granted `role`, emits a {RoleRevoked} event. Requirements: - the caller must be `account`."
      },
      "revokeRole(bytes32,address)": {
        "details": "Revokes `role` from `account`. If `account` had been granted `role`, emits a {RoleRevoked} event. Requirements: - the caller must have ``role``'s admin role."
      },
      "safeBatchTransferFrom(address,address,uint256[],uint256[],bytes)": {
        "details": "See {IERC1155-safeBatchTransferFrom}."
      },
      "safeTransferFrom(address,address,uint256,uint256,bytes)": {
        "details": "See {IERC1155-safeTransferFrom}."
      },
      "setApprovalForAll(address,bool)": {
        "details": "See {IERC1155-setApprovalForAll}."
      },
      "supportsInterface(bytes4)": {
        "details": "See {IERC165-supportsInterface}."
      },
      "uri(uint256)": {
        "details": "See {IERC1155MetadataURI-uri}. This implementation returns the same URI for *all* token types. It relies on the token type ID substitution mechanism https://eips.ethereum.org/EIPS/eip-1155#metadata[defined in the EIP]. Clients calling this function must replace the `\\{id\\}` substring with the actual token type ID."
      }
    },
    "version": 1
  },
  "userdoc": {
    "kind": "user",
    "methods": {
      "addExternalBuy(address,uint256,uint256)": {
        "notice": "add a buy from other payment "
      },
      "addWhitelist(address[])": {
        "notice": "ONLY OWNER FUNCTIONS"
      },
      "changeUSDTaddress(address)": {
        "notice": "Change usdt address"
      },
      "getNFTByColleccion(uint256)": {
        "notice": "VIEW FUNCTIONS"
      },
      "howManyNFTs(uint256,address)": {
        "notice": "PUBLIC FUNCTIONS"
      }
    },
    "version": 1
  },
  "storageLayout": {
    "storage": [
      {
        "astId": 411,
        "contract": "contracts/Criptonix.sol:Criptonix",
        "label": "_balances",
        "offset": 0,
        "slot": "0",
        "type": "t_mapping(t_uint256,t_mapping(t_address,t_uint256))"
      },
      {
        "astId": 417,
        "contract": "contracts/Criptonix.sol:Criptonix",
        "label": "_operatorApprovals",
        "offset": 0,
        "slot": "1",
        "type": "t_mapping(t_address,t_mapping(t_address,t_bool))"
      },
      {
        "astId": 419,
        "contract": "contracts/Criptonix.sol:Criptonix",
        "label": "_uri",
        "offset": 0,
        "slot": "2",
        "type": "t_string_storage"
      },
      {
        "astId": 62,
        "contract": "contracts/Criptonix.sol:Criptonix",
        "label": "_roles",
        "offset": 0,
        "slot": "3",
        "type": "t_mapping(t_bytes32,t_struct(RoleData)57_storage)"
      },
      {
        "astId": 356,
        "contract": "contracts/Criptonix.sol:Criptonix",
        "label": "_status",
        "offset": 0,
        "slot": "4",
        "type": "t_uint256"
      },
      {
        "astId": 3134,
        "contract": "contracts/Criptonix.sol:Criptonix",
        "label": "_baseUri",
        "offset": 0,
        "slot": "5",
        "type": "t_string_storage"
      },
      {
        "astId": 3136,
        "contract": "contracts/Criptonix.sol:Criptonix",
        "label": "_contractUri",
        "offset": 0,
        "slot": "6",
        "type": "t_string_storage"
      },
      {
        "astId": 3139,
        "contract": "contracts/Criptonix.sol:Criptonix",
        "label": "idCollection",
        "offset": 0,
        "slot": "7",
        "type": "t_uint256"
      },
      {
        "astId": 3142,
        "contract": "contracts/Criptonix.sol:Criptonix",
        "label": "nftId",
        "offset": 0,
        "slot": "8",
        "type": "t_uint256"
      },
      {
        "astId": 3144,
        "contract": "contracts/Criptonix.sol:Criptonix",
        "label": "USDTAddress",
        "offset": 0,
        "slot": "9",
        "type": "t_address"
      },
      {
        "astId": 3146,
        "contract": "contracts/Criptonix.sol:Criptonix",
        "label": "recipient",
        "offset": 0,
        "slot": "10",
        "type": "t_address"
      },
      {
        "astId": 3149,
        "contract": "contracts/Criptonix.sol:Criptonix",
        "label": "whitelistArr",
        "offset": 0,
        "slot": "11",
        "type": "t_array(t_address)dyn_storage"
      },
      {
        "astId": 3188,
        "contract": "contracts/Criptonix.sol:Criptonix",
        "label": "ipfsHashes",
        "offset": 0,
        "slot": "12",
        "type": "t_mapping(t_uint256,t_string_storage)"
      },
      {
        "astId": 3193,
        "contract": "contracts/Criptonix.sol:Criptonix",
        "label": "tokenDatas",
        "offset": 0,
        "slot": "13",
        "type": "t_mapping(t_uint256,t_struct(tokenData)3156_storage)"
      },
      {
        "astId": 3198,
        "contract": "contracts/Criptonix.sol:Criptonix",
        "label": "collections",
        "offset": 0,
        "slot": "14",
        "type": "t_mapping(t_uint256,t_struct(Collection)3181_storage)"
      },
      {
        "astId": 3203,
        "contract": "contracts/Criptonix.sol:Criptonix",
        "label": "idsForUser",
        "offset": 0,
        "slot": "15",
        "type": "t_mapping(t_address,t_array(t_uint256)dyn_storage)"
      },
      {
        "astId": 3207,
        "contract": "contracts/Criptonix.sol:Criptonix",
        "label": "whitelisted",
        "offset": 0,
        "slot": "16",
        "type": "t_mapping(t_address,t_bool)"
      },
      {
        "astId": 3212,
        "contract": "contracts/Criptonix.sol:Criptonix",
        "label": "rewardsAlreadyPaid",
        "offset": 0,
        "slot": "17",
        "type": "t_mapping(t_address,t_array(t_uint256)dyn_storage)"
      },
      {
        "astId": 3217,
        "contract": "contracts/Criptonix.sol:Criptonix",
        "label": "nftsOfCollection",
        "offset": 0,
        "slot": "18",
        "type": "t_mapping(t_uint256,t_array(t_uint256)dyn_storage)"
      }
    ],
    "types": {
      "t_address": {
        "encoding": "inplace",
        "label": "address",
        "numberOfBytes": "20"
      },
      "t_array(t_address)dyn_storage": {
        "base": "t_address",
        "encoding": "dynamic_array",
        "label": "address[]",
        "numberOfBytes": "32"
      },
      "t_array(t_uint256)dyn_storage": {
        "base": "t_uint256",
        "encoding": "dynamic_array",
        "label": "uint256[]",
        "numberOfBytes": "32"
      },
      "t_bool": {
        "encoding": "inplace",
        "label": "bool",
        "numberOfBytes": "1"
      },
      "t_bytes32": {
        "encoding": "inplace",
        "label": "bytes32",
        "numberOfBytes": "32"
      },
      "t_mapping(t_address,t_array(t_uint256)dyn_storage)": {
        "encoding": "mapping",
        "key": "t_address",
        "label": "mapping(address => uint256[])",
        "numberOfBytes": "32",
        "value": "t_array(t_uint256)dyn_storage"
      },
      "t_mapping(t_address,t_bool)": {
        "encoding": "mapping",
        "key": "t_address",
        "label": "mapping(address => bool)",
        "numberOfBytes": "32",
        "value": "t_bool"
      },
      "t_mapping(t_address,t_mapping(t_address,t_bool))": {
        "encoding": "mapping",
        "key": "t_address",
        "label": "mapping(address => mapping(address => bool))",
        "numberOfBytes": "32",
        "value": "t_mapping(t_address,t_bool)"
      },
      "t_mapping(t_address,t_uint256)": {
        "encoding": "mapping",
        "key": "t_address",
        "label": "mapping(address => uint256)",
        "numberOfBytes": "32",
        "value": "t_uint256"
      },
      "t_mapping(t_bytes32,t_struct(RoleData)57_storage)": {
        "encoding": "mapping",
        "key": "t_bytes32",
        "label": "mapping(bytes32 => struct AccessControl.RoleData)",
        "numberOfBytes": "32",
        "value": "t_struct(RoleData)57_storage"
      },
      "t_mapping(t_uint256,t_array(t_uint256)dyn_storage)": {
        "encoding": "mapping",
        "key": "t_uint256",
        "label": "mapping(uint256 => uint256[])",
        "numberOfBytes": "32",
        "value": "t_array(t_uint256)dyn_storage"
      },
      "t_mapping(t_uint256,t_mapping(t_address,t_uint256))": {
        "encoding": "mapping",
        "key": "t_uint256",
        "label": "mapping(uint256 => mapping(address => uint256))",
        "numberOfBytes": "32",
        "value": "t_mapping(t_address,t_uint256)"
      },
      "t_mapping(t_uint256,t_string_storage)": {
        "encoding": "mapping",
        "key": "t_uint256",
        "label": "mapping(uint256 => string)",
        "numberOfBytes": "32",
        "value": "t_string_storage"
      },
      "t_mapping(t_uint256,t_struct(Collection)3181_storage)": {
        "encoding": "mapping",
        "key": "t_uint256",
        "label": "mapping(uint256 => struct Criptonix.Collection)",
        "numberOfBytes": "32",
        "value": "t_struct(Collection)3181_storage"
      },
      "t_mapping(t_uint256,t_struct(tokenData)3156_storage)": {
        "encoding": "mapping",
        "key": "t_uint256",
        "label": "mapping(uint256 => struct Criptonix.tokenData)",
        "numberOfBytes": "32",
        "value": "t_struct(tokenData)3156_storage"
      },
      "t_string_storage": {
        "encoding": "bytes",
        "label": "string",
        "numberOfBytes": "32"
      },
      "t_struct(Collection)3181_storage": {
        "encoding": "inplace",
        "label": "struct Criptonix.Collection",
        "members": [
          {
            "astId": 3158,
            "contract": "contracts/Criptonix.sol:Criptonix",
            "label": "isPublic",
            "offset": 0,
            "slot": "0",
            "type": "t_bool"
          },
          {
            "astId": 3160,
            "contract": "contracts/Criptonix.sol:Criptonix",
            "label": "madurationStartedAt",
            "offset": 0,
            "slot": "1",
            "type": "t_uint256"
          },
          {
            "astId": 3162,
            "contract": "contracts/Criptonix.sol:Criptonix",
            "label": "remainAmountToSell",
            "offset": 0,
            "slot": "2",
            "type": "t_uint256"
          },
          {
            "astId": 3164,
            "contract": "contracts/Criptonix.sol:Criptonix",
            "label": "TH",
            "offset": 0,
            "slot": "3",
            "type": "t_uint256"
          },
          {
            "astId": 3166,
            "contract": "contracts/Criptonix.sol:Criptonix",
            "label": "price",
            "offset": 0,
            "slot": "4",
            "type": "t_uint256"
          },
          {
            "astId": 3168,
            "contract": "contracts/Criptonix.sol:Criptonix",
            "label": "madurityTime",
            "offset": 0,
            "slot": "5",
            "type": "t_uint256"
          },
          {
            "astId": 3170,
            "contract": "contracts/Criptonix.sol:Criptonix",
            "label": "tokenLife",
            "offset": 0,
            "slot": "6",
            "type": "t_uint256"
          },
          {
            "astId": 3172,
            "contract": "contracts/Criptonix.sol:Criptonix",
            "label": "amount",
            "offset": 0,
            "slot": "7",
            "type": "t_uint256"
          },
          {
            "astId": 3174,
            "contract": "contracts/Criptonix.sol:Criptonix",
            "label": "amountToStartMaduration",
            "offset": 0,
            "slot": "8",
            "type": "t_uint256"
          },
          {
            "astId": 3176,
            "contract": "contracts/Criptonix.sol:Criptonix",
            "label": "energyCost",
            "offset": 0,
            "slot": "9",
            "type": "t_uint256"
          },
          {
            "astId": 3178,
            "contract": "contracts/Criptonix.sol:Criptonix",
            "label": "description",
            "offset": 0,
            "slot": "10",
            "type": "t_string_storage"
          },
          {
            "astId": 3180,
            "contract": "contracts/Criptonix.sol:Criptonix",
            "label": "ipfsHash",
            "offset": 0,
            "slot": "11",
            "type": "t_string_storage"
          }
        ],
        "numberOfBytes": "384"
      },
      "t_struct(RoleData)57_storage": {
        "encoding": "inplace",
        "label": "struct AccessControl.RoleData",
        "members": [
          {
            "astId": 54,
            "contract": "contracts/Criptonix.sol:Criptonix",
            "label": "members",
            "offset": 0,
            "slot": "0",
            "type": "t_mapping(t_address,t_bool)"
          },
          {
            "astId": 56,
            "contract": "contracts/Criptonix.sol:Criptonix",
            "label": "adminRole",
            "offset": 0,
            "slot": "1",
            "type": "t_bytes32"
          }
        ],
        "numberOfBytes": "64"
      },
      "t_struct(tokenData)3156_storage": {
        "encoding": "inplace",
        "label": "struct Criptonix.tokenData",
        "members": [
          {
            "astId": 3151,
            "contract": "contracts/Criptonix.sol:Criptonix",
            "label": "creator",
            "offset": 0,
            "slot": "0",
            "type": "t_address"
          },
          {
            "astId": 3153,
            "contract": "contracts/Criptonix.sol:Criptonix",
            "label": "idCollection",
            "offset": 0,
            "slot": "1",
            "type": "t_uint256"
          },
          {
            "astId": 3155,
            "contract": "contracts/Criptonix.sol:Criptonix",
            "label": "born",
            "offset": 0,
            "slot": "2",
            "type": "t_uint256"
          }
        ],
        "numberOfBytes": "96"
      },
      "t_uint256": {
        "encoding": "inplace",
        "label": "uint256",
        "numberOfBytes": "32"
      }
    }
  }
}